{
  "_format": "hh-sol-artifact-1",
  "contractName": "SimpleBatchPayment",
  "sourceName": "contracts/SimpleBatchPayment.sol",
  "abi": [
    {
      "inputs": [
        {
          "internalType": "address",
          "name": "_admin",
          "type": "address"
        },
        {
          "internalType": "address",
          "name": "_tshc",
          "type": "address"
        }
      ],
      "stateMutability": "nonpayable",
      "type": "constructor"
    },
    {
      "inputs": [],
      "name": "AccessControlBadConfirmation",
      "type": "error"
    },
    {
      "inputs": [
        {
          "internalType": "address",
          "name": "account",
          "type": "address"
        },
        {
          "internalType": "bytes32",
          "name": "neededRole",
          "type": "bytes32"
        }
      ],
      "name": "AccessControlUnauthorizedAccount",
      "type": "error"
    },
    {
      "inputs": [
        {
          "internalType": "address",
          "name": "token",
          "type": "address"
        }
      ],
      "name": "SafeERC20FailedOperation",
      "type": "error"
    },
    {
      "anonymous": false,
      "inputs": [
        {
          "indexed": true,
          "internalType": "uint256",
          "name": "batchId",
          "type": "uint256"
        },
        {
          "indexed": true,
          "internalType": "address",
          "name": "sender",
          "type": "address"
        },
        {
          "indexed": false,
          "internalType": "uint256",
          "name": "totalAmount",
          "type": "uint256"
        },
        {
          "indexed": false,
          "internalType": "uint256",
          "name": "totalFee",
          "type": "uint256"
        },
        {
          "indexed": false,
          "internalType": "string",
          "name": "paymentReference",
          "type": "string"
        }
      ],
      "name": "BatchPaymentCreated",
      "type": "event"
    },
    {
      "anonymous": false,
      "inputs": [
        {
          "indexed": true,
          "internalType": "uint256",
          "name": "batchId",
          "type": "uint256"
        }
      ],
      "name": "BatchPaymentProcessed",
      "type": "event"
    },
    {
      "anonymous": false,
      "inputs": [
        {
          "indexed": false,
          "internalType": "uint256",
          "name": "oldMax",
          "type": "uint256"
        },
        {
          "indexed": false,
          "internalType": "uint256",
          "name": "newMax",
          "type": "uint256"
        }
      ],
      "name": "MaxRecipientsUpdated",
      "type": "event"
    },
    {
      "anonymous": false,
      "inputs": [
        {
          "indexed": false,
          "internalType": "uint256",
          "name": "oldMin",
          "type": "uint256"
        },
        {
          "indexed": false,
          "internalType": "uint256",
          "name": "newMin",
          "type": "uint256"
        }
      ],
      "name": "MinAmountUpdated",
      "type": "event"
    },
    {
      "anonymous": false,
      "inputs": [
        {
          "indexed": false,
          "internalType": "address",
          "name": "account",
          "type": "address"
        }
      ],
      "name": "Paused",
      "type": "event"
    },
    {
      "anonymous": false,
      "inputs": [
        {
          "indexed": true,
          "internalType": "bytes32",
          "name": "role",
          "type": "bytes32"
        },
        {
          "indexed": true,
          "internalType": "bytes32",
          "name": "previousAdminRole",
          "type": "bytes32"
        },
        {
          "indexed": true,
          "internalType": "bytes32",
          "name": "newAdminRole",
          "type": "bytes32"
        }
      ],
      "name": "RoleAdminChanged",
      "type": "event"
    },
    {
      "anonymous": false,
      "inputs": [
        {
          "indexed": true,
          "internalType": "bytes32",
          "name": "role",
          "type": "bytes32"
        },
        {
          "indexed": true,
          "internalType": "address",
          "name": "account",
          "type": "address"
        },
        {
          "indexed": true,
          "internalType": "address",
          "name": "sender",
          "type": "address"
        }
      ],
      "name": "RoleGranted",
      "type": "event"
    },
    {
      "anonymous": false,
      "inputs": [
        {
          "indexed": true,
          "internalType": "bytes32",
          "name": "role",
          "type": "bytes32"
        },
        {
          "indexed": true,
          "internalType": "address",
          "name": "account",
          "type": "address"
        },
        {
          "indexed": true,
          "internalType": "address",
          "name": "sender",
          "type": "address"
        }
      ],
      "name": "RoleRevoked",
      "type": "event"
    },
    {
      "anonymous": false,
      "inputs": [
        {
          "indexed": false,
          "internalType": "address",
          "name": "account",
          "type": "address"
        }
      ],
      "name": "Unpaused",
      "type": "event"
    },
    {
      "inputs": [],
      "name": "BATCH_ADMIN_ROLE",
      "outputs": [
        {
          "internalType": "bytes32",
          "name": "",
          "type": "bytes32"
        }
      ],
      "stateMutability": "view",
      "type": "function"
    },
    {
      "inputs": [],
      "name": "DEFAULT_ADMIN_ROLE",
      "outputs": [
        {
          "internalType": "bytes32",
          "name": "",
          "type": "bytes32"
        }
      ],
      "stateMutability": "view",
      "type": "function"
    },
    {
      "inputs": [],
      "name": "OPERATOR_ROLE",
      "outputs": [
        {
          "internalType": "bytes32",
          "name": "",
          "type": "bytes32"
        }
      ],
      "stateMutability": "view",
      "type": "function"
    },
    {
      "inputs": [],
      "name": "batchCount",
      "outputs": [
        {
          "internalType": "uint256",
          "name": "",
          "type": "uint256"
        }
      ],
      "stateMutability": "view",
      "type": "function"
    },
    {
      "inputs": [
        {
          "internalType": "uint256",
          "name": "",
          "type": "uint256"
        }
      ],
      "name": "batchPayments",
      "outputs": [
        {
          "internalType": "address",
          "name": "sender",
          "type": "address"
        },
        {
          "internalType": "string",
          "name": "paymentReference",
          "type": "string"
        },
        {
          "internalType": "uint256",
          "name": "timestamp",
          "type": "uint256"
        },
        {
          "internalType": "bool",
          "name": "processed",
          "type": "bool"
        },
        {
          "internalType": "uint256",
          "name": "totalAmount",
          "type": "uint256"
        },
        {
          "internalType": "uint256",
          "name": "totalFee",
          "type": "uint256"
        }
      ],
      "stateMutability": "view",
      "type": "function"
    },
    {
      "inputs": [
        {
          "internalType": "address[]",
          "name": "_recipients",
          "type": "address[]"
        },
        {
          "internalType": "uint256[]",
          "name": "_amounts",
          "type": "uint256[]"
        },
        {
          "internalType": "string",
          "name": "_paymentReference",
          "type": "string"
        }
      ],
      "name": "createBatchPayment",
      "outputs": [
        {
          "internalType": "uint256",
          "name": "batchId",
          "type": "uint256"
        }
      ],
      "stateMutability": "nonpayable",
      "type": "function"
    },
    {
      "inputs": [
        {
          "internalType": "uint256",
          "name": "_batchId",
          "type": "uint256"
        }
      ],
      "name": "getBatchPayment",
      "outputs": [
        {
          "internalType": "address",
          "name": "sender",
          "type": "address"
        },
        {
          "internalType": "address[]",
          "name": "recipients",
          "type": "address[]"
        },
        {
          "internalType": "uint256[]",
          "name": "amounts",
          "type": "uint256[]"
        },
        {
          "internalType": "string",
          "name": "paymentReference",
          "type": "string"
        },
        {
          "internalType": "uint256",
          "name": "timestamp",
          "type": "uint256"
        },
        {
          "internalType": "bool",
          "name": "processed",
          "type": "bool"
        },
        {
          "internalType": "uint256",
          "name": "totalAmount",
          "type": "uint256"
        },
        {
          "internalType": "uint256",
          "name": "totalFee",
          "type": "uint256"
        }
      ],
      "stateMutability": "view",
      "type": "function"
    },
    {
      "inputs": [
        {
          "internalType": "bytes32",
          "name": "role",
          "type": "bytes32"
        }
      ],
      "name": "getRoleAdmin",
      "outputs": [
        {
          "internalType": "bytes32",
          "name": "",
          "type": "bytes32"
        }
      ],
      "stateMutability": "view",
      "type": "function"
    },
    {
      "inputs": [
        {
          "internalType": "bytes32",
          "name": "role",
          "type": "bytes32"
        },
        {
          "internalType": "address",
          "name": "account",
          "type": "address"
        }
      ],
      "name": "grantRole",
      "outputs": [],
      "stateMutability": "nonpayable",
      "type": "function"
    },
    {
      "inputs": [
        {
          "internalType": "bytes32",
          "name": "role",
          "type": "bytes32"
        },
        {
          "internalType": "address",
          "name": "account",
          "type": "address"
        }
      ],
      "name": "hasRole",
      "outputs": [
        {
          "internalType": "bool",
          "name": "",
          "type": "bool"
        }
      ],
      "stateMutability": "view",
      "type": "function"
    },
    {
      "inputs": [],
      "name": "maxRecipientsPerBatch",
      "outputs": [
        {
          "internalType": "uint256",
          "name": "",
          "type": "uint256"
        }
      ],
      "stateMutability": "view",
      "type": "function"
    },
    {
      "inputs": [],
      "name": "minAmountPerRecipient",
      "outputs": [
        {
          "internalType": "uint256",
          "name": "",
          "type": "uint256"
        }
      ],
      "stateMutability": "view",
      "type": "function"
    },
    {
      "inputs": [],
      "name": "pause",
      "outputs": [],
      "stateMutability": "nonpayable",
      "type": "function"
    },
    {
      "inputs": [],
      "name": "paused",
      "outputs": [
        {
          "internalType": "bool",
          "name": "",
          "type": "bool"
        }
      ],
      "stateMutability": "view",
      "type": "function"
    },
    {
      "inputs": [
        {
          "internalType": "uint256",
          "name": "_batchId",
          "type": "uint256"
        }
      ],
      "name": "processBatchPayment",
      "outputs": [],
      "stateMutability": "nonpayable",
      "type": "function"
    },
    {
      "inputs": [
        {
          "internalType": "bytes32",
          "name": "role",
          "type": "bytes32"
        },
        {
          "internalType": "address",
          "name": "callerConfirmation",
          "type": "address"
        }
      ],
      "name": "renounceRole",
      "outputs": [],
      "stateMutability": "nonpayable",
      "type": "function"
    },
    {
      "inputs": [
        {
          "internalType": "bytes32",
          "name": "role",
          "type": "bytes32"
        },
        {
          "internalType": "address",
          "name": "account",
          "type": "address"
        }
      ],
      "name": "revokeRole",
      "outputs": [],
      "stateMutability": "nonpayable",
      "type": "function"
    },
    {
      "inputs": [
        {
          "internalType": "bytes4",
          "name": "interfaceId",
          "type": "bytes4"
        }
      ],
      "name": "supportsInterface",
      "outputs": [
        {
          "internalType": "bool",
          "name": "",
          "type": "bool"
        }
      ],
      "stateMutability": "view",
      "type": "function"
    },
    {
      "inputs": [],
      "name": "tshc",
      "outputs": [
        {
          "internalType": "contract IERC20",
          "name": "",
          "type": "address"
        }
      ],
      "stateMutability": "view",
      "type": "function"
    },
    {
      "inputs": [],
      "name": "unpause",
      "outputs": [],
      "stateMutability": "nonpayable",
      "type": "function"
    },
    {
      "inputs": [
        {
          "internalType": "uint256",
          "name": "_newMax",
          "type": "uint256"
        }
      ],
      "name": "updateMaxRecipientsPerBatch",
      "outputs": [],
      "stateMutability": "nonpayable",
      "type": "function"
    },
    {
      "inputs": [
        {
          "internalType": "uint256",
          "name": "_newMin",
          "type": "uint256"
        }
      ],
      "name": "updateMinAmountPerRecipient",
      "outputs": [],
      "stateMutability": "nonpayable",
      "type": "function"
    }
  ],
  "bytecode": "0x60806040526064600455670de0b6b3a76400006005553480156200002257600080fd5b5060405162001b5a38038062001b5a8339810160408190526200004591620002c3565b6001600160a01b038216620000a15760405162461bcd60e51b815260206004820152601c60248201527f41646d696e20616464726573732063616e6e6f74206265207a65726f0000000060448201526064015b60405180910390fd5b6001600160a01b038116620000f95760405162461bcd60e51b815260206004820152601b60248201527f5453484320616464726573732063616e6e6f74206265207a65726f0000000000604482015260640162000098565b62000106600083620001ac565b506200012260008051602062001b1a83398151915283620001ac565b506200013e60008051602062001b3a83398151915283620001ac565b506200015b60008051602062001b1a83398151915260006200025b565b6200018560008051602062001b3a83398151915260008051602062001b1a8339815191526200025b565b600180546001600160a01b0319166001600160a01b039290921691909117905550620002fb565b6000828152602081815260408083206001600160a01b038516845290915281205460ff1662000251576000838152602081815260408083206001600160a01b03861684529091529020805460ff19166001179055620002083390565b6001600160a01b0316826001600160a01b0316847f2f8788117e7eff1d82e926ec794901d17c78024a50270940304540a733656f0d60405160405180910390a450600162000255565b5060005b92915050565b600082815260208190526040808220600101805490849055905190918391839186917fbd79b86ffe0ab8e8776151514217cd7cacd52c909f66475c3af44e129f0b00ff9190a4505050565b80516001600160a01b0381168114620002be57600080fd5b919050565b60008060408385031215620002d757600080fd5b620002e283620002a6565b9150620002f260208401620002a6565b90509250929050565b61180f806200030b6000396000f3fe608060405234801561001057600080fd5b50600436106101425760003560e01c80635c975abb116100b857806391d148541161007c57806391d14854146102a1578063a217fddf146102b4578063a7792cf4146102bc578063c1198217146102cf578063d547741f146102fa578063f5b541a61461030d57600080fd5b80635c975abb1461024a5780635da84f131461025e5780637bc948001461027157806380344c24146102865780638456cb591461029957600080fd5b80632f2ff15d1161010a5780632f2ff15d146101d75780632fcef5cc146101ec57806336568abe146102135780633f4ba83a1461022657806349e614e11461022e5780634e4b63691461024157600080fd5b806301ffc9a71461014757806306f130561461016f5780631457a87214610186578063248a9ca3146101ab5780632e8b92a9146101ce575b600080fd5b61015a61015536600461126b565b610334565b60405190151581526020015b60405180910390f35b61017860025481565b604051908152602001610166565b61019961019436600461129c565b61036b565b604051610166969594939291906112fb565b6101786101b936600461129c565b60009081526020819052604090206001015490565b61017860045481565b6101ea6101e5366004611360565b610438565b005b6101ff6101fa36600461129c565b610463565b6040516101669897969594939291906113c7565b6101ea610221366004611360565b61060e565b6101ea610646565b6101ea61023c36600461129c565b6106f9565b61017860055481565b60015461015a90600160a01b900460ff1681565b61017861026c3660046114b9565b6107b9565b6101786000805160206117ba83398151915281565b6101ea61029436600461129c565b610c72565b6101ea610e3d565b61015a6102af366004611360565b610ec2565b610178600081565b6101ea6102ca36600461129c565b610eeb565b6001546102e2906001600160a01b031681565b6040516001600160a01b039091168152602001610166565b6101ea610308366004611360565b610f41565b6101787f97667070c54ef182b0f5858b034beac1b6f3089aa2d3188bb1e8929f4fa9b92981565b60006001600160e01b03198216637965db0b60e01b148061036557506301ffc9a760e01b6001600160e01b03198316145b92915050565b6003602081905260009182526040909120805491810180546001600160a01b03909316926103989061157f565b80601f01602080910402602001604051908101604052809291908181526020018280546103c49061157f565b80156104115780601f106103e657610100808354040283529160200191610411565b820191906000526020600020905b8154815290600101906020018083116103f457829003601f168201915b505050506004830154600584015460068501546007909501549394919360ff909116925086565b60008281526020819052604090206001015461045381610f66565b61045d8383610f73565b50505050565b6000818152600360208181526040808420805460048201546005830154600684015460078501546001860180548851818b0281018b0190995280895260609a8b9a8b9a8e9a8b9a8b9a8b9a92996001600160a01b039092169860028b0197968b0196919560ff909416949293909291899183018282801561050d57602002820191906000526020600020905b81546001600160a01b031681526001909101906020018083116104ef575b505050505096508580548060200260200160405190810160405280929190818152602001828054801561055f57602002820191906000526020600020905b81548152602001906001019080831161054b575b505050505095508480546105729061157f565b80601f016020809104026020016040519081016040528092919081815260200182805461059e9061157f565b80156105eb5780601f106105c0576101008083540402835291602001916105eb565b820191906000526020600020905b8154815290600101906020018083116105ce57829003601f168201915b505050505094509850985098509850985098509850985050919395975091939597565b6001600160a01b03811633146106375760405163334bd91960e11b815260040160405180910390fd5b6106418282611005565b505050565b6000805160206117ba83398151915261065e81610f66565b600154600160a01b900460ff166106b55760405162461bcd60e51b815260206004820152601660248201527510dbdb9d1c9858dd081a5cc81b9bdd081c185d5cd95960521b60448201526064015b60405180910390fd5b6001805460ff60a01b191690556040513381527f5db9ee0a495bf2e6ff9c91a7834c1ba4fdd244a5e8aa4e537bd38aeae4b073aa906020015b60405180910390a150565b6000805160206117ba83398151915261071181610f66565b600082116107725760405162461bcd60e51b815260206004820152602860248201527f4d617820726563697069656e7473206d7573742062652067726561746572207460448201526768616e207a65726f60c01b60648201526084016106ac565b600480549083905560408051828152602081018590527fb010296fe6d61754e2577ef181d6f11c23e4f4fe93836511bb79364acd791c6891015b60405180910390a1505050565b600154600090600160a01b900460ff16156107e65760405162461bcd60e51b81526004016106ac906115b9565b8561082c5760405162461bcd60e51b8152602060048201526016602482015275139bc81c9958da5c1a595b9d1cc81c1c9bdd9a59195960521b60448201526064016106ac565b85841461088a5760405162461bcd60e51b815260206004820152602660248201527f526563697069656e747320616e6420616d6f756e7473206c656e677468206d696044820152650e6dac2e8c6d60d31b60648201526084016106ac565b6004548611156108d25760405162461bcd60e51b8152602060048201526013602482015272546f6f206d616e7920726563697069656e747360681b60448201526064016106ac565b6000805b878110156109f65760008989838181106108f2576108f26115e5565b905060200201602081019061090791906115fb565b6001600160a01b03160361095d5760405162461bcd60e51b815260206004820152601960248201527f496e76616c696420726563697069656e7420616464726573730000000000000060448201526064016106ac565b600554878783818110610972576109726115e5565b9050602002013510156109be5760405162461bcd60e51b8152602060048201526014602482015273416d6f756e742062656c6f77206d696e696d756d60601b60448201526064016106ac565b8686828181106109d0576109d06115e5565b90506020020135826109e2919061162c565b9150806109ee8161163f565b9150506108d6565b5060008111610a565760405162461bcd60e51b815260206004820152602660248201527f546f74616c20616d6f756e74206d7573742062652067726561746572207468616044820152656e207a65726f60d01b60648201526084016106ac565b6002805460009182610a678361163f565b919050559250604051806101000160405280336001600160a01b031681526020018a8a808060200260200160405190810160405280939291908181526020018383602002808284376000920191909152505050908252506040805160208a810282810182019093528a82529283019290918b918b918291850190849080828437600092019190915250505090825250604080516020601f890181900481028201810190925287815291810191908890889081908401838280828437600092018290525093855250504260208085019190915260408085018490526060850188905260809094018690528783526003815292909120835181546001600160a01b0319166001600160a01b039091161781558383015180519193610b91935060018501929101906111b6565b5060408201518051610bad91600284019160209091019061121b565b5060608201516003820190610bc290826116bc565b506080820151600482015560a082015160058201805460ff191691151591909117905560c0820151600682015560e090910151600790910155610c1e3330610c0a848661162c565b6001546001600160a01b0316929190611070565b336001600160a01b0316837f3e4cc587d6c58f63180ea4de590b290db14f1118bfd79d8499e8c21f99ecef3c84848989604051610c5e949392919061177c565b60405180910390a350509695505050505050565b600154600160a01b900460ff1615610c9c5760405162461bcd60e51b81526004016106ac906115b9565b7f97667070c54ef182b0f5858b034beac1b6f3089aa2d3188bb1e8929f4fa9b929610cc681610f66565b6000828152600360205260409020600581015460ff1615610d295760405162461bcd60e51b815260206004820152601760248201527f426174636820616c72656164792070726f63657373656400000000000000000060448201526064016106ac565b80546001600160a01b0316610d775760405162461bcd60e51b815260206004820152601460248201527310985d18da08191bd95cc81b9bdd08195e1a5cdd60621b60448201526064016106ac565b60058101805460ff1916600117905560005b6001820154811015610e0c57610dfa826001018281548110610dad57610dad6115e5565b6000918252602090912001546002840180546001600160a01b039092169184908110610ddb57610ddb6115e5565b6000918252602090912001546001546001600160a01b031691906110d7565b80610e048161163f565b915050610d89565b5060405183907f1c0d9eb91668154163bae8692f4199ee9c1aaa2fb6865879965d76606f4eb8a790600090a2505050565b6000805160206117ba833981519152610e5581610f66565b600154600160a01b900460ff1615610e7f5760405162461bcd60e51b81526004016106ac906115b9565b6001805460ff60a01b1916600160a01b1790556040513381527f62e78cea01bee320cd4e420270b5ea74000d11b0c9f74754ebdbfc544b05a258906020016106ee565b6000918252602082815260408084206001600160a01b0393909316845291905290205460ff1690565b6000805160206117ba833981519152610f0381610f66565b600580549083905560408051828152602081018590527f656a449366ed7a6c9034eeaf2c97a3ce974c5033a88215ae041e95fb9f9ade8691016107ac565b600082815260208190526040902060010154610f5c81610f66565b61045d8383611005565b610f708133611108565b50565b6000610f7f8383610ec2565b610ffd576000838152602081815260408083206001600160a01b03861684529091529020805460ff19166001179055610fb53390565b6001600160a01b0316826001600160a01b0316847f2f8788117e7eff1d82e926ec794901d17c78024a50270940304540a733656f0d60405160405180910390a4506001610365565b506000610365565b60006110118383610ec2565b15610ffd576000838152602081815260408083206001600160a01b0386168085529252808320805460ff1916905551339286917ff6391f5c32d9c69d2a47ea670b442974b53935d1edc7fd64eb21e047a839171b9190a4506001610365565b6040516001600160a01b03848116602483015283811660448301526064820183905261045d9186918216906323b872dd906084015b604051602081830303815290604052915060e01b6020820180516001600160e01b038381831617835250505050611145565b6040516001600160a01b0383811660248301526044820183905261064191859182169063a9059cbb906064016110a5565b6111128282610ec2565b6111415760405163e2517d3f60e01b81526001600160a01b0382166004820152602481018390526044016106ac565b5050565b600080602060008451602086016000885af180611168576040513d6000823e3d81fd5b50506000513d9150811561118057806001141561118d565b6001600160a01b0384163b155b1561045d57604051635274afe760e01b81526001600160a01b03851660048201526024016106ac565b82805482825590600052602060002090810192821561120b579160200282015b8281111561120b57825182546001600160a01b0319166001600160a01b039091161782556020909201916001909101906111d6565b50611217929150611256565b5090565b82805482825590600052602060002090810192821561120b579160200282015b8281111561120b57825182559160200191906001019061123b565b5b808211156112175760008155600101611257565b60006020828403121561127d57600080fd5b81356001600160e01b03198116811461129557600080fd5b9392505050565b6000602082840312156112ae57600080fd5b5035919050565b6000815180845260005b818110156112db576020818501810151868301820152016112bf565b506000602082860101526020601f19601f83011685010191505092915050565b6001600160a01b038716815260c06020820181905260009061131f908301886112b5565b6040830196909652509215156060840152608083019190915260a09091015292915050565b80356001600160a01b038116811461135b57600080fd5b919050565b6000806040838503121561137357600080fd5b8235915061138360208401611344565b90509250929050565b600081518084526020808501945080840160005b838110156113bc578151875295820195908201906001016113a0565b509495945050505050565b6001600160a01b03898116825261010060208084018290528a519184018290526000926101208501928c83019290855b818110156114155784518416865294820194938201936001016113f7565b5050505050828103604084015261142c818a61138c565b9050828103606084015261144081896112b5565b91505085608083015261145760a083018615159052565b60c082019390935260e001529695505050505050565b60008083601f84011261147f57600080fd5b50813567ffffffffffffffff81111561149757600080fd5b6020830191508360208260051b85010111156114b257600080fd5b9250929050565b600080600080600080606087890312156114d257600080fd5b863567ffffffffffffffff808211156114ea57600080fd5b6114f68a838b0161146d565b9098509650602089013591508082111561150f57600080fd5b61151b8a838b0161146d565b9096509450604089013591508082111561153457600080fd5b818901915089601f83011261154857600080fd5b81358181111561155757600080fd5b8a602082850101111561156957600080fd5b6020830194508093505050509295509295509295565b600181811c9082168061159357607f821691505b6020821081036115b357634e487b7160e01b600052602260045260246000fd5b50919050565b60208082526012908201527110dbdb9d1c9858dd081a5cc81c185d5cd95960721b604082015260600190565b634e487b7160e01b600052603260045260246000fd5b60006020828403121561160d57600080fd5b61129582611344565b634e487b7160e01b600052601160045260246000fd5b8082018082111561036557610365611616565b60006001820161165157611651611616565b5060010190565b634e487b7160e01b600052604160045260246000fd5b601f82111561064157600081815260208120601f850160051c810160208610156116955750805b601f850160051c820191505b818110156116b4578281556001016116a1565b505050505050565b815167ffffffffffffffff8111156116d6576116d6611658565b6116ea816116e4845461157f565b8461166e565b602080601f83116001811461171f57600084156117075750858301515b600019600386901b1c1916600185901b1785556116b4565b600085815260208120601f198616915b8281101561174e5788860151825594840194600190910190840161172f565b508582101561176c5787850151600019600388901b60f8161c191681555b5050505050600190811b01905550565b84815283602082015260606040820152816060820152818360808301376000818301608090810191909152601f909201601f19160101939250505056fe170c79c7fa91ee11c6de4d96f513fb36e59ec6d71ffdf75d7912c9da9a68cd56a2646970667358221220493f2b2d3ae0246f2e9dc40900bf42ebd885b20fc4943fb9237ea84d1f70612d64736f6c63430008140033170c79c7fa91ee11c6de4d96f513fb36e59ec6d71ffdf75d7912c9da9a68cd5697667070c54ef182b0f5858b034beac1b6f3089aa2d3188bb1e8929f4fa9b929",
  "linkReferences": {},
  "deployedLinkReferences": {}
}