{
  "_format": "hh-sol-artifact-1",
  "contractName": "SimpleSmartWalletFactory",
  "sourceName": "contracts/SimpleSmartWalletFactory.sol",
  "abi": [
    {
      "inputs": [
        {
          "internalType": "address",
          "name": "_paymaster",
          "type": "address"
        }
      ],
      "stateMutability": "nonpayable",
      "type": "constructor"
    },
    {
      "inputs": [
        {
          "internalType": "address",
          "name": "owner",
          "type": "address"
        }
      ],
      "name": "OwnableInvalidOwner",
      "type": "error"
    },
    {
      "inputs": [
        {
          "internalType": "address",
          "name": "account",
          "type": "address"
        }
      ],
      "name": "OwnableUnauthorizedAccount",
      "type": "error"
    },
    {
      "anonymous": false,
      "inputs": [
        {
          "indexed": true,
          "internalType": "address",
          "name": "previousOwner",
          "type": "address"
        },
        {
          "indexed": true,
          "internalType": "address",
          "name": "newOwner",
          "type": "address"
        }
      ],
      "name": "OwnershipTransferred",
      "type": "event"
    },
    {
      "anonymous": false,
      "inputs": [
        {
          "indexed": true,
          "internalType": "address",
          "name": "oldPaymaster",
          "type": "address"
        },
        {
          "indexed": true,
          "internalType": "address",
          "name": "newPaymaster",
          "type": "address"
        }
      ],
      "name": "PaymasterUpdated",
      "type": "event"
    },
    {
      "anonymous": false,
      "inputs": [
        {
          "indexed": true,
          "internalType": "address",
          "name": "owner",
          "type": "address"
        },
        {
          "indexed": true,
          "internalType": "address",
          "name": "wallet",
          "type": "address"
        }
      ],
      "name": "WalletCreated",
      "type": "event"
    },
    {
      "inputs": [
        {
          "internalType": "address",
          "name": "_owner",
          "type": "address"
        }
      ],
      "name": "createWallet",
      "outputs": [
        {
          "internalType": "address",
          "name": "wallet",
          "type": "address"
        }
      ],
      "stateMutability": "nonpayable",
      "type": "function"
    },
    {
      "inputs": [
        {
          "internalType": "address",
          "name": "_owner",
          "type": "address"
        }
      ],
      "name": "getWallet",
      "outputs": [
        {
          "internalType": "address",
          "name": "",
          "type": "address"
        }
      ],
      "stateMutability": "view",
      "type": "function"
    },
    {
      "inputs": [
        {
          "internalType": "address",
          "name": "_owner",
          "type": "address"
        }
      ],
      "name": "hasWallet",
      "outputs": [
        {
          "internalType": "bool",
          "name": "",
          "type": "bool"
        }
      ],
      "stateMutability": "view",
      "type": "function"
    },
    {
      "inputs": [],
      "name": "owner",
      "outputs": [
        {
          "internalType": "address",
          "name": "",
          "type": "address"
        }
      ],
      "stateMutability": "view",
      "type": "function"
    },
    {
      "inputs": [],
      "name": "paymaster",
      "outputs": [
        {
          "internalType": "address",
          "name": "",
          "type": "address"
        }
      ],
      "stateMutability": "view",
      "type": "function"
    },
    {
      "inputs": [],
      "name": "renounceOwnership",
      "outputs": [],
      "stateMutability": "nonpayable",
      "type": "function"
    },
    {
      "inputs": [
        {
          "internalType": "address",
          "name": "newOwner",
          "type": "address"
        }
      ],
      "name": "transferOwnership",
      "outputs": [],
      "stateMutability": "nonpayable",
      "type": "function"
    },
    {
      "inputs": [
        {
          "internalType": "address",
          "name": "_newPaymaster",
          "type": "address"
        }
      ],
      "name": "updatePaymaster",
      "outputs": [],
      "stateMutability": "nonpayable",
      "type": "function"
    },
    {
      "inputs": [
        {
          "internalType": "address",
          "name": "",
          "type": "address"
        }
      ],
      "name": "wallets",
      "outputs": [
        {
          "internalType": "address",
          "name": "",
          "type": "address"
        }
      ],
      "stateMutability": "view",
      "type": "function"
    }
  ],
  "bytecode": "0x608060405234801561001057600080fd5b506040516113a73803806113a783398101604081905261002f9161012b565b338061005657604051631e4fbdf760e01b8152600060048201526024015b60405180910390fd5b61005f816100db565b506001600160a01b0381166100b65760405162461bcd60e51b815260206004820181905260248201527f5061796d617374657220616464726573732063616e6e6f74206265207a65726f604482015260640161004d565b600180546001600160a01b0319166001600160a01b039290921691909117905561015b565b600080546001600160a01b038381166001600160a01b0319831681178455604051919092169283917f8be0079c531659141344cd1fd0a4f28419497f9722a3daafe3b4186f6b6457e09190a35050565b60006020828403121561013d57600080fd5b81516001600160a01b038116811461015457600080fd5b9392505050565b61123d8061016a6000396000f3fe608060405234801561001057600080fd5b50600436106100935760003560e01c806389b08f111161006657806389b08f111461013c5780638da5cb5b14610165578063b054a9e814610176578063daf6a3f614610189578063f2fde38b1461019c57600080fd5b806304d0a6471461009857806316e4cbf9146100e1578063715018a6146100f457806380dc8b06146100fe575b600080fd5b6100c46100a63660046104c2565b6001600160a01b039081166000908152600260205260409020541690565b6040516001600160a01b0390911681526020015b60405180910390f35b6001546100c4906001600160a01b031681565b6100fc6101af565b005b61012c61010c3660046104c2565b6001600160a01b0390811660009081526002602052604090205416151590565b60405190151581526020016100d8565b6100c461014a3660046104c2565b6002602052600090815260409020546001600160a01b031681565b6000546001600160a01b03166100c4565b6100c46101843660046104c2565b6101c3565b6100fc6101973660046104c2565b61034a565b6100fc6101aa3660046104c2565b6103fa565b6101b7610438565b6101c16000610465565b565b60006001600160a01b0382166102205760405162461bcd60e51b815260206004820152601c60248201527f4f776e657220616464726573732063616e6e6f74206265207a65726f0000000060448201526064015b60405180910390fd5b6001600160a01b0382811660009081526002602052604090205416156102945760405162461bcd60e51b8152602060048201526024808201527f57616c6c657420616c72656164792065786973747320666f722074686973206f6044820152633bb732b960e11b6064820152608401610217565b60015460405160009184916001600160a01b03909116906102b4906104b5565b6001600160a01b03928316815291166020820152604001604051809103906000f0801580156102e7573d6000803e3d6000fd5b506001600160a01b0384811660008181526002602052604080822080546001600160a01b031916948616948517905551939550859450919290917f5b03bfed1c14a02bdeceb5fa582eb1a5765fc0bc64ca0e6af4c20afc9487f08191a350919050565b610352610438565b6001600160a01b0381166103a85760405162461bcd60e51b815260206004820181905260248201527f5061796d617374657220616464726573732063616e6e6f74206265207a65726f6044820152606401610217565b600180546001600160a01b038381166001600160a01b0319831681179093556040519116919082907fef8b2748f41e05500550a7e08fe781629c344ef779e7c0bf1eaa80fd2b8738c990600090a35050565b610402610438565b6001600160a01b03811661042c57604051631e4fbdf760e01b815260006004820152602401610217565b61043581610465565b50565b6000546001600160a01b031633146101c15760405163118cdaa760e01b8152336004820152602401610217565b600080546001600160a01b038381166001600160a01b0319831681178455604051919092169283917f8be0079c531659141344cd1fd0a4f28419497f9722a3daafe3b4186f6b6457e09190a35050565b610d15806104f383390190565b6000602082840312156104d457600080fd5b81356001600160a01b03811681146104eb57600080fd5b939250505056fe608060405234801561001057600080fd5b50604051610d15380380610d1583398101604081905261002f91610151565b816001600160a01b03811661005f57604051631e4fbdf760e01b8152600060048201526024015b60405180910390fd5b610068816100e5565b506001600160a01b0381166100bf5760405162461bcd60e51b815260206004820181905260248201527f5061796d617374657220616464726573732063616e6e6f74206265207a65726f6044820152606401610056565b600180546001600160a01b0319166001600160a01b039290921691909117905550610184565b600080546001600160a01b038381166001600160a01b0319831681178455604051919092169283917f8be0079c531659141344cd1fd0a4f28419497f9722a3daafe3b4186f6b6457e09190a35050565b80516001600160a01b038116811461014c57600080fd5b919050565b6000806040838503121561016457600080fd5b61016d83610135565b915061017b60208401610135565b90509250929050565b610b82806101936000396000f3fe60806040526004361061008a5760003560e01c80638da5cb5b116100595780638da5cb5b14610145578063affed0e014610163578063daf6a3f614610179578063f2fde38b14610199578063fa540801146101b957600080fd5b806316e4cbf914610096578063221f8c00146100d35780632bbcf6a214610101578063715018a61461012e57600080fd5b3661009157005b600080fd5b3480156100a257600080fd5b506001546100b6906001600160a01b031681565b6040516001600160a01b0390911681526020015b60405180910390f35b3480156100df57600080fd5b506100f36100ee36600461092f565b6101d9565b6040519081526020016100ca565b34801561010d57600080fd5b5061012161011c366004610991565b61025b565b6040516100ca9190610a1b565b34801561013a57600080fd5b506101436104f3565b005b34801561015157600080fd5b506000546001600160a01b03166100b6565b34801561016f57600080fd5b506100f360025481565b34801561018557600080fd5b50610143610194366004610a69565b610507565b3480156101a557600080fd5b506101436101b4366004610a69565b6105b7565b3480156101c557600080fd5b506100f36101d4366004610a8b565b6105f5565b600030868686866040516101ee929190610aa4565b6040519081900381206bffffffffffffffffffffffff19606095861b811660208401529390941b909216603483015260488201526068810191909152608881018390524660a882015260c80160405160208183030381529060405280519060200120905095945050505050565b6060600061026e888888886002546101d9565b9050600061027b826105f5565b905060006102c186868080601f01602080910402602001604051908101604052809392919081815260200183838082843760009201919091525086939250506106489050565b90506102d56000546001600160a01b031690565b6001600160a01b0316816001600160a01b03161461032e5760405162461bcd60e51b8152602060048201526011602482015270496e76616c6964207369676e617475726560781b60448201526064015b60405180910390fd5b6002805490600061033e83610aca565b919050555060005a90506000808c6001600160a01b03168c8c8c604051610366929190610aa4565b60006040518083038185875af1925050503d80600081146103a3576040519150601f19603f3d011682016040523d82523d6000602084013e6103a8565b606091505b5091509150816103fa5760405162461bcd60e51b815260206004820152601c60248201527f5472616e73616374696f6e20657865637574696f6e206661696c6564000000006044820152606401610325565b60005a6104079085610ae3565b6001549091506001600160a01b031663ac5678c561042d6000546001600160a01b031690565b6040516001600160e01b031960e084901b1681526001600160a01b03909116600482015260248101849052604401600060405180830381600087803b15801561047557600080fd5b505af1158015610489573d6000803e3d6000fd5b505050508d6001600160a01b03167f862c2fee80ff12bbe85a7ba5ef3a95eefd276d7aad48da241d19fd23378f68e58e8e8e60016002546104ca9190610ae3565b6040516104da9493929190610af6565b60405180910390a2509c9b505050505050505050505050565b6104fb610674565b61050560006106a1565b565b61050f610674565b6001600160a01b0381166105655760405162461bcd60e51b815260206004820181905260248201527f5061796d617374657220616464726573732063616e6e6f74206265207a65726f6044820152606401610325565b600180546001600160a01b038381166001600160a01b0319831681179093556040519116919082907fef8b2748f41e05500550a7e08fe781629c344ef779e7c0bf1eaa80fd2b8738c990600090a35050565b6105bf610674565b6001600160a01b0381166105e957604051631e4fbdf760e01b815260006004820152602401610325565b6105f2816106a1565b50565b6040517f19457468657265756d205369676e6564204d6573736167653a0a3332000000006020820152603c8101829052600090605c01604051602081830303815290604052805190602001209050919050565b60008060008061065886866106f1565b925092509250610668828261073e565b50909150505b92915050565b6000546001600160a01b031633146105055760405163118cdaa760e01b8152336004820152602401610325565b600080546001600160a01b038381166001600160a01b0319831681178455604051919092169283917f8be0079c531659141344cd1fd0a4f28419497f9722a3daafe3b4186f6b6457e09190a35050565b6000806000835160410361072b5760208401516040850151606086015160001a61071d888285856107fb565b955095509550505050610737565b50508151600091506002905b9250925092565b600082600381111561075257610752610b36565b0361075b575050565b600182600381111561076f5761076f610b36565b0361078d5760405163f645eedf60e01b815260040160405180910390fd5b60028260038111156107a1576107a1610b36565b036107c25760405163fce698f760e01b815260048101829052602401610325565b60038260038111156107d6576107d6610b36565b036107f7576040516335e2f38360e21b815260048101829052602401610325565b5050565b600080807f7fffffffffffffffffffffffffffffff5d576e7357a4501ddfe92f46681b20a084111561083657506000915060039050826108c0565b604080516000808252602082018084528a905260ff891692820192909252606081018790526080810186905260019060a0016020604051602081039080840390855afa15801561088a573d6000803e3d6000fd5b5050604051601f1901519150506001600160a01b0381166108b6575060009250600191508290506108c0565b9250600091508190505b9450945094915050565b80356001600160a01b03811681146108e157600080fd5b919050565b60008083601f8401126108f857600080fd5b50813567ffffffffffffffff81111561091057600080fd5b60208301915083602082850101111561092857600080fd5b9250929050565b60008060008060006080868803121561094757600080fd5b610950866108ca565b945060208601359350604086013567ffffffffffffffff81111561097357600080fd5b61097f888289016108e6565b96999598509660600135949350505050565b600080600080600080608087890312156109aa57600080fd5b6109b3876108ca565b955060208701359450604087013567ffffffffffffffff808211156109d757600080fd5b6109e38a838b016108e6565b909650945060608901359150808211156109fc57600080fd5b50610a0989828a016108e6565b979a9699509497509295939492505050565b600060208083528351808285015260005b81811015610a4857858101830151858201604001528201610a2c565b506000604082860101526040601f19601f8301168501019250505092915050565b600060208284031215610a7b57600080fd5b610a84826108ca565b9392505050565b600060208284031215610a9d57600080fd5b5035919050565b8183823760009101908152919050565b634e487b7160e01b600052601160045260246000fd5b600060018201610adc57610adc610ab4565b5060010190565b8181038181111561066e5761066e610ab4565b848152606060208201528260608201528284608083013760006080848301015260006080601f19601f860116830101905082604083015295945050505050565b634e487b7160e01b600052602160045260246000fdfea26469706673582212200bb08c3908056acbf25772b8ee315605791f4caba39f8ffe9690e4ab2b2a6e5d64736f6c63430008140033a264697066735822122069663511709ea577733146b7e3388af5dd3cee357388df841b59a5fb25166d6464736f6c63430008140033",
  "linkReferences": {},
  "deployedLinkReferences": {}
}