{
  "_format": "hh-sol-artifact-1",
  "contractName": "SimplePriceOracle",
  "sourceName": "contracts/SimplePriceOracle.sol",
  "abi": [
    {
      "inputs": [
        {
          "internalType": "address",
          "name": "_admin",
          "type": "address"
        }
      ],
      "stateMutability": "nonpayable",
      "type": "constructor"
    },
    {
      "inputs": [],
      "name": "AccessControlBadConfirmation",
      "type": "error"
    },
    {
      "inputs": [
        {
          "internalType": "address",
          "name": "account",
          "type": "address"
        },
        {
          "internalType": "bytes32",
          "name": "neededRole",
          "type": "bytes32"
        }
      ],
      "name": "AccessControlUnauthorizedAccount",
      "type": "error"
    },
    {
      "anonymous": false,
      "inputs": [
        {
          "indexed": false,
          "internalType": "uint256",
          "name": "oldHeartbeat",
          "type": "uint256"
        },
        {
          "indexed": false,
          "internalType": "uint256",
          "name": "newHeartbeat",
          "type": "uint256"
        }
      ],
      "name": "HeartbeatUpdated",
      "type": "event"
    },
    {
      "anonymous": false,
      "inputs": [
        {
          "indexed": true,
          "internalType": "bytes32",
          "name": "pair",
          "type": "bytes32"
        },
        {
          "indexed": false,
          "internalType": "uint256",
          "name": "price",
          "type": "uint256"
        },
        {
          "indexed": false,
          "internalType": "uint256",
          "name": "timestamp",
          "type": "uint256"
        }
      ],
      "name": "PriceUpdated",
      "type": "event"
    },
    {
      "anonymous": false,
      "inputs": [
        {
          "indexed": true,
          "internalType": "bytes32",
          "name": "role",
          "type": "bytes32"
        },
        {
          "indexed": true,
          "internalType": "bytes32",
          "name": "previousAdminRole",
          "type": "bytes32"
        },
        {
          "indexed": true,
          "internalType": "bytes32",
          "name": "newAdminRole",
          "type": "bytes32"
        }
      ],
      "name": "RoleAdminChanged",
      "type": "event"
    },
    {
      "anonymous": false,
      "inputs": [
        {
          "indexed": true,
          "internalType": "bytes32",
          "name": "role",
          "type": "bytes32"
        },
        {
          "indexed": true,
          "internalType": "address",
          "name": "account",
          "type": "address"
        },
        {
          "indexed": true,
          "internalType": "address",
          "name": "sender",
          "type": "address"
        }
      ],
      "name": "RoleGranted",
      "type": "event"
    },
    {
      "anonymous": false,
      "inputs": [
        {
          "indexed": true,
          "internalType": "bytes32",
          "name": "role",
          "type": "bytes32"
        },
        {
          "indexed": true,
          "internalType": "address",
          "name": "account",
          "type": "address"
        },
        {
          "indexed": true,
          "internalType": "address",
          "name": "sender",
          "type": "address"
        }
      ],
      "name": "RoleRevoked",
      "type": "event"
    },
    {
      "inputs": [],
      "name": "DEFAULT_ADMIN_ROLE",
      "outputs": [
        {
          "internalType": "bytes32",
          "name": "",
          "type": "bytes32"
        }
      ],
      "stateMutability": "view",
      "type": "function"
    },
    {
      "inputs": [],
      "name": "ORACLE_ADMIN_ROLE",
      "outputs": [
        {
          "internalType": "bytes32",
          "name": "",
          "type": "bytes32"
        }
      ],
      "stateMutability": "view",
      "type": "function"
    },
    {
      "inputs": [],
      "name": "PRICE_FEEDER_ROLE",
      "outputs": [
        {
          "internalType": "bytes32",
          "name": "",
          "type": "bytes32"
        }
      ],
      "stateMutability": "view",
      "type": "function"
    },
    {
      "inputs": [
        {
          "internalType": "bytes32",
          "name": "_pair",
          "type": "bytes32"
        }
      ],
      "name": "activatePriceFeed",
      "outputs": [],
      "stateMutability": "nonpayable",
      "type": "function"
    },
    {
      "inputs": [
        {
          "internalType": "bytes32",
          "name": "_pair",
          "type": "bytes32"
        }
      ],
      "name": "deactivatePriceFeed",
      "outputs": [],
      "stateMutability": "nonpayable",
      "type": "function"
    },
    {
      "inputs": [
        {
          "internalType": "bytes32",
          "name": "_pair",
          "type": "bytes32"
        }
      ],
      "name": "getLatestPrice",
      "outputs": [
        {
          "internalType": "uint256",
          "name": "price",
          "type": "uint256"
        },
        {
          "internalType": "uint256",
          "name": "timestamp",
          "type": "uint256"
        }
      ],
      "stateMutability": "view",
      "type": "function"
    },
    {
      "inputs": [
        {
          "internalType": "bytes32",
          "name": "role",
          "type": "bytes32"
        }
      ],
      "name": "getRoleAdmin",
      "outputs": [
        {
          "internalType": "bytes32",
          "name": "",
          "type": "bytes32"
        }
      ],
      "stateMutability": "view",
      "type": "function"
    },
    {
      "inputs": [
        {
          "internalType": "bytes32",
          "name": "role",
          "type": "bytes32"
        },
        {
          "internalType": "address",
          "name": "account",
          "type": "address"
        }
      ],
      "name": "grantRole",
      "outputs": [],
      "stateMutability": "nonpayable",
      "type": "function"
    },
    {
      "inputs": [
        {
          "internalType": "bytes32",
          "name": "role",
          "type": "bytes32"
        },
        {
          "internalType": "address",
          "name": "account",
          "type": "address"
        }
      ],
      "name": "hasRole",
      "outputs": [
        {
          "internalType": "bool",
          "name": "",
          "type": "bool"
        }
      ],
      "stateMutability": "view",
      "type": "function"
    },
    {
      "inputs": [],
      "name": "heartbeat",
      "outputs": [
        {
          "internalType": "uint256",
          "name": "",
          "type": "uint256"
        }
      ],
      "stateMutability": "view",
      "type": "function"
    },
    {
      "inputs": [
        {
          "internalType": "bytes32",
          "name": "",
          "type": "bytes32"
        }
      ],
      "name": "priceFeeds",
      "outputs": [
        {
          "internalType": "uint256",
          "name": "price",
          "type": "uint256"
        },
        {
          "internalType": "uint256",
          "name": "timestamp",
          "type": "uint256"
        },
        {
          "internalType": "bool",
          "name": "active",
          "type": "bool"
        }
      ],
      "stateMutability": "view",
      "type": "function"
    },
    {
      "inputs": [
        {
          "internalType": "bytes32",
          "name": "role",
          "type": "bytes32"
        },
        {
          "internalType": "address",
          "name": "callerConfirmation",
          "type": "address"
        }
      ],
      "name": "renounceRole",
      "outputs": [],
      "stateMutability": "nonpayable",
      "type": "function"
    },
    {
      "inputs": [
        {
          "internalType": "bytes32",
          "name": "role",
          "type": "bytes32"
        },
        {
          "internalType": "address",
          "name": "account",
          "type": "address"
        }
      ],
      "name": "revokeRole",
      "outputs": [],
      "stateMutability": "nonpayable",
      "type": "function"
    },
    {
      "inputs": [
        {
          "internalType": "bytes4",
          "name": "interfaceId",
          "type": "bytes4"
        }
      ],
      "name": "supportsInterface",
      "outputs": [
        {
          "internalType": "bool",
          "name": "",
          "type": "bool"
        }
      ],
      "stateMutability": "view",
      "type": "function"
    },
    {
      "inputs": [
        {
          "internalType": "uint256",
          "name": "_newHeartbeat",
          "type": "uint256"
        }
      ],
      "name": "updateHeartbeat",
      "outputs": [],
      "stateMutability": "nonpayable",
      "type": "function"
    },
    {
      "inputs": [
        {
          "internalType": "bytes32",
          "name": "_pair",
          "type": "bytes32"
        },
        {
          "internalType": "uint256",
          "name": "_price",
          "type": "uint256"
        }
      ],
      "name": "updatePrice",
      "outputs": [],
      "stateMutability": "nonpayable",
      "type": "function"
    }
  ],
  "bytecode": "0x6080604052610e106002553480156200001757600080fd5b5060405162000ce838038062000ce88339810160408190526200003a9162000222565b6001600160a01b038116620000955760405162461bcd60e51b815260206004820152601c60248201527f41646d696e20616464726573732063616e6e6f74206265207a65726f00000000604482015260640160405180910390fd5b620000a260008262000128565b50620000be60008051602062000ca88339815191528262000128565b50620000da60008051602062000cc88339815191528262000128565b50620000f760008051602062000ca88339815191526000620001d7565b6200012160008051602062000cc883398151915260008051602062000ca8833981519152620001d7565b5062000254565b6000828152602081815260408083206001600160a01b038516845290915281205460ff16620001cd576000838152602081815260408083206001600160a01b03861684529091529020805460ff19166001179055620001843390565b6001600160a01b0316826001600160a01b0316847f2f8788117e7eff1d82e926ec794901d17c78024a50270940304540a733656f0d60405160405180910390a4506001620001d1565b5060005b92915050565b600082815260208190526040808220600101805490849055905190918391839186917fbd79b86ffe0ab8e8776151514217cd7cacd52c909f66475c3af44e129f0b00ff9190a4505050565b6000602082840312156200023557600080fd5b81516001600160a01b03811681146200024d57600080fd5b9392505050565b610a4480620002646000396000f3fe608060405234801561001057600080fd5b50600436106101005760003560e01c806383ed806311610097578063b2ee2f0111610066578063b2ee2f011461021f578063c6c3f71e14610247578063d547741f14610295578063f3dc7d42146102a857600080fd5b806383ed8063146101ca57806391d14854146101f1578063a217fddf14610204578063a8957ed01461020c57600080fd5b806336568abe116100d357806336568abe146101865780633defb962146101995780635f704f3e146101a25780638003a94f146101b557600080fd5b806301e298021461010557806301ffc9a71461011a578063248a9ca3146101425780632f2ff15d14610173575b600080fd5b610118610113366004610925565b6102bb565b005b61012d61012836600461093e565b6103b7565b60405190151581526020015b60405180910390f35b610165610150366004610925565b60009081526020819052604090206001015490565b604051908152602001610139565b61011861018136600461096f565b6103ee565b61011861019436600461096f565b610419565b61016560025481565b6101186101b03660046109ab565b610451565b6101656000805160206109ef83398151915281565b6101657f7d867aa9d791a9a4be418f90a2f248aa2c5f1348317792a6f6412f94df9819f781565b61012d6101ff36600461096f565b61054f565b610165600081565b61011861021a366004610925565b610578565b61023261022d366004610925565b610605565b60408051928352602083019190915201610139565b610278610255366004610925565b600160208190526000918252604090912080549181015460029091015460ff1683565b604080519384526020840192909252151590820152606001610139565b6101186102a336600461096f565b6106ff565b6101186102b6366004610925565b610724565b6000805160206109ef8339815191526102d3816107de565b60008281526001602052604090206002015460ff161561033a5760405162461bcd60e51b815260206004820152601960248201527f5072696365206665656420616c7265616479206163746976650000000000000060448201526064015b60405180910390fd5b6000828152600160205260409020546103955760405162461bcd60e51b815260206004820152601a60248201527f50726963652066656564206e6f7420696e697469616c697a65640000000000006044820152606401610331565b506000908152600160208190526040909120600201805460ff19169091179055565b60006001600160e01b03198216637965db0b60e01b14806103e857506301ffc9a760e01b6001600160e01b03198316145b92915050565b600082815260208190526040902060010154610409816107de565b61041383836107eb565b50505050565b6001600160a01b03811633146104425760405163334bd91960e11b815260040160405180910390fd5b61044c828261087d565b505050565b7f7d867aa9d791a9a4be418f90a2f248aa2c5f1348317792a6f6412f94df9819f761047b816107de565b600082116104cb5760405162461bcd60e51b815260206004820152601f60248201527f5072696365206d7573742062652067726561746572207468616e207a65726f006044820152606401610331565b60408051606081018252838152426020808301828152600184860181815260008a815282855287902095518655915190850155516002909301805460ff19169315159390931790925582518581529182015284917fbcd10d64fce9dcf9568572ed92e371df336d32649e8960a045c9548794a44b26910160405180910390a2505050565b6000918252602082815260408084206001600160a01b0393909316845291905290205460ff1690565b6000805160206109ef833981519152610590816107de565b60008281526001602052604090206002015460ff166105e95760405162461bcd60e51b815260206004820152601560248201527450726963652066656564206e6f742061637469766560581b6044820152606401610331565b506000908152600160205260409020600201805460ff19169055565b6000818152600160208181526040808420815160608101835281548152938101549284019290925260029091015460ff1615159082018190528291906106985760405162461bcd60e51b815260206004820152602260248201527f4e6f20616374697665207072696365206665656420666f72207468697320706160448201526134b960f11b6064820152608401610331565b60025460208201516106aa90426109cd565b11156106ed5760405162461bcd60e51b8152602060048201526012602482015271141c9a58d94819185d18481d1bdbc81bdb1960721b6044820152606401610331565b80516020909101519094909350915050565b60008281526020819052604090206001015461071a816107de565b610413838361087d565b6000805160206109ef83398151915261073c816107de565b600082116107985760405162461bcd60e51b815260206004820152602360248201527f486561727462656174206d7573742062652067726561746572207468616e207a60448201526265726f60e81b6064820152608401610331565b600280549083905560408051828152602081018590527fe452a27d3b098a57cdda646c96c15e5e8e1ba64ee911f09e4af4036611fe6792910160405180910390a1505050565b6107e881336108e8565b50565b60006107f7838361054f565b610875576000838152602081815260408083206001600160a01b03861684529091529020805460ff1916600117905561082d3390565b6001600160a01b0316826001600160a01b0316847f2f8788117e7eff1d82e926ec794901d17c78024a50270940304540a733656f0d60405160405180910390a45060016103e8565b5060006103e8565b6000610889838361054f565b15610875576000838152602081815260408083206001600160a01b0386168085529252808320805460ff1916905551339286917ff6391f5c32d9c69d2a47ea670b442974b53935d1edc7fd64eb21e047a839171b9190a45060016103e8565b6108f2828261054f565b6109215760405163e2517d3f60e01b81526001600160a01b038216600482015260248101839052604401610331565b5050565b60006020828403121561093757600080fd5b5035919050565b60006020828403121561095057600080fd5b81356001600160e01b03198116811461096857600080fd5b9392505050565b6000806040838503121561098257600080fd5b8235915060208301356001600160a01b03811681146109a057600080fd5b809150509250929050565b600080604083850312156109be57600080fd5b50508035926020909101359150565b818103818111156103e857634e487b7160e01b600052601160045260246000fdfec307c44629779eb8fc0b85f224c3d22f5876a6c84de0ee42d481eb7814f0d3a8a26469706673582212207d8b51cb17680f9cc6652b44a78d2a8b98ee97e7349d10bffa682ce78729b69a64736f6c63430008140033c307c44629779eb8fc0b85f224c3d22f5876a6c84de0ee42d481eb7814f0d3a87d867aa9d791a9a4be418f90a2f248aa2c5f1348317792a6f6412f94df9819f7",
  "linkReferences": {},
  "deployedLinkReferences": {}
}