{"contracts/SimpleReserve.sol":{"SimpleReserve":{"abi":[{"inputs":[{"internalType":"address","name":"_tshc","type":"address"},{"internalType":"address","name":"_admin","type":"address"}],"stateMutability":"nonpayable","type":"constructor"},{"inputs":[],"name":"AccessControlBadConfirmation","type":"error"},{"inputs":[{"internalType":"address","name":"account","type":"address"},{"internalType":"bytes32","name":"neededRole","type":"bytes32"}],"name":"AccessControlUnauthorizedAccount","type":"error"},{"inputs":[{"internalType":"address","name":"token","type":"address"}],"name":"SafeERC20FailedOperation","type":"error"},{"anonymous":false,"inputs":[{"indexed":true,"internalType":"address","name":"token","type":"address"},{"indexed":false,"internalType":"uint256","name":"collateralRatio","type":"uint256"}],"name":"CollateralAdded","type":"event"},{"anonymous":false,"inputs":[{"indexed":true,"internalType":"address","name":"user","type":"address"},{"indexed":true,"internalType":"address","name":"token","type":"address"},{"indexed":false,"internalType":"uint256","name":"amount","type":"uint256"},{"indexed":false,"internalType":"uint256","name":"tshcMinted","type":"uint256"}],"name":"CollateralDeposited","type":"event"},{"anonymous":false,"inputs":[{"indexed":true,"internalType":"address","name":"user","type":"address"},{"indexed":true,"internalType":"address","name":"token","type":"address"},{"indexed":false,"internalType":"uint256","name":"amount","type":"uint256"},{"indexed":false,"internalType":"uint256","name":"tshcBurned","type":"uint256"}],"name":"CollateralWithdrawn","type":"event"},{"anonymous":false,"inputs":[{"indexed":true,"internalType":"bytes32","name":"role","type":"bytes32"},{"indexed":true,"internalType":"bytes32","name":"previousAdminRole","type":"bytes32"},{"indexed":true,"internalType":"bytes32","name":"newAdminRole","type":"bytes32"}],"name":"RoleAdminChanged","type":"event"},{"anonymous":false,"inputs":[{"indexed":true,"internalType":"bytes32","name":"role","type":"bytes32"},{"indexed":true,"internalType":"address","name":"account","type":"address"},{"indexed":true,"internalType":"address","name":"sender","type":"address"}],"name":"RoleGranted","type":"event"},{"anonymous":false,"inputs":[{"indexed":true,"internalType":"bytes32","name":"role","type":"bytes32"},{"indexed":true,"internalType":"address","name":"account","type":"address"},{"indexed":true,"internalType":"address","name":"sender","type":"address"}],"name":"RoleRevoked","type":"event"},{"inputs":[],"name":"DEFAULT_ADMIN_ROLE","outputs":[{"internalType":"bytes32","name":"","type":"bytes32"}],"stateMutability":"view","type":"function"},{"inputs":[],"name":"OPERATOR_ROLE","outputs":[{"internalType":"bytes32","name":"","type":"bytes32"}],"stateMutability":"view","type":"function"},{"inputs":[],"name":"RESERVE_ADMIN_ROLE","outputs":[{"internalType":"bytes32","name":"","type":"bytes32"}],"stateMutability":"view","type":"function"},{"inputs":[{"internalType":"address","name":"_token","type":"address"},{"internalType":"uint256","name":"_collateralRatio","type":"uint256"}],"name":"addCollateralAsset","outputs":[],"stateMutability":"nonpayable","type":"function"},{"inputs":[{"internalType":"address","name":"_token","type":"address"},{"internalType":"uint256","name":"_tshcAmount","type":"uint256"}],"name":"burnTSHCAndWithdrawCollateral","outputs":[{"internalType":"uint256","name":"collateralAmount","type":"uint256"}],"stateMutability":"nonpayable","type":"function"},{"inputs":[{"internalType":"address","name":"","type":"address"}],"name":"collateralAssets","outputs":[{"internalType":"bool","name":"isSupported","type":"bool"},{"internalType":"uint256","name":"collateralRatio","type":"uint256"},{"internalType":"uint256","name":"totalDeposited","type":"uint256"}],"stateMutability":"view","type":"function"},{"inputs":[{"internalType":"address","name":"_token","type":"address"},{"internalType":"uint256","name":"_amount","type":"uint256"}],"name":"depositCollateralAndMintTSHC","outputs":[{"internalType":"uint256","name":"tshcAmount","type":"uint256"}],"stateMutability":"nonpayable","type":"function"},{"inputs":[{"internalType":"bytes32","name":"role","type":"bytes32"}],"name":"getRoleAdmin","outputs":[{"internalType":"bytes32","name":"","type":"bytes32"}],"stateMutability":"view","type":"function"},{"inputs":[{"internalType":"bytes32","name":"role","type":"bytes32"},{"internalType":"address","name":"account","type":"address"}],"name":"grantRole","outputs":[],"stateMutability":"nonpayable","type":"function"},{"inputs":[{"internalType":"bytes32","name":"role","type":"bytes32"},{"internalType":"address","name":"account","type":"address"}],"name":"hasRole","outputs":[{"internalType":"bool","name":"","type":"bool"}],"stateMutability":"view","type":"function"},{"inputs":[],"name":"minimumCollateralRatio","outputs":[{"internalType":"uint256","name":"","type":"uint256"}],"stateMutability":"view","type":"function"},{"inputs":[{"internalType":"bytes32","name":"role","type":"bytes32"},{"internalType":"address","name":"callerConfirmation","type":"address"}],"name":"renounceRole","outputs":[],"stateMutability":"nonpayable","type":"function"},{"inputs":[{"internalType":"bytes32","name":"role","type":"bytes32"},{"internalType":"address","name":"account","type":"address"}],"name":"revokeRole","outputs":[],"stateMutability":"nonpayable","type":"function"},{"inputs":[{"internalType":"uint256","name":"","type":"uint256"}],"name":"supportedCollaterals","outputs":[{"internalType":"address","name":"","type":"address"}],"stateMutability":"view","type":"function"},{"inputs":[{"internalType":"bytes4","name":"interfaceId","type":"bytes4"}],"name":"supportsInterface","outputs":[{"internalType":"bool","name":"","type":"bool"}],"stateMutability":"view","type":"function"},{"inputs":[],"name":"tshc","outputs":[{"internalType":"contract SimpleTSHC","name":"","type":"address"}],"stateMutability":"view","type":"function"}],"evm":{"bytecode":{"linkReferences":{},"object":"6080604052613a986004553480156200001757600080fd5b506040516200107d3803806200107d8339810160408190526200003a9162000245565b6001600160a01b038216620000965760405162461bcd60e51b815260206004820152601b60248201527f5453484320616464726573732063616e6e6f74206265207a65726f000000000060448201526064015b60405180910390fd5b6001600160a01b038116620000ee5760405162461bcd60e51b815260206004820152601c60248201527f41646d696e20616464726573732063616e6e6f74206265207a65726f0000000060448201526064016200008d565b600180546001600160a01b0319166001600160a01b0384161790556200011660008262000179565b50620001437fcb6c915afba301a06d8c17327f1f6eec8e262e5feb9a4db38c9ac4d14eb366a38262000179565b50620001707f97667070c54ef182b0f5858b034beac1b6f3089aa2d3188bb1e8929f4fa9b9298262000179565b5050506200027d565b6000828152602081815260408083206001600160a01b038516845290915281205460ff166200021e576000838152602081815260408083206001600160a01b03861684529091529020805460ff19166001179055620001d53390565b6001600160a01b0316826001600160a01b0316847f2f8788117e7eff1d82e926ec794901d17c78024a50270940304540a733656f0d60405160405180910390a450600162000222565b5060005b92915050565b80516001600160a01b03811681146200024057600080fd5b919050565b600080604083850312156200025957600080fd5b620002648362000228565b9150620002746020840162000228565b90509250929050565b610df0806200028d6000396000f3fe608060405234801561001057600080fd5b50600436106101005760003560e01c80636a27947611610097578063c119821711610066578063c119821714610273578063d547741f14610286578063f2154cea14610299578063f5b541a6146102ac57600080fd5b80636a2794761461023c57806391d148541461024f5780639f1837ce14610262578063a217fddf1461026b57600080fd5b806336568abe116100d357806336568abe1461019e57806338cb57e8146101b157806353909727146101d857806359fd56821461022957600080fd5b806301ffc9a71461010557806303e2bb2e1461012d578063248a9ca3146101585780632f2ff15d14610189575b600080fd5b610118610113366004610c6e565b6102d3565b60405190151581526020015b60405180910390f35b61014061013b366004610c9f565b61030a565b6040516001600160a01b039091168152602001610124565b61017b610166366004610c9f565b60009081526020819052604090206001015490565b604051908152602001610124565b61019c610197366004610cd4565b610334565b005b61019c6101ac366004610cd4565b61035f565b61017b7fcb6c915afba301a06d8c17327f1f6eec8e262e5feb9a4db38c9ac4d14eb366a381565b61020c6101e6366004610d00565b600260208190526000918252604090912080546001820154919092015460ff9092169183565b604080519315158452602084019290925290820152606001610124565b61017b610237366004610d1b565b610397565b61017b61024a366004610d1b565b610579565b61011861025d366004610cd4565b6107c6565b61017b60045481565b61017b600081565b600154610140906001600160a01b031681565b61019c610294366004610cd4565b6107ef565b61019c6102a7366004610d1b565b610814565b61017b7f97667070c54ef182b0f5858b034beac1b6f3089aa2d3188bb1e8929f4fa9b92981565b60006001600160e01b03198216637965db0b60e01b148061030457506301ffc9a760e01b6001600160e01b03198316145b92915050565b6003818154811061031a57600080fd5b6000918252602090912001546001600160a01b0316905081565b60008281526020819052604090206001015461034f81610a1e565b6103598383610a2b565b50505050565b6001600160a01b03811633146103885760405163334bd91960e11b815260040160405180910390fd5b6103928282610abd565b505050565b6001600160a01b03821660009081526002602052604081205460ff166103ff5760405162461bcd60e51b815260206004820152601860248201527710dbdb1b185d195c985b081b9bdd081cdd5c1c1bdc9d195960421b60448201526064015b60405180910390fd5b6000821161044f5760405162461bcd60e51b815260206004820181905260248201527f416d6f756e74206d7573742062652067726561746572207468616e207a65726f60448201526064016103f6565b6001600160a01b03831660009081526002602052604090206001015461047783612710610d5b565b6104819190610d72565b90506104986001600160a01b038416333085610b28565b6001600160a01b038316600090815260026020819052604082200180548492906104c3908490610d94565b90915550506001546040516340c10f1960e01b8152336004820152602481018390526001600160a01b03909116906340c10f1990604401600060405180830381600087803b15801561051457600080fd5b505af1158015610528573d6000803e3d6000fd5b505060408051858152602081018590526001600160a01b03871693503392507f95d16db8c4932fcf5d6de67364791e7178ec505c7d3829a8b34d18959c01552c91015b60405180910390a392915050565b6001600160a01b03821660009081526002602052604081205460ff166105dc5760405162461bcd60e51b815260206004820152601860248201527710dbdb1b185d195c985b081b9bdd081cdd5c1c1bdc9d195960421b60448201526064016103f6565b6000821161062c5760405162461bcd60e51b815260206004820181905260248201527f416d6f756e74206d7573742062652067726561746572207468616e207a65726f60448201526064016103f6565b6001600160a01b038316600090815260026020526040902060010154612710906106569084610d5b565b6106609190610d72565b6001600160a01b038416600090815260026020819052604090912001549091508111156106da5760405162461bcd60e51b815260206004820152602260248201527f496e73756666696369656e7420636f6c6c61746572616c20696e207265736572604482015261766560f01b60648201526084016103f6565b60015460405163079cc67960e41b8152336004820152602481018490526001600160a01b03909116906379cc679090604401600060405180830381600087803b15801561072657600080fd5b505af115801561073a573d6000803e3d6000fd5b505050506001600160a01b03831660009081526002602081905260408220018054839290610769908490610da7565b9091555061078390506001600160a01b0384163383610b8f565b60408051828152602081018490526001600160a01b0385169133917f4700a5c58c58ea6536703185e43dae38bfd4158ee5330c70988f02a65562a36e910161056b565b6000918252602082815260408084206001600160a01b0393909316845291905290205460ff1690565b60008281526020819052604090206001015461080a81610a1e565b6103598383610abd565b7fcb6c915afba301a06d8c17327f1f6eec8e262e5feb9a4db38c9ac4d14eb366a361083e81610a1e565b6001600160a01b0383166108945760405162461bcd60e51b815260206004820152601c60248201527f546f6b656e20616464726573732063616e6e6f74206265207a65726f0000000060448201526064016103f6565b6001600160a01b03831660009081526002602052604090205460ff16156108fd5760405162461bcd60e51b815260206004820152601c60248201527f436f6c6c61746572616c20616c726561647920737570706f727465640000000060448201526064016103f6565b60045482101561094f5760405162461bcd60e51b815260206004820152601860248201527f436f6c6c61746572616c20726174696f20746f6f206c6f77000000000000000060448201526064016103f6565b604080516060810182526001808252602080830186815260008486018181526001600160a01b038a168083526002948590528783209651875490151560ff1990911617875592518686015551949092019390935560038054928301815590527fc2575a0e9e593c00f959f8c92f12db2869c3395a3b0502d05e2516446f71f85b0180546001600160a01b0319168217905590517f7dba1be544024070cd5eebfa8bdd80a8b198cea8058c7d3cc1f8dd36e41ab2f790610a119085815260200190565b60405180910390a2505050565b610a288133610bc0565b50565b6000610a3783836107c6565b610ab5576000838152602081815260408083206001600160a01b03861684529091529020805460ff19166001179055610a6d3390565b6001600160a01b0316826001600160a01b0316847f2f8788117e7eff1d82e926ec794901d17c78024a50270940304540a733656f0d60405160405180910390a4506001610304565b506000610304565b6000610ac983836107c6565b15610ab5576000838152602081815260408083206001600160a01b0386168085529252808320805460ff1916905551339286917ff6391f5c32d9c69d2a47ea670b442974b53935d1edc7fd64eb21e047a839171b9190a4506001610304565b6040516001600160a01b0384811660248301528381166044830152606482018390526103599186918216906323b872dd906084015b604051602081830303815290604052915060e01b6020820180516001600160e01b038381831617835250505050610bfd565b6040516001600160a01b0383811660248301526044820183905261039291859182169063a9059cbb90606401610b5d565b610bca82826107c6565b610bf95760405163e2517d3f60e01b81526001600160a01b0382166004820152602481018390526044016103f6565b5050565b600080602060008451602086016000885af180610c20576040513d6000823e3d81fd5b50506000513d91508115610c38578060011415610c45565b6001600160a01b0384163b155b1561035957604051635274afe760e01b81526001600160a01b03851660048201526024016103f6565b600060208284031215610c8057600080fd5b81356001600160e01b031981168114610c9857600080fd5b9392505050565b600060208284031215610cb157600080fd5b5035919050565b80356001600160a01b0381168114610ccf57600080fd5b919050565b60008060408385031215610ce757600080fd5b82359150610cf760208401610cb8565b90509250929050565b600060208284031215610d1257600080fd5b610c9882610cb8565b60008060408385031215610d2e57600080fd5b610d3783610cb8565b946020939093013593505050565b634e487b7160e01b600052601160045260246000fd5b808202811582820484141761030457610304610d45565b600082610d8f57634e487b7160e01b600052601260045260246000fd5b500490565b8082018082111561030457610304610d45565b8181038181111561030457610304610d4556fea26469706673582212208026cae7b3630f57d784eeab66d43d0dea587d86fc0d1bbb3202ceac6d1830f364736f6c63430008140033","opcodes":"PUSH1 0x80 PUSH1 0x40 MSTORE PUSH2 0x3A98 PUSH1 0x4 SSTORE CALLVALUE DUP1 ISZERO PUSH3 0x17 JUMPI PUSH1 0x0 DUP1 REVERT JUMPDEST POP PUSH1 0x40 MLOAD PUSH3 0x107D CODESIZE SUB DUP1 PUSH3 0x107D DUP4 CODECOPY DUP2 ADD PUSH1 0x40 DUP2 SWAP1 MSTORE PUSH3 0x3A SWAP2 PUSH3 0x245 JUMP JUMPDEST PUSH1 0x1 PUSH1 0x1 PUSH1 0xA0 SHL SUB DUP3 AND PUSH3 0x96 JUMPI PUSH1 0x40 MLOAD PUSH3 0x461BCD PUSH1 0xE5 SHL DUP2 MSTORE PUSH1 0x20 PUSH1 0x4 DUP3 ADD MSTORE PUSH1 0x1B PUSH1 0x24 DUP3 ADD MSTORE PUSH32 0x5453484320616464726573732063616E6E6F74206265207A65726F0000000000 PUSH1 0x44 DUP3 ADD MSTORE PUSH1 0x64 ADD JUMPDEST PUSH1 0x40 MLOAD DUP1 SWAP2 SUB SWAP1 REVERT JUMPDEST PUSH1 0x1 PUSH1 0x1 PUSH1 0xA0 SHL SUB DUP2 AND PUSH3 0xEE JUMPI PUSH1 0x40 MLOAD PUSH3 0x461BCD PUSH1 0xE5 SHL DUP2 MSTORE PUSH1 0x20 PUSH1 0x4 DUP3 ADD MSTORE PUSH1 0x1C PUSH1 0x24 DUP3 ADD MSTORE PUSH32 0x41646D696E20616464726573732063616E6E6F74206265207A65726F00000000 PUSH1 0x44 DUP3 ADD MSTORE PUSH1 0x64 ADD PUSH3 0x8D JUMP JUMPDEST PUSH1 0x1 DUP1 SLOAD PUSH1 0x1 PUSH1 0x1 PUSH1 0xA0 SHL SUB NOT AND PUSH1 0x1 PUSH1 0x1 PUSH1 0xA0 SHL SUB DUP5 AND OR SWAP1 SSTORE PUSH3 0x116 PUSH1 0x0 DUP3 PUSH3 0x179 JUMP JUMPDEST POP PUSH3 0x143 PUSH32 0xCB6C915AFBA301A06D8C17327F1F6EEC8E262E5FEB9A4DB38C9AC4D14EB366A3 DUP3 PUSH3 0x179 JUMP JUMPDEST POP PUSH3 0x170 PUSH32 0x97667070C54EF182B0F5858B034BEAC1B6F3089AA2D3188BB1E8929F4FA9B929 DUP3 PUSH3 0x179 JUMP JUMPDEST POP POP POP PUSH3 0x27D JUMP JUMPDEST PUSH1 0x0 DUP3 DUP2 MSTORE PUSH1 0x20 DUP2 DUP2 MSTORE PUSH1 0x40 DUP1 DUP4 KECCAK256 PUSH1 0x1 PUSH1 0x1 PUSH1 0xA0 SHL SUB DUP6 AND DUP5 MSTORE SWAP1 SWAP2 MSTORE DUP2 KECCAK256 SLOAD PUSH1 0xFF AND PUSH3 0x21E JUMPI PUSH1 0x0 DUP4 DUP2 MSTORE PUSH1 0x20 DUP2 DUP2 MSTORE PUSH1 0x40 DUP1 DUP4 KECCAK256 PUSH1 0x1 PUSH1 0x1 PUSH1 0xA0 SHL SUB DUP7 AND DUP5 MSTORE SWAP1 SWAP2 MSTORE SWAP1 KECCAK256 DUP1 SLOAD PUSH1 0xFF NOT AND PUSH1 0x1 OR SWAP1 SSTORE PUSH3 0x1D5 CALLER SWAP1 JUMP JUMPDEST PUSH1 0x1 PUSH1 0x1 PUSH1 0xA0 SHL SUB AND DUP3 PUSH1 0x1 PUSH1 0x1 PUSH1 0xA0 SHL SUB AND DUP5 PUSH32 0x2F8788117E7EFF1D82E926EC794901D17C78024A50270940304540A733656F0D PUSH1 0x40 MLOAD PUSH1 0x40 MLOAD DUP1 SWAP2 SUB SWAP1 LOG4 POP PUSH1 0x1 PUSH3 0x222 JUMP JUMPDEST POP PUSH1 0x0 JUMPDEST SWAP3 SWAP2 POP POP JUMP JUMPDEST DUP1 MLOAD PUSH1 0x1 PUSH1 0x1 PUSH1 0xA0 SHL SUB DUP2 AND DUP2 EQ PUSH3 0x240 JUMPI PUSH1 0x0 DUP1 REVERT JUMPDEST SWAP2 SWAP1 POP JUMP JUMPDEST PUSH1 0x0 DUP1 PUSH1 0x40 DUP4 DUP6 SUB SLT ISZERO PUSH3 0x259 JUMPI PUSH1 0x0 DUP1 REVERT JUMPDEST PUSH3 0x264 DUP4 PUSH3 0x228 JUMP JUMPDEST SWAP2 POP PUSH3 0x274 PUSH1 0x20 DUP5 ADD PUSH3 0x228 JUMP JUMPDEST SWAP1 POP SWAP3 POP SWAP3 SWAP1 POP JUMP JUMPDEST PUSH2 0xDF0 DUP1 PUSH3 0x28D PUSH1 0x0 CODECOPY PUSH1 0x0 RETURN INVALID PUSH1 0x80 PUSH1 0x40 MSTORE CALLVALUE DUP1 ISZERO PUSH2 0x10 JUMPI PUSH1 0x0 DUP1 REVERT JUMPDEST POP PUSH1 0x4 CALLDATASIZE LT PUSH2 0x100 JUMPI PUSH1 0x0 CALLDATALOAD PUSH1 0xE0 SHR DUP1 PUSH4 0x6A279476 GT PUSH2 0x97 JUMPI DUP1 PUSH4 0xC1198217 GT PUSH2 0x66 JUMPI DUP1 PUSH4 0xC1198217 EQ PUSH2 0x273 JUMPI DUP1 PUSH4 0xD547741F EQ PUSH2 0x286 JUMPI DUP1 PUSH4 0xF2154CEA EQ PUSH2 0x299 JUMPI DUP1 PUSH4 0xF5B541A6 EQ PUSH2 0x2AC JUMPI PUSH1 0x0 DUP1 REVERT JUMPDEST DUP1 PUSH4 0x6A279476 EQ PUSH2 0x23C JUMPI DUP1 PUSH4 0x91D14854 EQ PUSH2 0x24F JUMPI DUP1 PUSH4 0x9F1837CE EQ PUSH2 0x262 JUMPI DUP1 PUSH4 0xA217FDDF EQ PUSH2 0x26B JUMPI PUSH1 0x0 DUP1 REVERT JUMPDEST DUP1 PUSH4 0x36568ABE GT PUSH2 0xD3 JUMPI DUP1 PUSH4 0x36568ABE EQ PUSH2 0x19E JUMPI DUP1 PUSH4 0x38CB57E8 EQ PUSH2 0x1B1 JUMPI DUP1 PUSH4 0x53909727 EQ PUSH2 0x1D8 JUMPI DUP1 PUSH4 0x59FD5682 EQ PUSH2 0x229 JUMPI PUSH1 0x0 DUP1 REVERT JUMPDEST DUP1 PUSH4 0x1FFC9A7 EQ PUSH2 0x105 JUMPI DUP1 PUSH4 0x3E2BB2E EQ PUSH2 0x12D JUMPI DUP1 PUSH4 0x248A9CA3 EQ PUSH2 0x158 JUMPI DUP1 PUSH4 0x2F2FF15D EQ PUSH2 0x189 JUMPI JUMPDEST PUSH1 0x0 DUP1 REVERT JUMPDEST PUSH2 0x118 PUSH2 0x113 CALLDATASIZE PUSH1 0x4 PUSH2 0xC6E JUMP JUMPDEST PUSH2 0x2D3 JUMP JUMPDEST PUSH1 0x40 MLOAD SWAP1 ISZERO ISZERO DUP2 MSTORE PUSH1 0x20 ADD JUMPDEST PUSH1 0x40 MLOAD DUP1 SWAP2 SUB SWAP1 RETURN JUMPDEST PUSH2 0x140 PUSH2 0x13B CALLDATASIZE PUSH1 0x4 PUSH2 0xC9F JUMP JUMPDEST PUSH2 0x30A JUMP JUMPDEST PUSH1 0x40 MLOAD PUSH1 0x1 PUSH1 0x1 PUSH1 0xA0 SHL SUB SWAP1 SWAP2 AND DUP2 MSTORE PUSH1 0x20 ADD PUSH2 0x124 JUMP JUMPDEST PUSH2 0x17B PUSH2 0x166 CALLDATASIZE PUSH1 0x4 PUSH2 0xC9F JUMP JUMPDEST PUSH1 0x0 SWAP1 DUP2 MSTORE PUSH1 0x20 DUP2 SWAP1 MSTORE PUSH1 0x40 SWAP1 KECCAK256 PUSH1 0x1 ADD SLOAD SWAP1 JUMP JUMPDEST PUSH1 0x40 MLOAD SWAP1 DUP2 MSTORE PUSH1 0x20 ADD PUSH2 0x124 JUMP JUMPDEST PUSH2 0x19C PUSH2 0x197 CALLDATASIZE PUSH1 0x4 PUSH2 0xCD4 JUMP JUMPDEST PUSH2 0x334 JUMP JUMPDEST STOP JUMPDEST PUSH2 0x19C PUSH2 0x1AC CALLDATASIZE PUSH1 0x4 PUSH2 0xCD4 JUMP JUMPDEST PUSH2 0x35F JUMP JUMPDEST PUSH2 0x17B PUSH32 0xCB6C915AFBA301A06D8C17327F1F6EEC8E262E5FEB9A4DB38C9AC4D14EB366A3 DUP2 JUMP JUMPDEST PUSH2 0x20C PUSH2 0x1E6 CALLDATASIZE PUSH1 0x4 PUSH2 0xD00 JUMP JUMPDEST PUSH1 0x2 PUSH1 0x20 DUP2 SWAP1 MSTORE PUSH1 0x0 SWAP2 DUP3 MSTORE PUSH1 0x40 SWAP1 SWAP2 KECCAK256 DUP1 SLOAD PUSH1 0x1 DUP3 ADD SLOAD SWAP2 SWAP1 SWAP3 ADD SLOAD PUSH1 0xFF SWAP1 SWAP3 AND SWAP2 DUP4 JUMP JUMPDEST PUSH1 0x40 DUP1 MLOAD SWAP4 ISZERO ISZERO DUP5 MSTORE PUSH1 0x20 DUP5 ADD SWAP3 SWAP1 SWAP3 MSTORE SWAP1 DUP3 ADD MSTORE PUSH1 0x60 ADD PUSH2 0x124 JUMP JUMPDEST PUSH2 0x17B PUSH2 0x237 CALLDATASIZE PUSH1 0x4 PUSH2 0xD1B JUMP JUMPDEST PUSH2 0x397 JUMP JUMPDEST PUSH2 0x17B PUSH2 0x24A CALLDATASIZE PUSH1 0x4 PUSH2 0xD1B JUMP JUMPDEST PUSH2 0x579 JUMP JUMPDEST PUSH2 0x118 PUSH2 0x25D CALLDATASIZE PUSH1 0x4 PUSH2 0xCD4 JUMP JUMPDEST PUSH2 0x7C6 JUMP JUMPDEST PUSH2 0x17B PUSH1 0x4 SLOAD DUP2 JUMP JUMPDEST PUSH2 0x17B PUSH1 0x0 DUP2 JUMP JUMPDEST PUSH1 0x1 SLOAD PUSH2 0x140 SWAP1 PUSH1 0x1 PUSH1 0x1 PUSH1 0xA0 SHL SUB AND DUP2 JUMP JUMPDEST PUSH2 0x19C PUSH2 0x294 CALLDATASIZE PUSH1 0x4 PUSH2 0xCD4 JUMP JUMPDEST PUSH2 0x7EF JUMP JUMPDEST PUSH2 0x19C PUSH2 0x2A7 CALLDATASIZE PUSH1 0x4 PUSH2 0xD1B JUMP JUMPDEST PUSH2 0x814 JUMP JUMPDEST PUSH2 0x17B PUSH32 0x97667070C54EF182B0F5858B034BEAC1B6F3089AA2D3188BB1E8929F4FA9B929 DUP2 JUMP JUMPDEST PUSH1 0x0 PUSH1 0x1 PUSH1 0x1 PUSH1 0xE0 SHL SUB NOT DUP3 AND PUSH4 0x7965DB0B PUSH1 0xE0 SHL EQ DUP1 PUSH2 0x304 JUMPI POP PUSH4 0x1FFC9A7 PUSH1 0xE0 SHL PUSH1 0x1 PUSH1 0x1 PUSH1 0xE0 SHL SUB NOT DUP4 AND EQ JUMPDEST SWAP3 SWAP2 POP POP JUMP JUMPDEST PUSH1 0x3 DUP2 DUP2 SLOAD DUP2 LT PUSH2 0x31A JUMPI PUSH1 0x0 DUP1 REVERT JUMPDEST PUSH1 0x0 SWAP2 DUP3 MSTORE PUSH1 0x20 SWAP1 SWAP2 KECCAK256 ADD SLOAD PUSH1 0x1 PUSH1 0x1 PUSH1 0xA0 SHL SUB AND SWAP1 POP DUP2 JUMP JUMPDEST PUSH1 0x0 DUP3 DUP2 MSTORE PUSH1 0x20 DUP2 SWAP1 MSTORE PUSH1 0x40 SWAP1 KECCAK256 PUSH1 0x1 ADD SLOAD PUSH2 0x34F DUP2 PUSH2 0xA1E JUMP JUMPDEST PUSH2 0x359 DUP4 DUP4 PUSH2 0xA2B JUMP JUMPDEST POP POP POP POP JUMP JUMPDEST PUSH1 0x1 PUSH1 0x1 PUSH1 0xA0 SHL SUB DUP2 AND CALLER EQ PUSH2 0x388 JUMPI PUSH1 0x40 MLOAD PUSH4 0x334BD919 PUSH1 0xE1 SHL DUP2 MSTORE PUSH1 0x4 ADD PUSH1 0x40 MLOAD DUP1 SWAP2 SUB SWAP1 REVERT JUMPDEST PUSH2 0x392 DUP3 DUP3 PUSH2 0xABD JUMP JUMPDEST POP POP POP JUMP JUMPDEST PUSH1 0x1 PUSH1 0x1 PUSH1 0xA0 SHL SUB DUP3 AND PUSH1 0x0 SWAP1 DUP2 MSTORE PUSH1 0x2 PUSH1 0x20 MSTORE PUSH1 0x40 DUP2 KECCAK256 SLOAD PUSH1 0xFF AND PUSH2 0x3FF JUMPI PUSH1 0x40 MLOAD PUSH3 0x461BCD PUSH1 0xE5 SHL DUP2 MSTORE PUSH1 0x20 PUSH1 0x4 DUP3 ADD MSTORE PUSH1 0x18 PUSH1 0x24 DUP3 ADD MSTORE PUSH24 0x10DBDB1B185D195C985B081B9BDD081CDD5C1C1BDC9D1959 PUSH1 0x42 SHL PUSH1 0x44 DUP3 ADD MSTORE PUSH1 0x64 ADD JUMPDEST PUSH1 0x40 MLOAD DUP1 SWAP2 SUB SWAP1 REVERT JUMPDEST PUSH1 0x0 DUP3 GT PUSH2 0x44F JUMPI PUSH1 0x40 MLOAD PUSH3 0x461BCD PUSH1 0xE5 SHL DUP2 MSTORE PUSH1 0x20 PUSH1 0x4 DUP3 ADD DUP2 SWAP1 MSTORE PUSH1 0x24 DUP3 ADD MSTORE PUSH32 0x416D6F756E74206D7573742062652067726561746572207468616E207A65726F PUSH1 0x44 DUP3 ADD MSTORE PUSH1 0x64 ADD PUSH2 0x3F6 JUMP JUMPDEST PUSH1 0x1 PUSH1 0x1 PUSH1 0xA0 SHL SUB DUP4 AND PUSH1 0x0 SWAP1 DUP2 MSTORE PUSH1 0x2 PUSH1 0x20 MSTORE PUSH1 0x40 SWAP1 KECCAK256 PUSH1 0x1 ADD SLOAD PUSH2 0x477 DUP4 PUSH2 0x2710 PUSH2 0xD5B JUMP JUMPDEST PUSH2 0x481 SWAP2 SWAP1 PUSH2 0xD72 JUMP JUMPDEST SWAP1 POP PUSH2 0x498 PUSH1 0x1 PUSH1 0x1 PUSH1 0xA0 SHL SUB DUP5 AND CALLER ADDRESS DUP6 PUSH2 0xB28 JUMP JUMPDEST PUSH1 0x1 PUSH1 0x1 PUSH1 0xA0 SHL SUB DUP4 AND PUSH1 0x0 SWAP1 DUP2 MSTORE PUSH1 0x2 PUSH1 0x20 DUP2 SWAP1 MSTORE PUSH1 0x40 DUP3 KECCAK256 ADD DUP1 SLOAD DUP5 SWAP3 SWAP1 PUSH2 0x4C3 SWAP1 DUP5 SWAP1 PUSH2 0xD94 JUMP JUMPDEST SWAP1 SWAP2 SSTORE POP POP PUSH1 0x1 SLOAD PUSH1 0x40 MLOAD PUSH4 0x40C10F19 PUSH1 0xE0 SHL DUP2 MSTORE CALLER PUSH1 0x4 DUP3 ADD MSTORE PUSH1 0x24 DUP2 ADD DUP4 SWAP1 MSTORE PUSH1 0x1 PUSH1 0x1 PUSH1 0xA0 SHL SUB SWAP1 SWAP2 AND SWAP1 PUSH4 0x40C10F19 SWAP1 PUSH1 0x44 ADD PUSH1 0x0 PUSH1 0x40 MLOAD DUP1 DUP4 SUB DUP2 PUSH1 0x0 DUP8 DUP1 EXTCODESIZE ISZERO DUP1 ISZERO PUSH2 0x514 JUMPI PUSH1 0x0 DUP1 REVERT JUMPDEST POP GAS CALL ISZERO DUP1 ISZERO PUSH2 0x528 JUMPI RETURNDATASIZE PUSH1 0x0 DUP1 RETURNDATACOPY RETURNDATASIZE PUSH1 0x0 REVERT JUMPDEST POP POP PUSH1 0x40 DUP1 MLOAD DUP6 DUP2 MSTORE PUSH1 0x20 DUP2 ADD DUP6 SWAP1 MSTORE PUSH1 0x1 PUSH1 0x1 PUSH1 0xA0 SHL SUB DUP8 AND SWAP4 POP CALLER SWAP3 POP PUSH32 0x95D16DB8C4932FCF5D6DE67364791E7178EC505C7D3829A8B34D18959C01552C SWAP2 ADD JUMPDEST PUSH1 0x40 MLOAD DUP1 SWAP2 SUB SWAP1 LOG3 SWAP3 SWAP2 POP POP JUMP JUMPDEST PUSH1 0x1 PUSH1 0x1 PUSH1 0xA0 SHL SUB DUP3 AND PUSH1 0x0 SWAP1 DUP2 MSTORE PUSH1 0x2 PUSH1 0x20 MSTORE PUSH1 0x40 DUP2 KECCAK256 SLOAD PUSH1 0xFF AND PUSH2 0x5DC JUMPI PUSH1 0x40 MLOAD PUSH3 0x461BCD PUSH1 0xE5 SHL DUP2 MSTORE PUSH1 0x20 PUSH1 0x4 DUP3 ADD MSTORE PUSH1 0x18 PUSH1 0x24 DUP3 ADD MSTORE PUSH24 0x10DBDB1B185D195C985B081B9BDD081CDD5C1C1BDC9D1959 PUSH1 0x42 SHL PUSH1 0x44 DUP3 ADD MSTORE PUSH1 0x64 ADD PUSH2 0x3F6 JUMP JUMPDEST PUSH1 0x0 DUP3 GT PUSH2 0x62C JUMPI PUSH1 0x40 MLOAD PUSH3 0x461BCD PUSH1 0xE5 SHL DUP2 MSTORE PUSH1 0x20 PUSH1 0x4 DUP3 ADD DUP2 SWAP1 MSTORE PUSH1 0x24 DUP3 ADD MSTORE PUSH32 0x416D6F756E74206D7573742062652067726561746572207468616E207A65726F PUSH1 0x44 DUP3 ADD MSTORE PUSH1 0x64 ADD PUSH2 0x3F6 JUMP JUMPDEST PUSH1 0x1 PUSH1 0x1 PUSH1 0xA0 SHL SUB DUP4 AND PUSH1 0x0 SWAP1 DUP2 MSTORE PUSH1 0x2 PUSH1 0x20 MSTORE PUSH1 0x40 SWAP1 KECCAK256 PUSH1 0x1 ADD SLOAD PUSH2 0x2710 SWAP1 PUSH2 0x656 SWAP1 DUP5 PUSH2 0xD5B JUMP JUMPDEST PUSH2 0x660 SWAP2 SWAP1 PUSH2 0xD72 JUMP JUMPDEST PUSH1 0x1 PUSH1 0x1 PUSH1 0xA0 SHL SUB DUP5 AND PUSH1 0x0 SWAP1 DUP2 MSTORE PUSH1 0x2 PUSH1 0x20 DUP2 SWAP1 MSTORE PUSH1 0x40 SWAP1 SWAP2 KECCAK256 ADD SLOAD SWAP1 SWAP2 POP DUP2 GT ISZERO PUSH2 0x6DA JUMPI PUSH1 0x40 MLOAD PUSH3 0x461BCD PUSH1 0xE5 SHL DUP2 MSTORE PUSH1 0x20 PUSH1 0x4 DUP3 ADD MSTORE PUSH1 0x22 PUSH1 0x24 DUP3 ADD MSTORE PUSH32 0x496E73756666696369656E7420636F6C6C61746572616C20696E207265736572 PUSH1 0x44 DUP3 ADD MSTORE PUSH2 0x7665 PUSH1 0xF0 SHL PUSH1 0x64 DUP3 ADD MSTORE PUSH1 0x84 ADD PUSH2 0x3F6 JUMP JUMPDEST PUSH1 0x1 SLOAD PUSH1 0x40 MLOAD PUSH4 0x79CC679 PUSH1 0xE4 SHL DUP2 MSTORE CALLER PUSH1 0x4 DUP3 ADD MSTORE PUSH1 0x24 DUP2 ADD DUP5 SWAP1 MSTORE PUSH1 0x1 PUSH1 0x1 PUSH1 0xA0 SHL SUB SWAP1 SWAP2 AND SWAP1 PUSH4 0x79CC6790 SWAP1 PUSH1 0x44 ADD PUSH1 0x0 PUSH1 0x40 MLOAD DUP1 DUP4 SUB DUP2 PUSH1 0x0 DUP8 DUP1 EXTCODESIZE ISZERO DUP1 ISZERO PUSH2 0x726 JUMPI PUSH1 0x0 DUP1 REVERT JUMPDEST POP GAS CALL ISZERO DUP1 ISZERO PUSH2 0x73A JUMPI RETURNDATASIZE PUSH1 0x0 DUP1 RETURNDATACOPY RETURNDATASIZE PUSH1 0x0 REVERT JUMPDEST POP POP POP POP PUSH1 0x1 PUSH1 0x1 PUSH1 0xA0 SHL SUB DUP4 AND PUSH1 0x0 SWAP1 DUP2 MSTORE PUSH1 0x2 PUSH1 0x20 DUP2 SWAP1 MSTORE PUSH1 0x40 DUP3 KECCAK256 ADD DUP1 SLOAD DUP4 SWAP3 SWAP1 PUSH2 0x769 SWAP1 DUP5 SWAP1 PUSH2 0xDA7 JUMP JUMPDEST SWAP1 SWAP2 SSTORE POP PUSH2 0x783 SWAP1 POP PUSH1 0x1 PUSH1 0x1 PUSH1 0xA0 SHL SUB DUP5 AND CALLER DUP4 PUSH2 0xB8F JUMP JUMPDEST PUSH1 0x40 DUP1 MLOAD DUP3 DUP2 MSTORE PUSH1 0x20 DUP2 ADD DUP5 SWAP1 MSTORE PUSH1 0x1 PUSH1 0x1 PUSH1 0xA0 SHL SUB DUP6 AND SWAP2 CALLER SWAP2 PUSH32 0x4700A5C58C58EA6536703185E43DAE38BFD4158EE5330C70988F02A65562A36E SWAP2 ADD PUSH2 0x56B JUMP JUMPDEST PUSH1 0x0 SWAP2 DUP3 MSTORE PUSH1 0x20 DUP3 DUP2 MSTORE PUSH1 0x40 DUP1 DUP5 KECCAK256 PUSH1 0x1 PUSH1 0x1 PUSH1 0xA0 SHL SUB SWAP4 SWAP1 SWAP4 AND DUP5 MSTORE SWAP2 SWAP1 MSTORE SWAP1 KECCAK256 SLOAD PUSH1 0xFF AND SWAP1 JUMP JUMPDEST PUSH1 0x0 DUP3 DUP2 MSTORE PUSH1 0x20 DUP2 SWAP1 MSTORE PUSH1 0x40 SWAP1 KECCAK256 PUSH1 0x1 ADD SLOAD PUSH2 0x80A DUP2 PUSH2 0xA1E JUMP JUMPDEST PUSH2 0x359 DUP4 DUP4 PUSH2 0xABD JUMP JUMPDEST PUSH32 0xCB6C915AFBA301A06D8C17327F1F6EEC8E262E5FEB9A4DB38C9AC4D14EB366A3 PUSH2 0x83E DUP2 PUSH2 0xA1E JUMP JUMPDEST PUSH1 0x1 PUSH1 0x1 PUSH1 0xA0 SHL SUB DUP4 AND PUSH2 0x894 JUMPI PUSH1 0x40 MLOAD PUSH3 0x461BCD PUSH1 0xE5 SHL DUP2 MSTORE PUSH1 0x20 PUSH1 0x4 DUP3 ADD MSTORE PUSH1 0x1C PUSH1 0x24 DUP3 ADD MSTORE PUSH32 0x546F6B656E20616464726573732063616E6E6F74206265207A65726F00000000 PUSH1 0x44 DUP3 ADD MSTORE PUSH1 0x64 ADD PUSH2 0x3F6 JUMP JUMPDEST PUSH1 0x1 PUSH1 0x1 PUSH1 0xA0 SHL SUB DUP4 AND PUSH1 0x0 SWAP1 DUP2 MSTORE PUSH1 0x2 PUSH1 0x20 MSTORE PUSH1 0x40 SWAP1 KECCAK256 SLOAD PUSH1 0xFF AND ISZERO PUSH2 0x8FD JUMPI PUSH1 0x40 MLOAD PUSH3 0x461BCD PUSH1 0xE5 SHL DUP2 MSTORE PUSH1 0x20 PUSH1 0x4 DUP3 ADD MSTORE PUSH1 0x1C PUSH1 0x24 DUP3 ADD MSTORE PUSH32 0x436F6C6C61746572616C20616C726561647920737570706F7274656400000000 PUSH1 0x44 DUP3 ADD MSTORE PUSH1 0x64 ADD PUSH2 0x3F6 JUMP JUMPDEST PUSH1 0x4 SLOAD DUP3 LT ISZERO PUSH2 0x94F JUMPI PUSH1 0x40 MLOAD PUSH3 0x461BCD PUSH1 0xE5 SHL DUP2 MSTORE PUSH1 0x20 PUSH1 0x4 DUP3 ADD MSTORE PUSH1 0x18 PUSH1 0x24 DUP3 ADD MSTORE PUSH32 0x436F6C6C61746572616C20726174696F20746F6F206C6F770000000000000000 PUSH1 0x44 DUP3 ADD MSTORE PUSH1 0x64 ADD PUSH2 0x3F6 JUMP JUMPDEST PUSH1 0x40 DUP1 MLOAD PUSH1 0x60 DUP2 ADD DUP3 MSTORE PUSH1 0x1 DUP1 DUP3 MSTORE PUSH1 0x20 DUP1 DUP4 ADD DUP7 DUP2 MSTORE PUSH1 0x0 DUP5 DUP7 ADD DUP2 DUP2 MSTORE PUSH1 0x1 PUSH1 0x1 PUSH1 0xA0 SHL SUB DUP11 AND DUP1 DUP4 MSTORE PUSH1 0x2 SWAP5 DUP6 SWAP1 MSTORE DUP8 DUP4 KECCAK256 SWAP7 MLOAD DUP8 SLOAD SWAP1 ISZERO ISZERO PUSH1 0xFF NOT SWAP1 SWAP2 AND OR DUP8 SSTORE SWAP3 MLOAD DUP7 DUP7 ADD SSTORE MLOAD SWAP5 SWAP1 SWAP3 ADD SWAP4 SWAP1 SWAP4 SSTORE PUSH1 0x3 DUP1 SLOAD SWAP3 DUP4 ADD DUP2 SSTORE SWAP1 MSTORE PUSH32 0xC2575A0E9E593C00F959F8C92F12DB2869C3395A3B0502D05E2516446F71F85B ADD DUP1 SLOAD PUSH1 0x1 PUSH1 0x1 PUSH1 0xA0 SHL SUB NOT AND DUP3 OR SWAP1 SSTORE SWAP1 MLOAD PUSH32 0x7DBA1BE544024070CD5EEBFA8BDD80A8B198CEA8058C7D3CC1F8DD36E41AB2F7 SWAP1 PUSH2 0xA11 SWAP1 DUP6 DUP2 MSTORE PUSH1 0x20 ADD SWAP1 JUMP JUMPDEST PUSH1 0x40 MLOAD DUP1 SWAP2 SUB SWAP1 LOG2 POP POP POP JUMP JUMPDEST PUSH2 0xA28 DUP2 CALLER PUSH2 0xBC0 JUMP JUMPDEST POP JUMP JUMPDEST PUSH1 0x0 PUSH2 0xA37 DUP4 DUP4 PUSH2 0x7C6 JUMP JUMPDEST PUSH2 0xAB5 JUMPI PUSH1 0x0 DUP4 DUP2 MSTORE PUSH1 0x20 DUP2 DUP2 MSTORE PUSH1 0x40 DUP1 DUP4 KECCAK256 PUSH1 0x1 PUSH1 0x1 PUSH1 0xA0 SHL SUB DUP7 AND DUP5 MSTORE SWAP1 SWAP2 MSTORE SWAP1 KECCAK256 DUP1 SLOAD PUSH1 0xFF NOT AND PUSH1 0x1 OR SWAP1 SSTORE PUSH2 0xA6D CALLER SWAP1 JUMP JUMPDEST PUSH1 0x1 PUSH1 0x1 PUSH1 0xA0 SHL SUB AND DUP3 PUSH1 0x1 PUSH1 0x1 PUSH1 0xA0 SHL SUB AND DUP5 PUSH32 0x2F8788117E7EFF1D82E926EC794901D17C78024A50270940304540A733656F0D PUSH1 0x40 MLOAD PUSH1 0x40 MLOAD DUP1 SWAP2 SUB SWAP1 LOG4 POP PUSH1 0x1 PUSH2 0x304 JUMP JUMPDEST POP PUSH1 0x0 PUSH2 0x304 JUMP JUMPDEST PUSH1 0x0 PUSH2 0xAC9 DUP4 DUP4 PUSH2 0x7C6 JUMP JUMPDEST ISZERO PUSH2 0xAB5 JUMPI PUSH1 0x0 DUP4 DUP2 MSTORE PUSH1 0x20 DUP2 DUP2 MSTORE PUSH1 0x40 DUP1 DUP4 KECCAK256 PUSH1 0x1 PUSH1 0x1 PUSH1 0xA0 SHL SUB DUP7 AND DUP1 DUP6 MSTORE SWAP3 MSTORE DUP1 DUP4 KECCAK256 DUP1 SLOAD PUSH1 0xFF NOT AND SWAP1 SSTORE MLOAD CALLER SWAP3 DUP7 SWAP2 PUSH32 0xF6391F5C32D9C69D2A47EA670B442974B53935D1EDC7FD64EB21E047A839171B SWAP2 SWAP1 LOG4 POP PUSH1 0x1 PUSH2 0x304 JUMP JUMPDEST PUSH1 0x40 MLOAD PUSH1 0x1 PUSH1 0x1 PUSH1 0xA0 SHL SUB DUP5 DUP2 AND PUSH1 0x24 DUP4 ADD MSTORE DUP4 DUP2 AND PUSH1 0x44 DUP4 ADD MSTORE PUSH1 0x64 DUP3 ADD DUP4 SWAP1 MSTORE PUSH2 0x359 SWAP2 DUP7 SWAP2 DUP3 AND SWAP1 PUSH4 0x23B872DD SWAP1 PUSH1 0x84 ADD JUMPDEST PUSH1 0x40 MLOAD PUSH1 0x20 DUP2 DUP4 SUB SUB DUP2 MSTORE SWAP1 PUSH1 0x40 MSTORE SWAP2 POP PUSH1 0xE0 SHL PUSH1 0x20 DUP3 ADD DUP1 MLOAD PUSH1 0x1 PUSH1 0x1 PUSH1 0xE0 SHL SUB DUP4 DUP2 DUP4 AND OR DUP4 MSTORE POP POP POP POP PUSH2 0xBFD JUMP JUMPDEST PUSH1 0x40 MLOAD PUSH1 0x1 PUSH1 0x1 PUSH1 0xA0 SHL SUB DUP4 DUP2 AND PUSH1 0x24 DUP4 ADD MSTORE PUSH1 0x44 DUP3 ADD DUP4 SWAP1 MSTORE PUSH2 0x392 SWAP2 DUP6 SWAP2 DUP3 AND SWAP1 PUSH4 0xA9059CBB SWAP1 PUSH1 0x64 ADD PUSH2 0xB5D JUMP JUMPDEST PUSH2 0xBCA DUP3 DUP3 PUSH2 0x7C6 JUMP JUMPDEST PUSH2 0xBF9 JUMPI PUSH1 0x40 MLOAD PUSH4 0xE2517D3F PUSH1 0xE0 SHL DUP2 MSTORE PUSH1 0x1 PUSH1 0x1 PUSH1 0xA0 SHL SUB DUP3 AND PUSH1 0x4 DUP3 ADD MSTORE PUSH1 0x24 DUP2 ADD DUP4 SWAP1 MSTORE PUSH1 0x44 ADD PUSH2 0x3F6 JUMP JUMPDEST POP POP JUMP JUMPDEST PUSH1 0x0 DUP1 PUSH1 0x20 PUSH1 0x0 DUP5 MLOAD PUSH1 0x20 DUP7 ADD PUSH1 0x0 DUP9 GAS CALL DUP1 PUSH2 0xC20 JUMPI PUSH1 0x40 MLOAD RETURNDATASIZE PUSH1 0x0 DUP3 RETURNDATACOPY RETURNDATASIZE DUP2 REVERT JUMPDEST POP POP PUSH1 0x0 MLOAD RETURNDATASIZE SWAP2 POP DUP2 ISZERO PUSH2 0xC38 JUMPI DUP1 PUSH1 0x1 EQ ISZERO PUSH2 0xC45 JUMP JUMPDEST PUSH1 0x1 PUSH1 0x1 PUSH1 0xA0 SHL SUB DUP5 AND EXTCODESIZE ISZERO JUMPDEST ISZERO PUSH2 0x359 JUMPI PUSH1 0x40 MLOAD PUSH4 0x5274AFE7 PUSH1 0xE0 SHL DUP2 MSTORE PUSH1 0x1 PUSH1 0x1 PUSH1 0xA0 SHL SUB DUP6 AND PUSH1 0x4 DUP3 ADD MSTORE PUSH1 0x24 ADD PUSH2 0x3F6 JUMP JUMPDEST PUSH1 0x0 PUSH1 0x20 DUP3 DUP5 SUB SLT ISZERO PUSH2 0xC80 JUMPI PUSH1 0x0 DUP1 REVERT JUMPDEST DUP2 CALLDATALOAD PUSH1 0x1 PUSH1 0x1 PUSH1 0xE0 SHL SUB NOT DUP2 AND DUP2 EQ PUSH2 0xC98 JUMPI PUSH1 0x0 DUP1 REVERT JUMPDEST SWAP4 SWAP3 POP POP POP JUMP JUMPDEST PUSH1 0x0 PUSH1 0x20 DUP3 DUP5 SUB SLT ISZERO PUSH2 0xCB1 JUMPI PUSH1 0x0 DUP1 REVERT JUMPDEST POP CALLDATALOAD SWAP2 SWAP1 POP JUMP JUMPDEST DUP1 CALLDATALOAD PUSH1 0x1 PUSH1 0x1 PUSH1 0xA0 SHL SUB DUP2 AND DUP2 EQ PUSH2 0xCCF JUMPI PUSH1 0x0 DUP1 REVERT JUMPDEST SWAP2 SWAP1 POP JUMP JUMPDEST PUSH1 0x0 DUP1 PUSH1 0x40 DUP4 DUP6 SUB SLT ISZERO PUSH2 0xCE7 JUMPI PUSH1 0x0 DUP1 REVERT JUMPDEST DUP3 CALLDATALOAD SWAP2 POP PUSH2 0xCF7 PUSH1 0x20 DUP5 ADD PUSH2 0xCB8 JUMP JUMPDEST SWAP1 POP SWAP3 POP SWAP3 SWAP1 POP JUMP JUMPDEST PUSH1 0x0 PUSH1 0x20 DUP3 DUP5 SUB SLT ISZERO PUSH2 0xD12 JUMPI PUSH1 0x0 DUP1 REVERT JUMPDEST PUSH2 0xC98 DUP3 PUSH2 0xCB8 JUMP JUMPDEST PUSH1 0x0 DUP1 PUSH1 0x40 DUP4 DUP6 SUB SLT ISZERO PUSH2 0xD2E JUMPI PUSH1 0x0 DUP1 REVERT JUMPDEST PUSH2 0xD37 DUP4 PUSH2 0xCB8 JUMP JUMPDEST SWAP5 PUSH1 0x20 SWAP4 SWAP1 SWAP4 ADD CALLDATALOAD SWAP4 POP POP POP JUMP JUMPDEST PUSH4 0x4E487B71 PUSH1 0xE0 SHL PUSH1 0x0 MSTORE PUSH1 0x11 PUSH1 0x4 MSTORE PUSH1 0x24 PUSH1 0x0 REVERT JUMPDEST DUP1 DUP3 MUL DUP2 ISZERO DUP3 DUP3 DIV DUP5 EQ OR PUSH2 0x304 JUMPI PUSH2 0x304 PUSH2 0xD45 JUMP JUMPDEST PUSH1 0x0 DUP3 PUSH2 0xD8F JUMPI PUSH4 0x4E487B71 PUSH1 0xE0 SHL PUSH1 0x0 MSTORE PUSH1 0x12 PUSH1 0x4 MSTORE PUSH1 0x24 PUSH1 0x0 REVERT JUMPDEST POP DIV SWAP1 JUMP JUMPDEST DUP1 DUP3 ADD DUP1 DUP3 GT ISZERO PUSH2 0x304 JUMPI PUSH2 0x304 PUSH2 0xD45 JUMP JUMPDEST DUP2 DUP2 SUB DUP2 DUP2 GT ISZERO PUSH2 0x304 JUMPI PUSH2 0x304 PUSH2 0xD45 JUMP INVALID LOG2 PUSH5 0x6970667358 0x22 SLT KECCAK256 DUP1 0x26 0xCA 0xE7 0xB3 PUSH4 0xF57D784 0xEE 0xAB PUSH7 0xD43D0DEA587D86 0xFC 0xD SHL 0xBB ORIGIN MUL 0xCE 0xAC PUSH14 0x1830F364736F6C63430008140033 "},"methodIdentifiers":{"DEFAULT_ADMIN_ROLE()":"a217fddf","OPERATOR_ROLE()":"f5b541a6","RESERVE_ADMIN_ROLE()":"38cb57e8","addCollateralAsset(address,uint256)":"f2154cea","burnTSHCAndWithdrawCollateral(address,uint256)":"6a279476","collateralAssets(address)":"53909727","depositCollateralAndMintTSHC(address,uint256)":"59fd5682","getRoleAdmin(bytes32)":"248a9ca3","grantRole(bytes32,address)":"2f2ff15d","hasRole(bytes32,address)":"91d14854","minimumCollateralRatio()":"9f1837ce","renounceRole(bytes32,address)":"36568abe","revokeRole(bytes32,address)":"d547741f","supportedCollaterals(uint256)":"03e2bb2e","supportsInterface(bytes4)":"01ffc9a7","tshc()":"c1198217"}}}}}