{"contracts/SimplePriceOracle.sol":{"SimplePriceOracle":{"abi":[{"inputs":[{"internalType":"address","name":"_admin","type":"address"}],"stateMutability":"nonpayable","type":"constructor"},{"inputs":[],"name":"AccessControlBadConfirmation","type":"error"},{"inputs":[{"internalType":"address","name":"account","type":"address"},{"internalType":"bytes32","name":"neededRole","type":"bytes32"}],"name":"AccessControlUnauthorizedAccount","type":"error"},{"anonymous":false,"inputs":[{"indexed":false,"internalType":"uint256","name":"oldHeartbeat","type":"uint256"},{"indexed":false,"internalType":"uint256","name":"newHeartbeat","type":"uint256"}],"name":"HeartbeatUpdated","type":"event"},{"anonymous":false,"inputs":[{"indexed":true,"internalType":"bytes32","name":"pair","type":"bytes32"},{"indexed":false,"internalType":"uint256","name":"price","type":"uint256"},{"indexed":false,"internalType":"uint256","name":"timestamp","type":"uint256"}],"name":"PriceUpdated","type":"event"},{"anonymous":false,"inputs":[{"indexed":true,"internalType":"bytes32","name":"role","type":"bytes32"},{"indexed":true,"internalType":"bytes32","name":"previousAdminRole","type":"bytes32"},{"indexed":true,"internalType":"bytes32","name":"newAdminRole","type":"bytes32"}],"name":"RoleAdminChanged","type":"event"},{"anonymous":false,"inputs":[{"indexed":true,"internalType":"bytes32","name":"role","type":"bytes32"},{"indexed":true,"internalType":"address","name":"account","type":"address"},{"indexed":true,"internalType":"address","name":"sender","type":"address"}],"name":"RoleGranted","type":"event"},{"anonymous":false,"inputs":[{"indexed":true,"internalType":"bytes32","name":"role","type":"bytes32"},{"indexed":true,"internalType":"address","name":"account","type":"address"},{"indexed":true,"internalType":"address","name":"sender","type":"address"}],"name":"RoleRevoked","type":"event"},{"inputs":[],"name":"DEFAULT_ADMIN_ROLE","outputs":[{"internalType":"bytes32","name":"","type":"bytes32"}],"stateMutability":"view","type":"function"},{"inputs":[],"name":"ORACLE_ADMIN_ROLE","outputs":[{"internalType":"bytes32","name":"","type":"bytes32"}],"stateMutability":"view","type":"function"},{"inputs":[],"name":"PRICE_FEEDER_ROLE","outputs":[{"internalType":"bytes32","name":"","type":"bytes32"}],"stateMutability":"view","type":"function"},{"inputs":[{"internalType":"bytes32","name":"_pair","type":"bytes32"}],"name":"activatePriceFeed","outputs":[],"stateMutability":"nonpayable","type":"function"},{"inputs":[{"internalType":"bytes32","name":"_pair","type":"bytes32"}],"name":"deactivatePriceFeed","outputs":[],"stateMutability":"nonpayable","type":"function"},{"inputs":[{"internalType":"bytes32","name":"_pair","type":"bytes32"}],"name":"getLatestPrice","outputs":[{"internalType":"uint256","name":"price","type":"uint256"},{"internalType":"uint256","name":"timestamp","type":"uint256"}],"stateMutability":"view","type":"function"},{"inputs":[{"internalType":"bytes32","name":"role","type":"bytes32"}],"name":"getRoleAdmin","outputs":[{"internalType":"bytes32","name":"","type":"bytes32"}],"stateMutability":"view","type":"function"},{"inputs":[{"internalType":"bytes32","name":"role","type":"bytes32"},{"internalType":"address","name":"account","type":"address"}],"name":"grantRole","outputs":[],"stateMutability":"nonpayable","type":"function"},{"inputs":[{"internalType":"bytes32","name":"role","type":"bytes32"},{"internalType":"address","name":"account","type":"address"}],"name":"hasRole","outputs":[{"internalType":"bool","name":"","type":"bool"}],"stateMutability":"view","type":"function"},{"inputs":[],"name":"heartbeat","outputs":[{"internalType":"uint256","name":"","type":"uint256"}],"stateMutability":"view","type":"function"},{"inputs":[{"internalType":"bytes32","name":"","type":"bytes32"}],"name":"priceFeeds","outputs":[{"internalType":"uint256","name":"price","type":"uint256"},{"internalType":"uint256","name":"timestamp","type":"uint256"},{"internalType":"bool","name":"active","type":"bool"}],"stateMutability":"view","type":"function"},{"inputs":[{"internalType":"bytes32","name":"role","type":"bytes32"},{"internalType":"address","name":"callerConfirmation","type":"address"}],"name":"renounceRole","outputs":[],"stateMutability":"nonpayable","type":"function"},{"inputs":[{"internalType":"bytes32","name":"role","type":"bytes32"},{"internalType":"address","name":"account","type":"address"}],"name":"revokeRole","outputs":[],"stateMutability":"nonpayable","type":"function"},{"inputs":[{"internalType":"bytes4","name":"interfaceId","type":"bytes4"}],"name":"supportsInterface","outputs":[{"internalType":"bool","name":"","type":"bool"}],"stateMutability":"view","type":"function"},{"inputs":[{"internalType":"uint256","name":"_newHeartbeat","type":"uint256"}],"name":"updateHeartbeat","outputs":[],"stateMutability":"nonpayable","type":"function"},{"inputs":[{"internalType":"bytes32","name":"_pair","type":"bytes32"},{"internalType":"uint256","name":"_price","type":"uint256"}],"name":"updatePrice","outputs":[],"stateMutability":"nonpayable","type":"function"}],"evm":{"bytecode":{"linkReferences":{},"object":"6080604052610e106002553480156200001757600080fd5b5060405162000ce838038062000ce88339810160408190526200003a9162000222565b6001600160a01b038116620000955760405162461bcd60e51b815260206004820152601c60248201527f41646d696e20616464726573732063616e6e6f74206265207a65726f00000000604482015260640160405180910390fd5b620000a260008262000128565b50620000be60008051602062000ca88339815191528262000128565b50620000da60008051602062000cc88339815191528262000128565b50620000f760008051602062000ca88339815191526000620001d7565b6200012160008051602062000cc883398151915260008051602062000ca8833981519152620001d7565b5062000254565b6000828152602081815260408083206001600160a01b038516845290915281205460ff16620001cd576000838152602081815260408083206001600160a01b03861684529091529020805460ff19166001179055620001843390565b6001600160a01b0316826001600160a01b0316847f2f8788117e7eff1d82e926ec794901d17c78024a50270940304540a733656f0d60405160405180910390a4506001620001d1565b5060005b92915050565b600082815260208190526040808220600101805490849055905190918391839186917fbd79b86ffe0ab8e8776151514217cd7cacd52c909f66475c3af44e129f0b00ff9190a4505050565b6000602082840312156200023557600080fd5b81516001600160a01b03811681146200024d57600080fd5b9392505050565b610a4480620002646000396000f3fe608060405234801561001057600080fd5b50600436106101005760003560e01c806383ed806311610097578063b2ee2f0111610066578063b2ee2f011461021f578063c6c3f71e14610247578063d547741f14610295578063f3dc7d42146102a857600080fd5b806383ed8063146101ca57806391d14854146101f1578063a217fddf14610204578063a8957ed01461020c57600080fd5b806336568abe116100d357806336568abe146101865780633defb962146101995780635f704f3e146101a25780638003a94f146101b557600080fd5b806301e298021461010557806301ffc9a71461011a578063248a9ca3146101425780632f2ff15d14610173575b600080fd5b610118610113366004610925565b6102bb565b005b61012d61012836600461093e565b6103b7565b60405190151581526020015b60405180910390f35b610165610150366004610925565b60009081526020819052604090206001015490565b604051908152602001610139565b61011861018136600461096f565b6103ee565b61011861019436600461096f565b610419565b61016560025481565b6101186101b03660046109ab565b610451565b6101656000805160206109ef83398151915281565b6101657f7d867aa9d791a9a4be418f90a2f248aa2c5f1348317792a6f6412f94df9819f781565b61012d6101ff36600461096f565b61054f565b610165600081565b61011861021a366004610925565b610578565b61023261022d366004610925565b610605565b60408051928352602083019190915201610139565b610278610255366004610925565b600160208190526000918252604090912080549181015460029091015460ff1683565b604080519384526020840192909252151590820152606001610139565b6101186102a336600461096f565b6106ff565b6101186102b6366004610925565b610724565b6000805160206109ef8339815191526102d3816107de565b60008281526001602052604090206002015460ff161561033a5760405162461bcd60e51b815260206004820152601960248201527f5072696365206665656420616c7265616479206163746976650000000000000060448201526064015b60405180910390fd5b6000828152600160205260409020546103955760405162461bcd60e51b815260206004820152601a60248201527f50726963652066656564206e6f7420696e697469616c697a65640000000000006044820152606401610331565b506000908152600160208190526040909120600201805460ff19169091179055565b60006001600160e01b03198216637965db0b60e01b14806103e857506301ffc9a760e01b6001600160e01b03198316145b92915050565b600082815260208190526040902060010154610409816107de565b61041383836107eb565b50505050565b6001600160a01b03811633146104425760405163334bd91960e11b815260040160405180910390fd5b61044c828261087d565b505050565b7f7d867aa9d791a9a4be418f90a2f248aa2c5f1348317792a6f6412f94df9819f761047b816107de565b600082116104cb5760405162461bcd60e51b815260206004820152601f60248201527f5072696365206d7573742062652067726561746572207468616e207a65726f006044820152606401610331565b60408051606081018252838152426020808301828152600184860181815260008a815282855287902095518655915190850155516002909301805460ff19169315159390931790925582518581529182015284917fbcd10d64fce9dcf9568572ed92e371df336d32649e8960a045c9548794a44b26910160405180910390a2505050565b6000918252602082815260408084206001600160a01b0393909316845291905290205460ff1690565b6000805160206109ef833981519152610590816107de565b60008281526001602052604090206002015460ff166105e95760405162461bcd60e51b815260206004820152601560248201527450726963652066656564206e6f742061637469766560581b6044820152606401610331565b506000908152600160205260409020600201805460ff19169055565b6000818152600160208181526040808420815160608101835281548152938101549284019290925260029091015460ff1615159082018190528291906106985760405162461bcd60e51b815260206004820152602260248201527f4e6f20616374697665207072696365206665656420666f72207468697320706160448201526134b960f11b6064820152608401610331565b60025460208201516106aa90426109cd565b11156106ed5760405162461bcd60e51b8152602060048201526012602482015271141c9a58d94819185d18481d1bdbc81bdb1960721b6044820152606401610331565b80516020909101519094909350915050565b60008281526020819052604090206001015461071a816107de565b610413838361087d565b6000805160206109ef83398151915261073c816107de565b600082116107985760405162461bcd60e51b815260206004820152602360248201527f486561727462656174206d7573742062652067726561746572207468616e207a60448201526265726f60e81b6064820152608401610331565b600280549083905560408051828152602081018590527fe452a27d3b098a57cdda646c96c15e5e8e1ba64ee911f09e4af4036611fe6792910160405180910390a1505050565b6107e881336108e8565b50565b60006107f7838361054f565b610875576000838152602081815260408083206001600160a01b03861684529091529020805460ff1916600117905561082d3390565b6001600160a01b0316826001600160a01b0316847f2f8788117e7eff1d82e926ec794901d17c78024a50270940304540a733656f0d60405160405180910390a45060016103e8565b5060006103e8565b6000610889838361054f565b15610875576000838152602081815260408083206001600160a01b0386168085529252808320805460ff1916905551339286917ff6391f5c32d9c69d2a47ea670b442974b53935d1edc7fd64eb21e047a839171b9190a45060016103e8565b6108f2828261054f565b6109215760405163e2517d3f60e01b81526001600160a01b038216600482015260248101839052604401610331565b5050565b60006020828403121561093757600080fd5b5035919050565b60006020828403121561095057600080fd5b81356001600160e01b03198116811461096857600080fd5b9392505050565b6000806040838503121561098257600080fd5b8235915060208301356001600160a01b03811681146109a057600080fd5b809150509250929050565b600080604083850312156109be57600080fd5b50508035926020909101359150565b818103818111156103e857634e487b7160e01b600052601160045260246000fdfec307c44629779eb8fc0b85f224c3d22f5876a6c84de0ee42d481eb7814f0d3a8a26469706673582212207d8b51cb17680f9cc6652b44a78d2a8b98ee97e7349d10bffa682ce78729b69a64736f6c63430008140033c307c44629779eb8fc0b85f224c3d22f5876a6c84de0ee42d481eb7814f0d3a87d867aa9d791a9a4be418f90a2f248aa2c5f1348317792a6f6412f94df9819f7","opcodes":"PUSH1 0x80 PUSH1 0x40 MSTORE PUSH2 0xE10 PUSH1 0x2 SSTORE CALLVALUE DUP1 ISZERO PUSH3 0x17 JUMPI PUSH1 0x0 DUP1 REVERT JUMPDEST POP PUSH1 0x40 MLOAD PUSH3 0xCE8 CODESIZE SUB DUP1 PUSH3 0xCE8 DUP4 CODECOPY DUP2 ADD PUSH1 0x40 DUP2 SWAP1 MSTORE PUSH3 0x3A SWAP2 PUSH3 0x222 JUMP JUMPDEST PUSH1 0x1 PUSH1 0x1 PUSH1 0xA0 SHL SUB DUP2 AND PUSH3 0x95 JUMPI PUSH1 0x40 MLOAD PUSH3 0x461BCD PUSH1 0xE5 SHL DUP2 MSTORE PUSH1 0x20 PUSH1 0x4 DUP3 ADD MSTORE PUSH1 0x1C PUSH1 0x24 DUP3 ADD MSTORE PUSH32 0x41646D696E20616464726573732063616E6E6F74206265207A65726F00000000 PUSH1 0x44 DUP3 ADD MSTORE PUSH1 0x64 ADD PUSH1 0x40 MLOAD DUP1 SWAP2 SUB SWAP1 REVERT JUMPDEST PUSH3 0xA2 PUSH1 0x0 DUP3 PUSH3 0x128 JUMP JUMPDEST POP PUSH3 0xBE PUSH1 0x0 DUP1 MLOAD PUSH1 0x20 PUSH3 0xCA8 DUP4 CODECOPY DUP2 MLOAD SWAP2 MSTORE DUP3 PUSH3 0x128 JUMP JUMPDEST POP PUSH3 0xDA PUSH1 0x0 DUP1 MLOAD PUSH1 0x20 PUSH3 0xCC8 DUP4 CODECOPY DUP2 MLOAD SWAP2 MSTORE DUP3 PUSH3 0x128 JUMP JUMPDEST POP PUSH3 0xF7 PUSH1 0x0 DUP1 MLOAD PUSH1 0x20 PUSH3 0xCA8 DUP4 CODECOPY DUP2 MLOAD SWAP2 MSTORE PUSH1 0x0 PUSH3 0x1D7 JUMP JUMPDEST PUSH3 0x121 PUSH1 0x0 DUP1 MLOAD PUSH1 0x20 PUSH3 0xCC8 DUP4 CODECOPY DUP2 MLOAD SWAP2 MSTORE PUSH1 0x0 DUP1 MLOAD PUSH1 0x20 PUSH3 0xCA8 DUP4 CODECOPY DUP2 MLOAD SWAP2 MSTORE PUSH3 0x1D7 JUMP JUMPDEST POP PUSH3 0x254 JUMP JUMPDEST PUSH1 0x0 DUP3 DUP2 MSTORE PUSH1 0x20 DUP2 DUP2 MSTORE PUSH1 0x40 DUP1 DUP4 KECCAK256 PUSH1 0x1 PUSH1 0x1 PUSH1 0xA0 SHL SUB DUP6 AND DUP5 MSTORE SWAP1 SWAP2 MSTORE DUP2 KECCAK256 SLOAD PUSH1 0xFF AND PUSH3 0x1CD JUMPI PUSH1 0x0 DUP4 DUP2 MSTORE PUSH1 0x20 DUP2 DUP2 MSTORE PUSH1 0x40 DUP1 DUP4 KECCAK256 PUSH1 0x1 PUSH1 0x1 PUSH1 0xA0 SHL SUB DUP7 AND DUP5 MSTORE SWAP1 SWAP2 MSTORE SWAP1 KECCAK256 DUP1 SLOAD PUSH1 0xFF NOT AND PUSH1 0x1 OR SWAP1 SSTORE PUSH3 0x184 CALLER SWAP1 JUMP JUMPDEST PUSH1 0x1 PUSH1 0x1 PUSH1 0xA0 SHL SUB AND DUP3 PUSH1 0x1 PUSH1 0x1 PUSH1 0xA0 SHL SUB AND DUP5 PUSH32 0x2F8788117E7EFF1D82E926EC794901D17C78024A50270940304540A733656F0D PUSH1 0x40 MLOAD PUSH1 0x40 MLOAD DUP1 SWAP2 SUB SWAP1 LOG4 POP PUSH1 0x1 PUSH3 0x1D1 JUMP JUMPDEST POP PUSH1 0x0 JUMPDEST SWAP3 SWAP2 POP POP JUMP JUMPDEST PUSH1 0x0 DUP3 DUP2 MSTORE PUSH1 0x20 DUP2 SWAP1 MSTORE PUSH1 0x40 DUP1 DUP3 KECCAK256 PUSH1 0x1 ADD DUP1 SLOAD SWAP1 DUP5 SWAP1 SSTORE SWAP1 MLOAD SWAP1 SWAP2 DUP4 SWAP2 DUP4 SWAP2 DUP7 SWAP2 PUSH32 0xBD79B86FFE0AB8E8776151514217CD7CACD52C909F66475C3AF44E129F0B00FF SWAP2 SWAP1 LOG4 POP POP POP JUMP JUMPDEST PUSH1 0x0 PUSH1 0x20 DUP3 DUP5 SUB SLT ISZERO PUSH3 0x235 JUMPI PUSH1 0x0 DUP1 REVERT JUMPDEST DUP2 MLOAD PUSH1 0x1 PUSH1 0x1 PUSH1 0xA0 SHL SUB DUP2 AND DUP2 EQ PUSH3 0x24D JUMPI PUSH1 0x0 DUP1 REVERT JUMPDEST SWAP4 SWAP3 POP POP POP JUMP JUMPDEST PUSH2 0xA44 DUP1 PUSH3 0x264 PUSH1 0x0 CODECOPY PUSH1 0x0 RETURN INVALID PUSH1 0x80 PUSH1 0x40 MSTORE CALLVALUE DUP1 ISZERO PUSH2 0x10 JUMPI PUSH1 0x0 DUP1 REVERT JUMPDEST POP PUSH1 0x4 CALLDATASIZE LT PUSH2 0x100 JUMPI PUSH1 0x0 CALLDATALOAD PUSH1 0xE0 SHR DUP1 PUSH4 0x83ED8063 GT PUSH2 0x97 JUMPI DUP1 PUSH4 0xB2EE2F01 GT PUSH2 0x66 JUMPI DUP1 PUSH4 0xB2EE2F01 EQ PUSH2 0x21F JUMPI DUP1 PUSH4 0xC6C3F71E EQ PUSH2 0x247 JUMPI DUP1 PUSH4 0xD547741F EQ PUSH2 0x295 JUMPI DUP1 PUSH4 0xF3DC7D42 EQ PUSH2 0x2A8 JUMPI PUSH1 0x0 DUP1 REVERT JUMPDEST DUP1 PUSH4 0x83ED8063 EQ PUSH2 0x1CA JUMPI DUP1 PUSH4 0x91D14854 EQ PUSH2 0x1F1 JUMPI DUP1 PUSH4 0xA217FDDF EQ PUSH2 0x204 JUMPI DUP1 PUSH4 0xA8957ED0 EQ PUSH2 0x20C JUMPI PUSH1 0x0 DUP1 REVERT JUMPDEST DUP1 PUSH4 0x36568ABE GT PUSH2 0xD3 JUMPI DUP1 PUSH4 0x36568ABE EQ PUSH2 0x186 JUMPI DUP1 PUSH4 0x3DEFB962 EQ PUSH2 0x199 JUMPI DUP1 PUSH4 0x5F704F3E EQ PUSH2 0x1A2 JUMPI DUP1 PUSH4 0x8003A94F EQ PUSH2 0x1B5 JUMPI PUSH1 0x0 DUP1 REVERT JUMPDEST DUP1 PUSH4 0x1E29802 EQ PUSH2 0x105 JUMPI DUP1 PUSH4 0x1FFC9A7 EQ PUSH2 0x11A JUMPI DUP1 PUSH4 0x248A9CA3 EQ PUSH2 0x142 JUMPI DUP1 PUSH4 0x2F2FF15D EQ PUSH2 0x173 JUMPI JUMPDEST PUSH1 0x0 DUP1 REVERT JUMPDEST PUSH2 0x118 PUSH2 0x113 CALLDATASIZE PUSH1 0x4 PUSH2 0x925 JUMP JUMPDEST PUSH2 0x2BB JUMP JUMPDEST STOP JUMPDEST PUSH2 0x12D PUSH2 0x128 CALLDATASIZE PUSH1 0x4 PUSH2 0x93E JUMP JUMPDEST PUSH2 0x3B7 JUMP JUMPDEST PUSH1 0x40 MLOAD SWAP1 ISZERO ISZERO DUP2 MSTORE PUSH1 0x20 ADD JUMPDEST PUSH1 0x40 MLOAD DUP1 SWAP2 SUB SWAP1 RETURN JUMPDEST PUSH2 0x165 PUSH2 0x150 CALLDATASIZE PUSH1 0x4 PUSH2 0x925 JUMP JUMPDEST PUSH1 0x0 SWAP1 DUP2 MSTORE PUSH1 0x20 DUP2 SWAP1 MSTORE PUSH1 0x40 SWAP1 KECCAK256 PUSH1 0x1 ADD SLOAD SWAP1 JUMP JUMPDEST PUSH1 0x40 MLOAD SWAP1 DUP2 MSTORE PUSH1 0x20 ADD PUSH2 0x139 JUMP JUMPDEST PUSH2 0x118 PUSH2 0x181 CALLDATASIZE PUSH1 0x4 PUSH2 0x96F JUMP JUMPDEST PUSH2 0x3EE JUMP JUMPDEST PUSH2 0x118 PUSH2 0x194 CALLDATASIZE PUSH1 0x4 PUSH2 0x96F JUMP JUMPDEST PUSH2 0x419 JUMP JUMPDEST PUSH2 0x165 PUSH1 0x2 SLOAD DUP2 JUMP JUMPDEST PUSH2 0x118 PUSH2 0x1B0 CALLDATASIZE PUSH1 0x4 PUSH2 0x9AB JUMP JUMPDEST PUSH2 0x451 JUMP JUMPDEST PUSH2 0x165 PUSH1 0x0 DUP1 MLOAD PUSH1 0x20 PUSH2 0x9EF DUP4 CODECOPY DUP2 MLOAD SWAP2 MSTORE DUP2 JUMP JUMPDEST PUSH2 0x165 PUSH32 0x7D867AA9D791A9A4BE418F90A2F248AA2C5F1348317792A6F6412F94DF9819F7 DUP2 JUMP JUMPDEST PUSH2 0x12D PUSH2 0x1FF CALLDATASIZE PUSH1 0x4 PUSH2 0x96F JUMP JUMPDEST PUSH2 0x54F JUMP JUMPDEST PUSH2 0x165 PUSH1 0x0 DUP2 JUMP JUMPDEST PUSH2 0x118 PUSH2 0x21A CALLDATASIZE PUSH1 0x4 PUSH2 0x925 JUMP JUMPDEST PUSH2 0x578 JUMP JUMPDEST PUSH2 0x232 PUSH2 0x22D CALLDATASIZE PUSH1 0x4 PUSH2 0x925 JUMP JUMPDEST PUSH2 0x605 JUMP JUMPDEST PUSH1 0x40 DUP1 MLOAD SWAP3 DUP4 MSTORE PUSH1 0x20 DUP4 ADD SWAP2 SWAP1 SWAP2 MSTORE ADD PUSH2 0x139 JUMP JUMPDEST PUSH2 0x278 PUSH2 0x255 CALLDATASIZE PUSH1 0x4 PUSH2 0x925 JUMP JUMPDEST PUSH1 0x1 PUSH1 0x20 DUP2 SWAP1 MSTORE PUSH1 0x0 SWAP2 DUP3 MSTORE PUSH1 0x40 SWAP1 SWAP2 KECCAK256 DUP1 SLOAD SWAP2 DUP2 ADD SLOAD PUSH1 0x2 SWAP1 SWAP2 ADD SLOAD PUSH1 0xFF AND DUP4 JUMP JUMPDEST PUSH1 0x40 DUP1 MLOAD SWAP4 DUP5 MSTORE PUSH1 0x20 DUP5 ADD SWAP3 SWAP1 SWAP3 MSTORE ISZERO ISZERO SWAP1 DUP3 ADD MSTORE PUSH1 0x60 ADD PUSH2 0x139 JUMP JUMPDEST PUSH2 0x118 PUSH2 0x2A3 CALLDATASIZE PUSH1 0x4 PUSH2 0x96F JUMP JUMPDEST PUSH2 0x6FF JUMP JUMPDEST PUSH2 0x118 PUSH2 0x2B6 CALLDATASIZE PUSH1 0x4 PUSH2 0x925 JUMP JUMPDEST PUSH2 0x724 JUMP JUMPDEST PUSH1 0x0 DUP1 MLOAD PUSH1 0x20 PUSH2 0x9EF DUP4 CODECOPY DUP2 MLOAD SWAP2 MSTORE PUSH2 0x2D3 DUP2 PUSH2 0x7DE JUMP JUMPDEST PUSH1 0x0 DUP3 DUP2 MSTORE PUSH1 0x1 PUSH1 0x20 MSTORE PUSH1 0x40 SWAP1 KECCAK256 PUSH1 0x2 ADD SLOAD PUSH1 0xFF AND ISZERO PUSH2 0x33A JUMPI PUSH1 0x40 MLOAD PUSH3 0x461BCD PUSH1 0xE5 SHL DUP2 MSTORE PUSH1 0x20 PUSH1 0x4 DUP3 ADD MSTORE PUSH1 0x19 PUSH1 0x24 DUP3 ADD MSTORE PUSH32 0x5072696365206665656420616C72656164792061637469766500000000000000 PUSH1 0x44 DUP3 ADD MSTORE PUSH1 0x64 ADD JUMPDEST PUSH1 0x40 MLOAD DUP1 SWAP2 SUB SWAP1 REVERT JUMPDEST PUSH1 0x0 DUP3 DUP2 MSTORE PUSH1 0x1 PUSH1 0x20 MSTORE PUSH1 0x40 SWAP1 KECCAK256 SLOAD PUSH2 0x395 JUMPI PUSH1 0x40 MLOAD PUSH3 0x461BCD PUSH1 0xE5 SHL DUP2 MSTORE PUSH1 0x20 PUSH1 0x4 DUP3 ADD MSTORE PUSH1 0x1A PUSH1 0x24 DUP3 ADD MSTORE PUSH32 0x50726963652066656564206E6F7420696E697469616C697A6564000000000000 PUSH1 0x44 DUP3 ADD MSTORE PUSH1 0x64 ADD PUSH2 0x331 JUMP JUMPDEST POP PUSH1 0x0 SWAP1 DUP2 MSTORE PUSH1 0x1 PUSH1 0x20 DUP2 SWAP1 MSTORE PUSH1 0x40 SWAP1 SWAP2 KECCAK256 PUSH1 0x2 ADD DUP1 SLOAD PUSH1 0xFF NOT AND SWAP1 SWAP2 OR SWAP1 SSTORE JUMP JUMPDEST PUSH1 0x0 PUSH1 0x1 PUSH1 0x1 PUSH1 0xE0 SHL SUB NOT DUP3 AND PUSH4 0x7965DB0B PUSH1 0xE0 SHL EQ DUP1 PUSH2 0x3E8 JUMPI POP PUSH4 0x1FFC9A7 PUSH1 0xE0 SHL PUSH1 0x1 PUSH1 0x1 PUSH1 0xE0 SHL SUB NOT DUP4 AND EQ JUMPDEST SWAP3 SWAP2 POP POP JUMP JUMPDEST PUSH1 0x0 DUP3 DUP2 MSTORE PUSH1 0x20 DUP2 SWAP1 MSTORE PUSH1 0x40 SWAP1 KECCAK256 PUSH1 0x1 ADD SLOAD PUSH2 0x409 DUP2 PUSH2 0x7DE JUMP JUMPDEST PUSH2 0x413 DUP4 DUP4 PUSH2 0x7EB JUMP JUMPDEST POP POP POP POP JUMP JUMPDEST PUSH1 0x1 PUSH1 0x1 PUSH1 0xA0 SHL SUB DUP2 AND CALLER EQ PUSH2 0x442 JUMPI PUSH1 0x40 MLOAD PUSH4 0x334BD919 PUSH1 0xE1 SHL DUP2 MSTORE PUSH1 0x4 ADD PUSH1 0x40 MLOAD DUP1 SWAP2 SUB SWAP1 REVERT JUMPDEST PUSH2 0x44C DUP3 DUP3 PUSH2 0x87D JUMP JUMPDEST POP POP POP JUMP JUMPDEST PUSH32 0x7D867AA9D791A9A4BE418F90A2F248AA2C5F1348317792A6F6412F94DF9819F7 PUSH2 0x47B DUP2 PUSH2 0x7DE JUMP JUMPDEST PUSH1 0x0 DUP3 GT PUSH2 0x4CB JUMPI PUSH1 0x40 MLOAD PUSH3 0x461BCD PUSH1 0xE5 SHL DUP2 MSTORE PUSH1 0x20 PUSH1 0x4 DUP3 ADD MSTORE PUSH1 0x1F PUSH1 0x24 DUP3 ADD MSTORE PUSH32 0x5072696365206D7573742062652067726561746572207468616E207A65726F00 PUSH1 0x44 DUP3 ADD MSTORE PUSH1 0x64 ADD PUSH2 0x331 JUMP JUMPDEST PUSH1 0x40 DUP1 MLOAD PUSH1 0x60 DUP2 ADD DUP3 MSTORE DUP4 DUP2 MSTORE TIMESTAMP PUSH1 0x20 DUP1 DUP4 ADD DUP3 DUP2 MSTORE PUSH1 0x1 DUP5 DUP7 ADD DUP2 DUP2 MSTORE PUSH1 0x0 DUP11 DUP2 MSTORE DUP3 DUP6 MSTORE DUP8 SWAP1 KECCAK256 SWAP6 MLOAD DUP7 SSTORE SWAP2 MLOAD SWAP1 DUP6 ADD SSTORE MLOAD PUSH1 0x2 SWAP1 SWAP4 ADD DUP1 SLOAD PUSH1 0xFF NOT AND SWAP4 ISZERO ISZERO SWAP4 SWAP1 SWAP4 OR SWAP1 SWAP3 SSTORE DUP3 MLOAD DUP6 DUP2 MSTORE SWAP2 DUP3 ADD MSTORE DUP5 SWAP2 PUSH32 0xBCD10D64FCE9DCF9568572ED92E371DF336D32649E8960A045C9548794A44B26 SWAP2 ADD PUSH1 0x40 MLOAD DUP1 SWAP2 SUB SWAP1 LOG2 POP POP POP JUMP JUMPDEST PUSH1 0x0 SWAP2 DUP3 MSTORE PUSH1 0x20 DUP3 DUP2 MSTORE PUSH1 0x40 DUP1 DUP5 KECCAK256 PUSH1 0x1 PUSH1 0x1 PUSH1 0xA0 SHL SUB SWAP4 SWAP1 SWAP4 AND DUP5 MSTORE SWAP2 SWAP1 MSTORE SWAP1 KECCAK256 SLOAD PUSH1 0xFF AND SWAP1 JUMP JUMPDEST PUSH1 0x0 DUP1 MLOAD PUSH1 0x20 PUSH2 0x9EF DUP4 CODECOPY DUP2 MLOAD SWAP2 MSTORE PUSH2 0x590 DUP2 PUSH2 0x7DE JUMP JUMPDEST PUSH1 0x0 DUP3 DUP2 MSTORE PUSH1 0x1 PUSH1 0x20 MSTORE PUSH1 0x40 SWAP1 KECCAK256 PUSH1 0x2 ADD SLOAD PUSH1 0xFF AND PUSH2 0x5E9 JUMPI PUSH1 0x40 MLOAD PUSH3 0x461BCD PUSH1 0xE5 SHL DUP2 MSTORE PUSH1 0x20 PUSH1 0x4 DUP3 ADD MSTORE PUSH1 0x15 PUSH1 0x24 DUP3 ADD MSTORE PUSH21 0x50726963652066656564206E6F7420616374697665 PUSH1 0x58 SHL PUSH1 0x44 DUP3 ADD MSTORE PUSH1 0x64 ADD PUSH2 0x331 JUMP JUMPDEST POP PUSH1 0x0 SWAP1 DUP2 MSTORE PUSH1 0x1 PUSH1 0x20 MSTORE PUSH1 0x40 SWAP1 KECCAK256 PUSH1 0x2 ADD DUP1 SLOAD PUSH1 0xFF NOT AND SWAP1 SSTORE JUMP JUMPDEST PUSH1 0x0 DUP2 DUP2 MSTORE PUSH1 0x1 PUSH1 0x20 DUP2 DUP2 MSTORE PUSH1 0x40 DUP1 DUP5 KECCAK256 DUP2 MLOAD PUSH1 0x60 DUP2 ADD DUP4 MSTORE DUP2 SLOAD DUP2 MSTORE SWAP4 DUP2 ADD SLOAD SWAP3 DUP5 ADD SWAP3 SWAP1 SWAP3 MSTORE PUSH1 0x2 SWAP1 SWAP2 ADD SLOAD PUSH1 0xFF AND ISZERO ISZERO SWAP1 DUP3 ADD DUP2 SWAP1 MSTORE DUP3 SWAP2 SWAP1 PUSH2 0x698 JUMPI PUSH1 0x40 MLOAD PUSH3 0x461BCD PUSH1 0xE5 SHL DUP2 MSTORE PUSH1 0x20 PUSH1 0x4 DUP3 ADD MSTORE PUSH1 0x22 PUSH1 0x24 DUP3 ADD MSTORE PUSH32 0x4E6F20616374697665207072696365206665656420666F722074686973207061 PUSH1 0x44 DUP3 ADD MSTORE PUSH2 0x34B9 PUSH1 0xF1 SHL PUSH1 0x64 DUP3 ADD MSTORE PUSH1 0x84 ADD PUSH2 0x331 JUMP JUMPDEST PUSH1 0x2 SLOAD PUSH1 0x20 DUP3 ADD MLOAD PUSH2 0x6AA SWAP1 TIMESTAMP PUSH2 0x9CD JUMP JUMPDEST GT ISZERO PUSH2 0x6ED JUMPI PUSH1 0x40 MLOAD PUSH3 0x461BCD PUSH1 0xE5 SHL DUP2 MSTORE PUSH1 0x20 PUSH1 0x4 DUP3 ADD MSTORE PUSH1 0x12 PUSH1 0x24 DUP3 ADD MSTORE PUSH18 0x141C9A58D94819185D18481D1BDBC81BDB19 PUSH1 0x72 SHL PUSH1 0x44 DUP3 ADD MSTORE PUSH1 0x64 ADD PUSH2 0x331 JUMP JUMPDEST DUP1 MLOAD PUSH1 0x20 SWAP1 SWAP2 ADD MLOAD SWAP1 SWAP5 SWAP1 SWAP4 POP SWAP2 POP POP JUMP JUMPDEST PUSH1 0x0 DUP3 DUP2 MSTORE PUSH1 0x20 DUP2 SWAP1 MSTORE PUSH1 0x40 SWAP1 KECCAK256 PUSH1 0x1 ADD SLOAD PUSH2 0x71A DUP2 PUSH2 0x7DE JUMP JUMPDEST PUSH2 0x413 DUP4 DUP4 PUSH2 0x87D JUMP JUMPDEST PUSH1 0x0 DUP1 MLOAD PUSH1 0x20 PUSH2 0x9EF DUP4 CODECOPY DUP2 MLOAD SWAP2 MSTORE PUSH2 0x73C DUP2 PUSH2 0x7DE JUMP JUMPDEST PUSH1 0x0 DUP3 GT PUSH2 0x798 JUMPI PUSH1 0x40 MLOAD PUSH3 0x461BCD PUSH1 0xE5 SHL DUP2 MSTORE PUSH1 0x20 PUSH1 0x4 DUP3 ADD MSTORE PUSH1 0x23 PUSH1 0x24 DUP3 ADD MSTORE PUSH32 0x486561727462656174206D7573742062652067726561746572207468616E207A PUSH1 0x44 DUP3 ADD MSTORE PUSH3 0x65726F PUSH1 0xE8 SHL PUSH1 0x64 DUP3 ADD MSTORE PUSH1 0x84 ADD PUSH2 0x331 JUMP JUMPDEST PUSH1 0x2 DUP1 SLOAD SWAP1 DUP4 SWAP1 SSTORE PUSH1 0x40 DUP1 MLOAD DUP3 DUP2 MSTORE PUSH1 0x20 DUP2 ADD DUP6 SWAP1 MSTORE PUSH32 0xE452A27D3B098A57CDDA646C96C15E5E8E1BA64EE911F09E4AF4036611FE6792 SWAP2 ADD PUSH1 0x40 MLOAD DUP1 SWAP2 SUB SWAP1 LOG1 POP POP POP JUMP JUMPDEST PUSH2 0x7E8 DUP2 CALLER PUSH2 0x8E8 JUMP JUMPDEST POP JUMP JUMPDEST PUSH1 0x0 PUSH2 0x7F7 DUP4 DUP4 PUSH2 0x54F JUMP JUMPDEST PUSH2 0x875 JUMPI PUSH1 0x0 DUP4 DUP2 MSTORE PUSH1 0x20 DUP2 DUP2 MSTORE PUSH1 0x40 DUP1 DUP4 KECCAK256 PUSH1 0x1 PUSH1 0x1 PUSH1 0xA0 SHL SUB DUP7 AND DUP5 MSTORE SWAP1 SWAP2 MSTORE SWAP1 KECCAK256 DUP1 SLOAD PUSH1 0xFF NOT AND PUSH1 0x1 OR SWAP1 SSTORE PUSH2 0x82D CALLER SWAP1 JUMP JUMPDEST PUSH1 0x1 PUSH1 0x1 PUSH1 0xA0 SHL SUB AND DUP3 PUSH1 0x1 PUSH1 0x1 PUSH1 0xA0 SHL SUB AND DUP5 PUSH32 0x2F8788117E7EFF1D82E926EC794901D17C78024A50270940304540A733656F0D PUSH1 0x40 MLOAD PUSH1 0x40 MLOAD DUP1 SWAP2 SUB SWAP1 LOG4 POP PUSH1 0x1 PUSH2 0x3E8 JUMP JUMPDEST POP PUSH1 0x0 PUSH2 0x3E8 JUMP JUMPDEST PUSH1 0x0 PUSH2 0x889 DUP4 DUP4 PUSH2 0x54F JUMP JUMPDEST ISZERO PUSH2 0x875 JUMPI PUSH1 0x0 DUP4 DUP2 MSTORE PUSH1 0x20 DUP2 DUP2 MSTORE PUSH1 0x40 DUP1 DUP4 KECCAK256 PUSH1 0x1 PUSH1 0x1 PUSH1 0xA0 SHL SUB DUP7 AND DUP1 DUP6 MSTORE SWAP3 MSTORE DUP1 DUP4 KECCAK256 DUP1 SLOAD PUSH1 0xFF NOT AND SWAP1 SSTORE MLOAD CALLER SWAP3 DUP7 SWAP2 PUSH32 0xF6391F5C32D9C69D2A47EA670B442974B53935D1EDC7FD64EB21E047A839171B SWAP2 SWAP1 LOG4 POP PUSH1 0x1 PUSH2 0x3E8 JUMP JUMPDEST PUSH2 0x8F2 DUP3 DUP3 PUSH2 0x54F JUMP JUMPDEST PUSH2 0x921 JUMPI PUSH1 0x40 MLOAD PUSH4 0xE2517D3F PUSH1 0xE0 SHL DUP2 MSTORE PUSH1 0x1 PUSH1 0x1 PUSH1 0xA0 SHL SUB DUP3 AND PUSH1 0x4 DUP3 ADD MSTORE PUSH1 0x24 DUP2 ADD DUP4 SWAP1 MSTORE PUSH1 0x44 ADD PUSH2 0x331 JUMP JUMPDEST POP POP JUMP JUMPDEST PUSH1 0x0 PUSH1 0x20 DUP3 DUP5 SUB SLT ISZERO PUSH2 0x937 JUMPI PUSH1 0x0 DUP1 REVERT JUMPDEST POP CALLDATALOAD SWAP2 SWAP1 POP JUMP JUMPDEST PUSH1 0x0 PUSH1 0x20 DUP3 DUP5 SUB SLT ISZERO PUSH2 0x950 JUMPI PUSH1 0x0 DUP1 REVERT JUMPDEST DUP2 CALLDATALOAD PUSH1 0x1 PUSH1 0x1 PUSH1 0xE0 SHL SUB NOT DUP2 AND DUP2 EQ PUSH2 0x968 JUMPI PUSH1 0x0 DUP1 REVERT JUMPDEST SWAP4 SWAP3 POP POP POP JUMP JUMPDEST PUSH1 0x0 DUP1 PUSH1 0x40 DUP4 DUP6 SUB SLT ISZERO PUSH2 0x982 JUMPI PUSH1 0x0 DUP1 REVERT JUMPDEST DUP3 CALLDATALOAD SWAP2 POP PUSH1 0x20 DUP4 ADD CALLDATALOAD PUSH1 0x1 PUSH1 0x1 PUSH1 0xA0 SHL SUB DUP2 AND DUP2 EQ PUSH2 0x9A0 JUMPI PUSH1 0x0 DUP1 REVERT JUMPDEST DUP1 SWAP2 POP POP SWAP3 POP SWAP3 SWAP1 POP JUMP JUMPDEST PUSH1 0x0 DUP1 PUSH1 0x40 DUP4 DUP6 SUB SLT ISZERO PUSH2 0x9BE JUMPI PUSH1 0x0 DUP1 REVERT JUMPDEST POP POP DUP1 CALLDATALOAD SWAP3 PUSH1 0x20 SWAP1 SWAP2 ADD CALLDATALOAD SWAP2 POP JUMP JUMPDEST DUP2 DUP2 SUB DUP2 DUP2 GT ISZERO PUSH2 0x3E8 JUMPI PUSH4 0x4E487B71 PUSH1 0xE0 SHL PUSH1 0x0 MSTORE PUSH1 0x11 PUSH1 0x4 MSTORE PUSH1 0x24 PUSH1 0x0 REVERT INVALID 0xC3 SMOD 0xC4 CHAINID 0x29 PUSH24 0x9EB8FC0B85F224C3D22F5876A6C84DE0EE42D481EB7814F0 0xD3 0xA8 LOG2 PUSH5 0x6970667358 0x22 SLT KECCAK256 PUSH30 0x8B51CB17680F9CC6652B44A78D2A8B98EE97E7349D10BFFA682CE78729B6 SWAP11 PUSH5 0x736F6C6343 STOP ADDMOD EQ STOP CALLER 0xC3 SMOD 0xC4 CHAINID 0x29 PUSH24 0x9EB8FC0B85F224C3D22F5876A6C84DE0EE42D481EB7814F0 0xD3 0xA8 PUSH30 0x867AA9D791A9A4BE418F90A2F248AA2C5F1348317792A6F6412F94DF9819 0xF7 "},"methodIdentifiers":{"DEFAULT_ADMIN_ROLE()":"a217fddf","ORACLE_ADMIN_ROLE()":"8003a94f","PRICE_FEEDER_ROLE()":"83ed8063","activatePriceFeed(bytes32)":"01e29802","deactivatePriceFeed(bytes32)":"a8957ed0","getLatestPrice(bytes32)":"b2ee2f01","getRoleAdmin(bytes32)":"248a9ca3","grantRole(bytes32,address)":"2f2ff15d","hasRole(bytes32,address)":"91d14854","heartbeat()":"3defb962","priceFeeds(bytes32)":"c6c3f71e","renounceRole(bytes32,address)":"36568abe","revokeRole(bytes32,address)":"d547741f","supportsInterface(bytes4)":"01ffc9a7","updateHeartbeat(uint256)":"f3dc7d42","updatePrice(bytes32,uint256)":"5f704f3e"}}}}}