{"contracts/SimpleFeeManager.sol":{"SimpleFeeManager":{"abi":[{"inputs":[{"internalType":"address","name":"_admin","type":"address"},{"internalType":"address","name":"_feeCollector","type":"address"}],"stateMutability":"nonpayable","type":"constructor"},{"inputs":[],"name":"AccessControlBadConfirmation","type":"error"},{"inputs":[{"internalType":"address","name":"account","type":"address"},{"internalType":"bytes32","name":"neededRole","type":"bytes32"}],"name":"AccessControlUnauthorizedAccount","type":"error"},{"anonymous":false,"inputs":[{"indexed":true,"internalType":"address","name":"from","type":"address"},{"indexed":false,"internalType":"uint256","name":"amount","type":"uint256"}],"name":"FeeCollected","type":"event"},{"anonymous":false,"inputs":[{"indexed":false,"internalType":"address","name":"oldCollector","type":"address"},{"indexed":false,"internalType":"address","name":"newCollector","type":"address"}],"name":"FeeCollectorUpdated","type":"event"},{"anonymous":false,"inputs":[{"indexed":true,"internalType":"address","name":"to","type":"address"},{"indexed":false,"internalType":"uint256","name":"amount","type":"uint256"}],"name":"FeeDistributed","type":"event"},{"anonymous":false,"inputs":[{"indexed":false,"internalType":"uint256","name":"oldRate","type":"uint256"},{"indexed":false,"internalType":"uint256","name":"newRate","type":"uint256"}],"name":"FeeRateUpdated","type":"event"},{"anonymous":false,"inputs":[{"indexed":false,"internalType":"uint256","name":"oldMax","type":"uint256"},{"indexed":false,"internalType":"uint256","name":"newMax","type":"uint256"}],"name":"MaxFeeUpdated","type":"event"},{"anonymous":false,"inputs":[{"indexed":false,"internalType":"uint256","name":"oldMin","type":"uint256"},{"indexed":false,"internalType":"uint256","name":"newMin","type":"uint256"}],"name":"MinFeeUpdated","type":"event"},{"anonymous":false,"inputs":[{"indexed":false,"internalType":"address","name":"account","type":"address"}],"name":"Paused","type":"event"},{"anonymous":false,"inputs":[{"indexed":true,"internalType":"bytes32","name":"role","type":"bytes32"},{"indexed":true,"internalType":"bytes32","name":"previousAdminRole","type":"bytes32"},{"indexed":true,"internalType":"bytes32","name":"newAdminRole","type":"bytes32"}],"name":"RoleAdminChanged","type":"event"},{"anonymous":false,"inputs":[{"indexed":true,"internalType":"bytes32","name":"role","type":"bytes32"},{"indexed":true,"internalType":"address","name":"account","type":"address"},{"indexed":true,"internalType":"address","name":"sender","type":"address"}],"name":"RoleGranted","type":"event"},{"anonymous":false,"inputs":[{"indexed":true,"internalType":"bytes32","name":"role","type":"bytes32"},{"indexed":true,"internalType":"address","name":"account","type":"address"},{"indexed":true,"internalType":"address","name":"sender","type":"address"}],"name":"RoleRevoked","type":"event"},{"anonymous":false,"inputs":[{"indexed":false,"internalType":"address","name":"account","type":"address"}],"name":"Unpaused","type":"event"},{"inputs":[],"name":"DEFAULT_ADMIN_ROLE","outputs":[{"internalType":"bytes32","name":"","type":"bytes32"}],"stateMutability":"view","type":"function"},{"inputs":[],"name":"FEE_ADMIN_ROLE","outputs":[{"internalType":"bytes32","name":"","type":"bytes32"}],"stateMutability":"view","type":"function"},{"inputs":[],"name":"FEE_DISTRIBUTOR_ROLE","outputs":[{"internalType":"bytes32","name":"","type":"bytes32"}],"stateMutability":"view","type":"function"},{"inputs":[{"internalType":"uint256","name":"_amount","type":"uint256"}],"name":"calculateFee","outputs":[{"internalType":"uint256","name":"fee","type":"uint256"}],"stateMutability":"view","type":"function"},{"inputs":[{"internalType":"address","name":"_from","type":"address"},{"internalType":"uint256","name":"_amount","type":"uint256"}],"name":"collectFee","outputs":[],"stateMutability":"nonpayable","type":"function"},{"inputs":[],"name":"collectedFees","outputs":[{"internalType":"uint256","name":"","type":"uint256"}],"stateMutability":"view","type":"function"},{"inputs":[{"internalType":"contract IERC20","name":"_token","type":"address"}],"name":"distributeFees","outputs":[],"stateMutability":"nonpayable","type":"function"},{"inputs":[],"name":"feeCollector","outputs":[{"internalType":"address","name":"","type":"address"}],"stateMutability":"view","type":"function"},{"inputs":[{"internalType":"bytes32","name":"role","type":"bytes32"}],"name":"getRoleAdmin","outputs":[{"internalType":"bytes32","name":"","type":"bytes32"}],"stateMutability":"view","type":"function"},{"inputs":[{"internalType":"bytes32","name":"role","type":"bytes32"},{"internalType":"address","name":"account","type":"address"}],"name":"grantRole","outputs":[],"stateMutability":"nonpayable","type":"function"},{"inputs":[{"internalType":"bytes32","name":"role","type":"bytes32"},{"internalType":"address","name":"account","type":"address"}],"name":"hasRole","outputs":[{"internalType":"bool","name":"","type":"bool"}],"stateMutability":"view","type":"function"},{"inputs":[],"name":"maxTransferFee","outputs":[{"internalType":"uint256","name":"","type":"uint256"}],"stateMutability":"view","type":"function"},{"inputs":[],"name":"minTransferFee","outputs":[{"internalType":"uint256","name":"","type":"uint256"}],"stateMutability":"view","type":"function"},{"inputs":[],"name":"pause","outputs":[],"stateMutability":"nonpayable","type":"function"},{"inputs":[],"name":"paused","outputs":[{"internalType":"bool","name":"","type":"bool"}],"stateMutability":"view","type":"function"},{"inputs":[{"internalType":"bytes32","name":"role","type":"bytes32"},{"internalType":"address","name":"callerConfirmation","type":"address"}],"name":"renounceRole","outputs":[],"stateMutability":"nonpayable","type":"function"},{"inputs":[{"internalType":"bytes32","name":"role","type":"bytes32"},{"internalType":"address","name":"account","type":"address"}],"name":"revokeRole","outputs":[],"stateMutability":"nonpayable","type":"function"},{"inputs":[{"internalType":"bytes4","name":"interfaceId","type":"bytes4"}],"name":"supportsInterface","outputs":[{"internalType":"bool","name":"","type":"bool"}],"stateMutability":"view","type":"function"},{"inputs":[],"name":"transferFeeRate","outputs":[{"internalType":"uint256","name":"","type":"uint256"}],"stateMutability":"view","type":"function"},{"inputs":[],"name":"unpause","outputs":[],"stateMutability":"nonpayable","type":"function"},{"inputs":[{"internalType":"address","name":"_newCollector","type":"address"}],"name":"updateFeeCollector","outputs":[],"stateMutability":"nonpayable","type":"function"},{"inputs":[{"internalType":"uint256","name":"_newMax","type":"uint256"}],"name":"updateMaxTransferFee","outputs":[],"stateMutability":"nonpayable","type":"function"},{"inputs":[{"internalType":"uint256","name":"_newMin","type":"uint256"}],"name":"updateMinTransferFee","outputs":[],"stateMutability":"nonpayable","type":"function"},{"inputs":[{"internalType":"uint256","name":"_newRate","type":"uint256"}],"name":"updateTransferFeeRate","outputs":[],"stateMutability":"nonpayable","type":"function"}],"evm":{"bytecode":{"linkReferences":{},"object":"60806040526019600155662386f26fc1000060025568056bc75e2d631000006003553480156200002e57600080fd5b506040516200119b3803806200119b8339810160408190526200005191620002db565b6001600160a01b038216620000ad5760405162461bcd60e51b815260206004820152601c60248201527f41646d696e20616464726573732063616e6e6f74206265207a65726f0000000060448201526064015b60405180910390fd5b6001600160a01b038116620001115760405162461bcd60e51b8152602060048201526024808201527f46656520636f6c6c6563746f7220616464726573732063616e6e6f74206265206044820152637a65726f60e01b6064820152608401620000a4565b6200011e600083620001c4565b506200013a6000805160206200117b83398151915283620001c4565b50620001566000805160206200115b83398151915283620001c4565b50620001736000805160206200117b833981519152600062000273565b6200019d6000805160206200115b8339815191526000805160206200117b83398151915262000273565b600580546001600160a01b0319166001600160a01b03929092169190911790555062000313565b6000828152602081815260408083206001600160a01b038516845290915281205460ff1662000269576000838152602081815260408083206001600160a01b03861684529091529020805460ff19166001179055620002203390565b6001600160a01b0316826001600160a01b0316847f2f8788117e7eff1d82e926ec794901d17c78024a50270940304540a733656f0d60405160405180910390a45060016200026d565b5060005b92915050565b600082815260208190526040808220600101805490849055905190918391839186917fbd79b86ffe0ab8e8776151514217cd7cacd52c909f66475c3af44e129f0b00ff9190a4505050565b80516001600160a01b0381168114620002d657600080fd5b919050565b60008060408385031215620002ef57600080fd5b620002fa83620002be565b91506200030a60208401620002be565b90509250929050565b610e3880620003236000396000f3fe608060405234801561001057600080fd5b50600436106101585760003560e01c8063548d4a54116100c357806399a5d7471161007c57806399a5d747146102cb578063a217fddf146102de578063ad7dd0e9146102e6578063c415b95c146102ef578063d2c35ce81461031a578063d547741f1461032d57600080fd5b8063548d4a541461026d5780635c975abb146102805780638456cb59146102945780639003adfe1461029c57806391d14854146102a55780639413f25c146102b857600080fd5b80632f2ff15d116101155780632f2ff15d1461020e578063351bf5181461022157806336568abe1461022a5780633b8848861461023d5780633f4ba83a146102505780634cba593a1461025857600080fd5b806301ffc9a71461015d578063064cbe6e146101855780630cdac9631461019a578063243cfc52146101cf578063248a9ca3146101d85780632ec0ff6c146101fb575b600080fd5b61017061016b366004610c86565b610340565b60405190151581526020015b60405180910390f35b610198610193366004610cb7565b610377565b005b6101c17f59c7a9ef9a56707d87d116a5d27496afee2604c70b902ac2c4dbdcb68f36f2ea81565b60405190815260200161017c565b6101c160035481565b6101c16101e6366004610cb7565b60009081526020819052604090206001015490565b610198610209366004610ce5565b610439565b61019861021c366004610d11565b61053d565b6101c160015481565b610198610238366004610d11565b610568565b61019861024b366004610cb7565b6105a0565b610198610648565b6101c1600080516020610de383398151915281565b61019861027b366004610cb7565b6106f6565b60055461017090600160a01b900460ff1681565b61019861079e565b6101c160045481565b6101706102b3366004610d11565b610848565b6101986102c6366004610d41565b610871565b6101c16102d9366004610cb7565b6109f5565b6101c1600081565b6101c160025481565b600554610302906001600160a01b031681565b6040516001600160a01b03909116815260200161017c565b610198610328366004610d41565b610a46565b61019861033b366004610d11565b610b1a565b60006001600160e01b03198216637965db0b60e01b148061037157506301ffc9a760e01b6001600160e01b03198316145b92915050565b600080516020610de383398151915261038f81610b3f565b6002548210156103f25760405162461bcd60e51b815260206004820152602360248201527f4d6178206665652063616e6e6f74206265206c657373207468616e206d696e2060448201526266656560e81b60648201526084015b60405180910390fd5b600380549083905560408051828152602081018590527f55da9d9f29042024b8aad914fbf7f6bccc42cf3222745e3cbcb20eee5858880c91015b60405180910390a1505050565b600554600160a01b900460ff16156104885760405162461bcd60e51b815260206004820152601260248201527110dbdb9d1c9858dd081a5cc81c185d5cd95960721b60448201526064016103e9565b600081116104e45760405162461bcd60e51b8152602060048201526024808201527f46656520616d6f756e74206d7573742062652067726561746572207468616e206044820152637a65726f60e01b60648201526084016103e9565b80600460008282546104f69190610d74565b90915550506040518181526001600160a01b038316907f06c5efeff5c320943d265dc4e5f1af95ad523555ce0c1957e367dda5514572df9060200160405180910390a25050565b60008281526020819052604090206001015461055881610b3f565b6105628383610b4c565b50505050565b6001600160a01b03811633146105915760405163334bd91960e11b815260040160405180910390fd5b61059b8282610bde565b505050565b600080516020610de38339815191526105b881610b3f565b60035482111561060a5760405162461bcd60e51b815260206004820152601d60248201527f4d696e206665652063616e6e6f7420657863656564206d61782066656500000060448201526064016103e9565b600280549083905560408051828152602081018590527f5018b39d505f13b5bddbbd98cba44cc46858c58b32c59c13b3a66848058e67e3910161042c565b600080516020610de383398151915261066081610b3f565b600554600160a01b900460ff166106b25760405162461bcd60e51b815260206004820152601660248201527510dbdb9d1c9858dd081a5cc81b9bdd081c185d5cd95960521b60448201526064016103e9565b6005805460ff60a01b191690556040513381527f5db9ee0a495bf2e6ff9c91a7834c1ba4fdd244a5e8aa4e537bd38aeae4b073aa906020015b60405180910390a150565b600080516020610de383398151915261070e81610b3f565b6103e88211156107605760405162461bcd60e51b815260206004820152601a60248201527f46656520726174652063616e6e6f74206578636565642031302500000000000060448201526064016103e9565b600180549083905560408051828152602081018590527f14914da2bf76024616fbe1859783fcd4dbddcb179b1f3a854949fbf920dcb957910161042c565b600080516020610de38339815191526107b681610b3f565b600554600160a01b900460ff16156108055760405162461bcd60e51b815260206004820152601260248201527110dbdb9d1c9858dd081a5cc81c185d5cd95960721b60448201526064016103e9565b6005805460ff60a01b1916600160a01b1790556040513381527f62e78cea01bee320cd4e420270b5ea74000d11b0c9f74754ebdbfc544b05a258906020016106eb565b6000918252602082815260408084206001600160a01b0393909316845291905290205460ff1690565b7f59c7a9ef9a56707d87d116a5d27496afee2604c70b902ac2c4dbdcb68f36f2ea61089b81610b3f565b600454806108e35760405162461bcd60e51b81526020600482015260156024820152744e6f206665657320746f206469737472696275746560581b60448201526064016103e9565b6000600490815560055460405163a9059cbb60e01b81526001600160a01b03918216928101929092526024820183905284169063a9059cbb906044016020604051808303816000875af115801561093e573d6000803e3d6000fd5b505050506040513d601f19601f820116820180604052508101906109629190610d87565b6109ae5760405162461bcd60e51b815260206004820152601760248201527f46656520646973747269627574696f6e206661696c656400000000000000000060448201526064016103e9565b6005546040518281526001600160a01b03909116907f6c461460f28af1386f23dc4c0c7f4e2e54f0db320a8edc08803e4b787f6db3259060200160405180910390a2505050565b600061271060015483610a089190610da9565b610a129190610dc0565b9050600254811015610a275750600254610a36565b600354811115610a3657506003545b81811115610a415750805b919050565b600080516020610de3833981519152610a5e81610b3f565b6001600160a01b038216610ac05760405162461bcd60e51b8152602060048201526024808201527f46656520636f6c6c6563746f722063616e6e6f74206265207a65726f206164646044820152637265737360e01b60648201526084016103e9565b600580546001600160a01b038481166001600160a01b031983168117909355604080519190921680825260208201939093527f5d16ad41baeb009cd23eb8f6c7cde5c2e0cd5acf4a33926ab488875c37c37f38910161042c565b600082815260208190526040902060010154610b3581610b3f565b6105628383610bde565b610b498133610c49565b50565b6000610b588383610848565b610bd6576000838152602081815260408083206001600160a01b03861684529091529020805460ff19166001179055610b8e3390565b6001600160a01b0316826001600160a01b0316847f2f8788117e7eff1d82e926ec794901d17c78024a50270940304540a733656f0d60405160405180910390a4506001610371565b506000610371565b6000610bea8383610848565b15610bd6576000838152602081815260408083206001600160a01b0386168085529252808320805460ff1916905551339286917ff6391f5c32d9c69d2a47ea670b442974b53935d1edc7fd64eb21e047a839171b9190a4506001610371565b610c538282610848565b610c825760405163e2517d3f60e01b81526001600160a01b0382166004820152602481018390526044016103e9565b5050565b600060208284031215610c9857600080fd5b81356001600160e01b031981168114610cb057600080fd5b9392505050565b600060208284031215610cc957600080fd5b5035919050565b6001600160a01b0381168114610b4957600080fd5b60008060408385031215610cf857600080fd5b8235610d0381610cd0565b946020939093013593505050565b60008060408385031215610d2457600080fd5b823591506020830135610d3681610cd0565b809150509250929050565b600060208284031215610d5357600080fd5b8135610cb081610cd0565b634e487b7160e01b600052601160045260246000fd5b8082018082111561037157610371610d5e565b600060208284031215610d9957600080fd5b81518015158114610cb057600080fd5b808202811582820484141761037157610371610d5e565b600082610ddd57634e487b7160e01b600052601260045260246000fd5b50049056fe349eec46d2c564a125684d1934a6120a70cc341d3a26d362e358a775e07dec17a2646970667358221220587b7d66aaed0fefc98039a83760e0160e15ed5559c882d486b47b85f976e6ec64736f6c6343000814003359c7a9ef9a56707d87d116a5d27496afee2604c70b902ac2c4dbdcb68f36f2ea349eec46d2c564a125684d1934a6120a70cc341d3a26d362e358a775e07dec17","opcodes":"PUSH1 0x80 PUSH1 0x40 MSTORE PUSH1 0x19 PUSH1 0x1 SSTORE PUSH7 0x2386F26FC10000 PUSH1 0x2 SSTORE PUSH9 0x56BC75E2D63100000 PUSH1 0x3 SSTORE CALLVALUE DUP1 ISZERO PUSH3 0x2E JUMPI PUSH1 0x0 DUP1 REVERT JUMPDEST POP PUSH1 0x40 MLOAD PUSH3 0x119B CODESIZE SUB DUP1 PUSH3 0x119B DUP4 CODECOPY DUP2 ADD PUSH1 0x40 DUP2 SWAP1 MSTORE PUSH3 0x51 SWAP2 PUSH3 0x2DB JUMP JUMPDEST PUSH1 0x1 PUSH1 0x1 PUSH1 0xA0 SHL SUB DUP3 AND PUSH3 0xAD JUMPI PUSH1 0x40 MLOAD PUSH3 0x461BCD PUSH1 0xE5 SHL DUP2 MSTORE PUSH1 0x20 PUSH1 0x4 DUP3 ADD MSTORE PUSH1 0x1C PUSH1 0x24 DUP3 ADD MSTORE PUSH32 0x41646D696E20616464726573732063616E6E6F74206265207A65726F00000000 PUSH1 0x44 DUP3 ADD MSTORE PUSH1 0x64 ADD JUMPDEST PUSH1 0x40 MLOAD DUP1 SWAP2 SUB SWAP1 REVERT JUMPDEST PUSH1 0x1 PUSH1 0x1 PUSH1 0xA0 SHL SUB DUP2 AND PUSH3 0x111 JUMPI PUSH1 0x40 MLOAD PUSH3 0x461BCD PUSH1 0xE5 SHL DUP2 MSTORE PUSH1 0x20 PUSH1 0x4 DUP3 ADD MSTORE PUSH1 0x24 DUP1 DUP3 ADD MSTORE PUSH32 0x46656520636F6C6C6563746F7220616464726573732063616E6E6F7420626520 PUSH1 0x44 DUP3 ADD MSTORE PUSH4 0x7A65726F PUSH1 0xE0 SHL PUSH1 0x64 DUP3 ADD MSTORE PUSH1 0x84 ADD PUSH3 0xA4 JUMP JUMPDEST PUSH3 0x11E PUSH1 0x0 DUP4 PUSH3 0x1C4 JUMP JUMPDEST POP PUSH3 0x13A PUSH1 0x0 DUP1 MLOAD PUSH1 0x20 PUSH3 0x117B DUP4 CODECOPY DUP2 MLOAD SWAP2 MSTORE DUP4 PUSH3 0x1C4 JUMP JUMPDEST POP PUSH3 0x156 PUSH1 0x0 DUP1 MLOAD PUSH1 0x20 PUSH3 0x115B DUP4 CODECOPY DUP2 MLOAD SWAP2 MSTORE DUP4 PUSH3 0x1C4 JUMP JUMPDEST POP PUSH3 0x173 PUSH1 0x0 DUP1 MLOAD PUSH1 0x20 PUSH3 0x117B DUP4 CODECOPY DUP2 MLOAD SWAP2 MSTORE PUSH1 0x0 PUSH3 0x273 JUMP JUMPDEST PUSH3 0x19D PUSH1 0x0 DUP1 MLOAD PUSH1 0x20 PUSH3 0x115B DUP4 CODECOPY DUP2 MLOAD SWAP2 MSTORE PUSH1 0x0 DUP1 MLOAD PUSH1 0x20 PUSH3 0x117B DUP4 CODECOPY DUP2 MLOAD SWAP2 MSTORE PUSH3 0x273 JUMP JUMPDEST PUSH1 0x5 DUP1 SLOAD PUSH1 0x1 PUSH1 0x1 PUSH1 0xA0 SHL SUB NOT AND PUSH1 0x1 PUSH1 0x1 PUSH1 0xA0 SHL SUB SWAP3 SWAP1 SWAP3 AND SWAP2 SWAP1 SWAP2 OR SWAP1 SSTORE POP PUSH3 0x313 JUMP JUMPDEST PUSH1 0x0 DUP3 DUP2 MSTORE PUSH1 0x20 DUP2 DUP2 MSTORE PUSH1 0x40 DUP1 DUP4 KECCAK256 PUSH1 0x1 PUSH1 0x1 PUSH1 0xA0 SHL SUB DUP6 AND DUP5 MSTORE SWAP1 SWAP2 MSTORE DUP2 KECCAK256 SLOAD PUSH1 0xFF AND PUSH3 0x269 JUMPI PUSH1 0x0 DUP4 DUP2 MSTORE PUSH1 0x20 DUP2 DUP2 MSTORE PUSH1 0x40 DUP1 DUP4 KECCAK256 PUSH1 0x1 PUSH1 0x1 PUSH1 0xA0 SHL SUB DUP7 AND DUP5 MSTORE SWAP1 SWAP2 MSTORE SWAP1 KECCAK256 DUP1 SLOAD PUSH1 0xFF NOT AND PUSH1 0x1 OR SWAP1 SSTORE PUSH3 0x220 CALLER SWAP1 JUMP JUMPDEST PUSH1 0x1 PUSH1 0x1 PUSH1 0xA0 SHL SUB AND DUP3 PUSH1 0x1 PUSH1 0x1 PUSH1 0xA0 SHL SUB AND DUP5 PUSH32 0x2F8788117E7EFF1D82E926EC794901D17C78024A50270940304540A733656F0D PUSH1 0x40 MLOAD PUSH1 0x40 MLOAD DUP1 SWAP2 SUB SWAP1 LOG4 POP PUSH1 0x1 PUSH3 0x26D JUMP JUMPDEST POP PUSH1 0x0 JUMPDEST SWAP3 SWAP2 POP POP JUMP JUMPDEST PUSH1 0x0 DUP3 DUP2 MSTORE PUSH1 0x20 DUP2 SWAP1 MSTORE PUSH1 0x40 DUP1 DUP3 KECCAK256 PUSH1 0x1 ADD DUP1 SLOAD SWAP1 DUP5 SWAP1 SSTORE SWAP1 MLOAD SWAP1 SWAP2 DUP4 SWAP2 DUP4 SWAP2 DUP7 SWAP2 PUSH32 0xBD79B86FFE0AB8E8776151514217CD7CACD52C909F66475C3AF44E129F0B00FF SWAP2 SWAP1 LOG4 POP POP POP JUMP JUMPDEST DUP1 MLOAD PUSH1 0x1 PUSH1 0x1 PUSH1 0xA0 SHL SUB DUP2 AND DUP2 EQ PUSH3 0x2D6 JUMPI PUSH1 0x0 DUP1 REVERT JUMPDEST SWAP2 SWAP1 POP JUMP JUMPDEST PUSH1 0x0 DUP1 PUSH1 0x40 DUP4 DUP6 SUB SLT ISZERO PUSH3 0x2EF JUMPI PUSH1 0x0 DUP1 REVERT JUMPDEST PUSH3 0x2FA DUP4 PUSH3 0x2BE JUMP JUMPDEST SWAP2 POP PUSH3 0x30A PUSH1 0x20 DUP5 ADD PUSH3 0x2BE JUMP JUMPDEST SWAP1 POP SWAP3 POP SWAP3 SWAP1 POP JUMP JUMPDEST PUSH2 0xE38 DUP1 PUSH3 0x323 PUSH1 0x0 CODECOPY PUSH1 0x0 RETURN INVALID PUSH1 0x80 PUSH1 0x40 MSTORE CALLVALUE DUP1 ISZERO PUSH2 0x10 JUMPI PUSH1 0x0 DUP1 REVERT JUMPDEST POP PUSH1 0x4 CALLDATASIZE LT PUSH2 0x158 JUMPI PUSH1 0x0 CALLDATALOAD PUSH1 0xE0 SHR DUP1 PUSH4 0x548D4A54 GT PUSH2 0xC3 JUMPI DUP1 PUSH4 0x99A5D747 GT PUSH2 0x7C JUMPI DUP1 PUSH4 0x99A5D747 EQ PUSH2 0x2CB JUMPI DUP1 PUSH4 0xA217FDDF EQ PUSH2 0x2DE JUMPI DUP1 PUSH4 0xAD7DD0E9 EQ PUSH2 0x2E6 JUMPI DUP1 PUSH4 0xC415B95C EQ PUSH2 0x2EF JUMPI DUP1 PUSH4 0xD2C35CE8 EQ PUSH2 0x31A JUMPI DUP1 PUSH4 0xD547741F EQ PUSH2 0x32D JUMPI PUSH1 0x0 DUP1 REVERT JUMPDEST DUP1 PUSH4 0x548D4A54 EQ PUSH2 0x26D JUMPI DUP1 PUSH4 0x5C975ABB EQ PUSH2 0x280 JUMPI DUP1 PUSH4 0x8456CB59 EQ PUSH2 0x294 JUMPI DUP1 PUSH4 0x9003ADFE EQ PUSH2 0x29C JUMPI DUP1 PUSH4 0x91D14854 EQ PUSH2 0x2A5 JUMPI DUP1 PUSH4 0x9413F25C EQ PUSH2 0x2B8 JUMPI PUSH1 0x0 DUP1 REVERT JUMPDEST DUP1 PUSH4 0x2F2FF15D GT PUSH2 0x115 JUMPI DUP1 PUSH4 0x2F2FF15D EQ PUSH2 0x20E JUMPI DUP1 PUSH4 0x351BF518 EQ PUSH2 0x221 JUMPI DUP1 PUSH4 0x36568ABE EQ PUSH2 0x22A JUMPI DUP1 PUSH4 0x3B884886 EQ PUSH2 0x23D JUMPI DUP1 PUSH4 0x3F4BA83A EQ PUSH2 0x250 JUMPI DUP1 PUSH4 0x4CBA593A EQ PUSH2 0x258 JUMPI PUSH1 0x0 DUP1 REVERT JUMPDEST DUP1 PUSH4 0x1FFC9A7 EQ PUSH2 0x15D JUMPI DUP1 PUSH4 0x64CBE6E EQ PUSH2 0x185 JUMPI DUP1 PUSH4 0xCDAC963 EQ PUSH2 0x19A JUMPI DUP1 PUSH4 0x243CFC52 EQ PUSH2 0x1CF JUMPI DUP1 PUSH4 0x248A9CA3 EQ PUSH2 0x1D8 JUMPI DUP1 PUSH4 0x2EC0FF6C EQ PUSH2 0x1FB JUMPI JUMPDEST PUSH1 0x0 DUP1 REVERT JUMPDEST PUSH2 0x170 PUSH2 0x16B CALLDATASIZE PUSH1 0x4 PUSH2 0xC86 JUMP JUMPDEST PUSH2 0x340 JUMP JUMPDEST PUSH1 0x40 MLOAD SWAP1 ISZERO ISZERO DUP2 MSTORE PUSH1 0x20 ADD JUMPDEST PUSH1 0x40 MLOAD DUP1 SWAP2 SUB SWAP1 RETURN JUMPDEST PUSH2 0x198 PUSH2 0x193 CALLDATASIZE PUSH1 0x4 PUSH2 0xCB7 JUMP JUMPDEST PUSH2 0x377 JUMP JUMPDEST STOP JUMPDEST PUSH2 0x1C1 PUSH32 0x59C7A9EF9A56707D87D116A5D27496AFEE2604C70B902AC2C4DBDCB68F36F2EA DUP2 JUMP JUMPDEST PUSH1 0x40 MLOAD SWAP1 DUP2 MSTORE PUSH1 0x20 ADD PUSH2 0x17C JUMP JUMPDEST PUSH2 0x1C1 PUSH1 0x3 SLOAD DUP2 JUMP JUMPDEST PUSH2 0x1C1 PUSH2 0x1E6 CALLDATASIZE PUSH1 0x4 PUSH2 0xCB7 JUMP JUMPDEST PUSH1 0x0 SWAP1 DUP2 MSTORE PUSH1 0x20 DUP2 SWAP1 MSTORE PUSH1 0x40 SWAP1 KECCAK256 PUSH1 0x1 ADD SLOAD SWAP1 JUMP JUMPDEST PUSH2 0x198 PUSH2 0x209 CALLDATASIZE PUSH1 0x4 PUSH2 0xCE5 JUMP JUMPDEST PUSH2 0x439 JUMP JUMPDEST PUSH2 0x198 PUSH2 0x21C CALLDATASIZE PUSH1 0x4 PUSH2 0xD11 JUMP JUMPDEST PUSH2 0x53D JUMP JUMPDEST PUSH2 0x1C1 PUSH1 0x1 SLOAD DUP2 JUMP JUMPDEST PUSH2 0x198 PUSH2 0x238 CALLDATASIZE PUSH1 0x4 PUSH2 0xD11 JUMP JUMPDEST PUSH2 0x568 JUMP JUMPDEST PUSH2 0x198 PUSH2 0x24B CALLDATASIZE PUSH1 0x4 PUSH2 0xCB7 JUMP JUMPDEST PUSH2 0x5A0 JUMP JUMPDEST PUSH2 0x198 PUSH2 0x648 JUMP JUMPDEST PUSH2 0x1C1 PUSH1 0x0 DUP1 MLOAD PUSH1 0x20 PUSH2 0xDE3 DUP4 CODECOPY DUP2 MLOAD SWAP2 MSTORE DUP2 JUMP JUMPDEST PUSH2 0x198 PUSH2 0x27B CALLDATASIZE PUSH1 0x4 PUSH2 0xCB7 JUMP JUMPDEST PUSH2 0x6F6 JUMP JUMPDEST PUSH1 0x5 SLOAD PUSH2 0x170 SWAP1 PUSH1 0x1 PUSH1 0xA0 SHL SWAP1 DIV PUSH1 0xFF AND DUP2 JUMP JUMPDEST PUSH2 0x198 PUSH2 0x79E JUMP JUMPDEST PUSH2 0x1C1 PUSH1 0x4 SLOAD DUP2 JUMP JUMPDEST PUSH2 0x170 PUSH2 0x2B3 CALLDATASIZE PUSH1 0x4 PUSH2 0xD11 JUMP JUMPDEST PUSH2 0x848 JUMP JUMPDEST PUSH2 0x198 PUSH2 0x2C6 CALLDATASIZE PUSH1 0x4 PUSH2 0xD41 JUMP JUMPDEST PUSH2 0x871 JUMP JUMPDEST PUSH2 0x1C1 PUSH2 0x2D9 CALLDATASIZE PUSH1 0x4 PUSH2 0xCB7 JUMP JUMPDEST PUSH2 0x9F5 JUMP JUMPDEST PUSH2 0x1C1 PUSH1 0x0 DUP2 JUMP JUMPDEST PUSH2 0x1C1 PUSH1 0x2 SLOAD DUP2 JUMP JUMPDEST PUSH1 0x5 SLOAD PUSH2 0x302 SWAP1 PUSH1 0x1 PUSH1 0x1 PUSH1 0xA0 SHL SUB AND DUP2 JUMP JUMPDEST PUSH1 0x40 MLOAD PUSH1 0x1 PUSH1 0x1 PUSH1 0xA0 SHL SUB SWAP1 SWAP2 AND DUP2 MSTORE PUSH1 0x20 ADD PUSH2 0x17C JUMP JUMPDEST PUSH2 0x198 PUSH2 0x328 CALLDATASIZE PUSH1 0x4 PUSH2 0xD41 JUMP JUMPDEST PUSH2 0xA46 JUMP JUMPDEST PUSH2 0x198 PUSH2 0x33B CALLDATASIZE PUSH1 0x4 PUSH2 0xD11 JUMP JUMPDEST PUSH2 0xB1A JUMP JUMPDEST PUSH1 0x0 PUSH1 0x1 PUSH1 0x1 PUSH1 0xE0 SHL SUB NOT DUP3 AND PUSH4 0x7965DB0B PUSH1 0xE0 SHL EQ DUP1 PUSH2 0x371 JUMPI POP PUSH4 0x1FFC9A7 PUSH1 0xE0 SHL PUSH1 0x1 PUSH1 0x1 PUSH1 0xE0 SHL SUB NOT DUP4 AND EQ JUMPDEST SWAP3 SWAP2 POP POP JUMP JUMPDEST PUSH1 0x0 DUP1 MLOAD PUSH1 0x20 PUSH2 0xDE3 DUP4 CODECOPY DUP2 MLOAD SWAP2 MSTORE PUSH2 0x38F DUP2 PUSH2 0xB3F JUMP JUMPDEST PUSH1 0x2 SLOAD DUP3 LT ISZERO PUSH2 0x3F2 JUMPI PUSH1 0x40 MLOAD PUSH3 0x461BCD PUSH1 0xE5 SHL DUP2 MSTORE PUSH1 0x20 PUSH1 0x4 DUP3 ADD MSTORE PUSH1 0x23 PUSH1 0x24 DUP3 ADD MSTORE PUSH32 0x4D6178206665652063616E6E6F74206265206C657373207468616E206D696E20 PUSH1 0x44 DUP3 ADD MSTORE PUSH3 0x666565 PUSH1 0xE8 SHL PUSH1 0x64 DUP3 ADD MSTORE PUSH1 0x84 ADD JUMPDEST PUSH1 0x40 MLOAD DUP1 SWAP2 SUB SWAP1 REVERT JUMPDEST PUSH1 0x3 DUP1 SLOAD SWAP1 DUP4 SWAP1 SSTORE PUSH1 0x40 DUP1 MLOAD DUP3 DUP2 MSTORE PUSH1 0x20 DUP2 ADD DUP6 SWAP1 MSTORE PUSH32 0x55DA9D9F29042024B8AAD914FBF7F6BCCC42CF3222745E3CBCB20EEE5858880C SWAP2 ADD JUMPDEST PUSH1 0x40 MLOAD DUP1 SWAP2 SUB SWAP1 LOG1 POP POP POP JUMP JUMPDEST PUSH1 0x5 SLOAD PUSH1 0x1 PUSH1 0xA0 SHL SWAP1 DIV PUSH1 0xFF AND ISZERO PUSH2 0x488 JUMPI PUSH1 0x40 MLOAD PUSH3 0x461BCD PUSH1 0xE5 SHL DUP2 MSTORE PUSH1 0x20 PUSH1 0x4 DUP3 ADD MSTORE PUSH1 0x12 PUSH1 0x24 DUP3 ADD MSTORE PUSH18 0x10DBDB9D1C9858DD081A5CC81C185D5CD959 PUSH1 0x72 SHL PUSH1 0x44 DUP3 ADD MSTORE PUSH1 0x64 ADD PUSH2 0x3E9 JUMP JUMPDEST PUSH1 0x0 DUP2 GT PUSH2 0x4E4 JUMPI PUSH1 0x40 MLOAD PUSH3 0x461BCD PUSH1 0xE5 SHL DUP2 MSTORE PUSH1 0x20 PUSH1 0x4 DUP3 ADD MSTORE PUSH1 0x24 DUP1 DUP3 ADD MSTORE PUSH32 0x46656520616D6F756E74206D7573742062652067726561746572207468616E20 PUSH1 0x44 DUP3 ADD MSTORE PUSH4 0x7A65726F PUSH1 0xE0 SHL PUSH1 0x64 DUP3 ADD MSTORE PUSH1 0x84 ADD PUSH2 0x3E9 JUMP JUMPDEST DUP1 PUSH1 0x4 PUSH1 0x0 DUP3 DUP3 SLOAD PUSH2 0x4F6 SWAP2 SWAP1 PUSH2 0xD74 JUMP JUMPDEST SWAP1 SWAP2 SSTORE POP POP PUSH1 0x40 MLOAD DUP2 DUP2 MSTORE PUSH1 0x1 PUSH1 0x1 PUSH1 0xA0 SHL SUB DUP4 AND SWAP1 PUSH32 0x6C5EFEFF5C320943D265DC4E5F1AF95AD523555CE0C1957E367DDA5514572DF SWAP1 PUSH1 0x20 ADD PUSH1 0x40 MLOAD DUP1 SWAP2 SUB SWAP1 LOG2 POP POP JUMP JUMPDEST PUSH1 0x0 DUP3 DUP2 MSTORE PUSH1 0x20 DUP2 SWAP1 MSTORE PUSH1 0x40 SWAP1 KECCAK256 PUSH1 0x1 ADD SLOAD PUSH2 0x558 DUP2 PUSH2 0xB3F JUMP JUMPDEST PUSH2 0x562 DUP4 DUP4 PUSH2 0xB4C JUMP JUMPDEST POP POP POP POP JUMP JUMPDEST PUSH1 0x1 PUSH1 0x1 PUSH1 0xA0 SHL SUB DUP2 AND CALLER EQ PUSH2 0x591 JUMPI PUSH1 0x40 MLOAD PUSH4 0x334BD919 PUSH1 0xE1 SHL DUP2 MSTORE PUSH1 0x4 ADD PUSH1 0x40 MLOAD DUP1 SWAP2 SUB SWAP1 REVERT JUMPDEST PUSH2 0x59B DUP3 DUP3 PUSH2 0xBDE JUMP JUMPDEST POP POP POP JUMP JUMPDEST PUSH1 0x0 DUP1 MLOAD PUSH1 0x20 PUSH2 0xDE3 DUP4 CODECOPY DUP2 MLOAD SWAP2 MSTORE PUSH2 0x5B8 DUP2 PUSH2 0xB3F JUMP JUMPDEST PUSH1 0x3 SLOAD DUP3 GT ISZERO PUSH2 0x60A JUMPI PUSH1 0x40 MLOAD PUSH3 0x461BCD PUSH1 0xE5 SHL DUP2 MSTORE PUSH1 0x20 PUSH1 0x4 DUP3 ADD MSTORE PUSH1 0x1D PUSH1 0x24 DUP3 ADD MSTORE PUSH32 0x4D696E206665652063616E6E6F7420657863656564206D617820666565000000 PUSH1 0x44 DUP3 ADD MSTORE PUSH1 0x64 ADD PUSH2 0x3E9 JUMP JUMPDEST PUSH1 0x2 DUP1 SLOAD SWAP1 DUP4 SWAP1 SSTORE PUSH1 0x40 DUP1 MLOAD DUP3 DUP2 MSTORE PUSH1 0x20 DUP2 ADD DUP6 SWAP1 MSTORE PUSH32 0x5018B39D505F13B5BDDBBD98CBA44CC46858C58B32C59C13B3A66848058E67E3 SWAP2 ADD PUSH2 0x42C JUMP JUMPDEST PUSH1 0x0 DUP1 MLOAD PUSH1 0x20 PUSH2 0xDE3 DUP4 CODECOPY DUP2 MLOAD SWAP2 MSTORE PUSH2 0x660 DUP2 PUSH2 0xB3F JUMP JUMPDEST PUSH1 0x5 SLOAD PUSH1 0x1 PUSH1 0xA0 SHL SWAP1 DIV PUSH1 0xFF AND PUSH2 0x6B2 JUMPI PUSH1 0x40 MLOAD PUSH3 0x461BCD PUSH1 0xE5 SHL DUP2 MSTORE PUSH1 0x20 PUSH1 0x4 DUP3 ADD MSTORE PUSH1 0x16 PUSH1 0x24 DUP3 ADD MSTORE PUSH22 0x10DBDB9D1C9858DD081A5CC81B9BDD081C185D5CD959 PUSH1 0x52 SHL PUSH1 0x44 DUP3 ADD MSTORE PUSH1 0x64 ADD PUSH2 0x3E9 JUMP JUMPDEST PUSH1 0x5 DUP1 SLOAD PUSH1 0xFF PUSH1 0xA0 SHL NOT AND SWAP1 SSTORE PUSH1 0x40 MLOAD CALLER DUP2 MSTORE PUSH32 0x5DB9EE0A495BF2E6FF9C91A7834C1BA4FDD244A5E8AA4E537BD38AEAE4B073AA SWAP1 PUSH1 0x20 ADD JUMPDEST PUSH1 0x40 MLOAD DUP1 SWAP2 SUB SWAP1 LOG1 POP JUMP JUMPDEST PUSH1 0x0 DUP1 MLOAD PUSH1 0x20 PUSH2 0xDE3 DUP4 CODECOPY DUP2 MLOAD SWAP2 MSTORE PUSH2 0x70E DUP2 PUSH2 0xB3F JUMP JUMPDEST PUSH2 0x3E8 DUP3 GT ISZERO PUSH2 0x760 JUMPI PUSH1 0x40 MLOAD PUSH3 0x461BCD PUSH1 0xE5 SHL DUP2 MSTORE PUSH1 0x20 PUSH1 0x4 DUP3 ADD MSTORE PUSH1 0x1A PUSH1 0x24 DUP3 ADD MSTORE PUSH32 0x46656520726174652063616E6E6F742065786365656420313025000000000000 PUSH1 0x44 DUP3 ADD MSTORE PUSH1 0x64 ADD PUSH2 0x3E9 JUMP JUMPDEST PUSH1 0x1 DUP1 SLOAD SWAP1 DUP4 SWAP1 SSTORE PUSH1 0x40 DUP1 MLOAD DUP3 DUP2 MSTORE PUSH1 0x20 DUP2 ADD DUP6 SWAP1 MSTORE PUSH32 0x14914DA2BF76024616FBE1859783FCD4DBDDCB179B1F3A854949FBF920DCB957 SWAP2 ADD PUSH2 0x42C JUMP JUMPDEST PUSH1 0x0 DUP1 MLOAD PUSH1 0x20 PUSH2 0xDE3 DUP4 CODECOPY DUP2 MLOAD SWAP2 MSTORE PUSH2 0x7B6 DUP2 PUSH2 0xB3F JUMP JUMPDEST PUSH1 0x5 SLOAD PUSH1 0x1 PUSH1 0xA0 SHL SWAP1 DIV PUSH1 0xFF AND ISZERO PUSH2 0x805 JUMPI PUSH1 0x40 MLOAD PUSH3 0x461BCD PUSH1 0xE5 SHL DUP2 MSTORE PUSH1 0x20 PUSH1 0x4 DUP3 ADD MSTORE PUSH1 0x12 PUSH1 0x24 DUP3 ADD MSTORE PUSH18 0x10DBDB9D1C9858DD081A5CC81C185D5CD959 PUSH1 0x72 SHL PUSH1 0x44 DUP3 ADD MSTORE PUSH1 0x64 ADD PUSH2 0x3E9 JUMP JUMPDEST PUSH1 0x5 DUP1 SLOAD PUSH1 0xFF PUSH1 0xA0 SHL NOT AND PUSH1 0x1 PUSH1 0xA0 SHL OR SWAP1 SSTORE PUSH1 0x40 MLOAD CALLER DUP2 MSTORE PUSH32 0x62E78CEA01BEE320CD4E420270B5EA74000D11B0C9F74754EBDBFC544B05A258 SWAP1 PUSH1 0x20 ADD PUSH2 0x6EB JUMP JUMPDEST PUSH1 0x0 SWAP2 DUP3 MSTORE PUSH1 0x20 DUP3 DUP2 MSTORE PUSH1 0x40 DUP1 DUP5 KECCAK256 PUSH1 0x1 PUSH1 0x1 PUSH1 0xA0 SHL SUB SWAP4 SWAP1 SWAP4 AND DUP5 MSTORE SWAP2 SWAP1 MSTORE SWAP1 KECCAK256 SLOAD PUSH1 0xFF AND SWAP1 JUMP JUMPDEST PUSH32 0x59C7A9EF9A56707D87D116A5D27496AFEE2604C70B902AC2C4DBDCB68F36F2EA PUSH2 0x89B DUP2 PUSH2 0xB3F JUMP JUMPDEST PUSH1 0x4 SLOAD DUP1 PUSH2 0x8E3 JUMPI PUSH1 0x40 MLOAD PUSH3 0x461BCD PUSH1 0xE5 SHL DUP2 MSTORE PUSH1 0x20 PUSH1 0x4 DUP3 ADD MSTORE PUSH1 0x15 PUSH1 0x24 DUP3 ADD MSTORE PUSH21 0x4E6F206665657320746F2064697374726962757465 PUSH1 0x58 SHL PUSH1 0x44 DUP3 ADD MSTORE PUSH1 0x64 ADD PUSH2 0x3E9 JUMP JUMPDEST PUSH1 0x0 PUSH1 0x4 SWAP1 DUP2 SSTORE PUSH1 0x5 SLOAD PUSH1 0x40 MLOAD PUSH4 0xA9059CBB PUSH1 0xE0 SHL DUP2 MSTORE PUSH1 0x1 PUSH1 0x1 PUSH1 0xA0 SHL SUB SWAP2 DUP3 AND SWAP3 DUP2 ADD SWAP3 SWAP1 SWAP3 MSTORE PUSH1 0x24 DUP3 ADD DUP4 SWAP1 MSTORE DUP5 AND SWAP1 PUSH4 0xA9059CBB SWAP1 PUSH1 0x44 ADD PUSH1 0x20 PUSH1 0x40 MLOAD DUP1 DUP4 SUB DUP2 PUSH1 0x0 DUP8 GAS CALL ISZERO DUP1 ISZERO PUSH2 0x93E JUMPI RETURNDATASIZE PUSH1 0x0 DUP1 RETURNDATACOPY RETURNDATASIZE PUSH1 0x0 REVERT JUMPDEST POP POP POP POP PUSH1 0x40 MLOAD RETURNDATASIZE PUSH1 0x1F NOT PUSH1 0x1F DUP3 ADD AND DUP3 ADD DUP1 PUSH1 0x40 MSTORE POP DUP2 ADD SWAP1 PUSH2 0x962 SWAP2 SWAP1 PUSH2 0xD87 JUMP JUMPDEST PUSH2 0x9AE JUMPI PUSH1 0x40 MLOAD PUSH3 0x461BCD PUSH1 0xE5 SHL DUP2 MSTORE PUSH1 0x20 PUSH1 0x4 DUP3 ADD MSTORE PUSH1 0x17 PUSH1 0x24 DUP3 ADD MSTORE PUSH32 0x46656520646973747269627574696F6E206661696C6564000000000000000000 PUSH1 0x44 DUP3 ADD MSTORE PUSH1 0x64 ADD PUSH2 0x3E9 JUMP JUMPDEST PUSH1 0x5 SLOAD PUSH1 0x40 MLOAD DUP3 DUP2 MSTORE PUSH1 0x1 PUSH1 0x1 PUSH1 0xA0 SHL SUB SWAP1 SWAP2 AND SWAP1 PUSH32 0x6C461460F28AF1386F23DC4C0C7F4E2E54F0DB320A8EDC08803E4B787F6DB325 SWAP1 PUSH1 0x20 ADD PUSH1 0x40 MLOAD DUP1 SWAP2 SUB SWAP1 LOG2 POP POP POP JUMP JUMPDEST PUSH1 0x0 PUSH2 0x2710 PUSH1 0x1 SLOAD DUP4 PUSH2 0xA08 SWAP2 SWAP1 PUSH2 0xDA9 JUMP JUMPDEST PUSH2 0xA12 SWAP2 SWAP1 PUSH2 0xDC0 JUMP JUMPDEST SWAP1 POP PUSH1 0x2 SLOAD DUP2 LT ISZERO PUSH2 0xA27 JUMPI POP PUSH1 0x2 SLOAD PUSH2 0xA36 JUMP JUMPDEST PUSH1 0x3 SLOAD DUP2 GT ISZERO PUSH2 0xA36 JUMPI POP PUSH1 0x3 SLOAD JUMPDEST DUP2 DUP2 GT ISZERO PUSH2 0xA41 JUMPI POP DUP1 JUMPDEST SWAP2 SWAP1 POP JUMP JUMPDEST PUSH1 0x0 DUP1 MLOAD PUSH1 0x20 PUSH2 0xDE3 DUP4 CODECOPY DUP2 MLOAD SWAP2 MSTORE PUSH2 0xA5E DUP2 PUSH2 0xB3F JUMP JUMPDEST PUSH1 0x1 PUSH1 0x1 PUSH1 0xA0 SHL SUB DUP3 AND PUSH2 0xAC0 JUMPI PUSH1 0x40 MLOAD PUSH3 0x461BCD PUSH1 0xE5 SHL DUP2 MSTORE PUSH1 0x20 PUSH1 0x4 DUP3 ADD MSTORE PUSH1 0x24 DUP1 DUP3 ADD MSTORE PUSH32 0x46656520636F6C6C6563746F722063616E6E6F74206265207A65726F20616464 PUSH1 0x44 DUP3 ADD MSTORE PUSH4 0x72657373 PUSH1 0xE0 SHL PUSH1 0x64 DUP3 ADD MSTORE PUSH1 0x84 ADD PUSH2 0x3E9 JUMP JUMPDEST PUSH1 0x5 DUP1 SLOAD PUSH1 0x1 PUSH1 0x1 PUSH1 0xA0 SHL SUB DUP5 DUP2 AND PUSH1 0x1 PUSH1 0x1 PUSH1 0xA0 SHL SUB NOT DUP4 AND DUP2 OR SWAP1 SWAP4 SSTORE PUSH1 0x40 DUP1 MLOAD SWAP2 SWAP1 SWAP3 AND DUP1 DUP3 MSTORE PUSH1 0x20 DUP3 ADD SWAP4 SWAP1 SWAP4 MSTORE PUSH32 0x5D16AD41BAEB009CD23EB8F6C7CDE5C2E0CD5ACF4A33926AB488875C37C37F38 SWAP2 ADD PUSH2 0x42C JUMP JUMPDEST PUSH1 0x0 DUP3 DUP2 MSTORE PUSH1 0x20 DUP2 SWAP1 MSTORE PUSH1 0x40 SWAP1 KECCAK256 PUSH1 0x1 ADD SLOAD PUSH2 0xB35 DUP2 PUSH2 0xB3F JUMP JUMPDEST PUSH2 0x562 DUP4 DUP4 PUSH2 0xBDE JUMP JUMPDEST PUSH2 0xB49 DUP2 CALLER PUSH2 0xC49 JUMP JUMPDEST POP JUMP JUMPDEST PUSH1 0x0 PUSH2 0xB58 DUP4 DUP4 PUSH2 0x848 JUMP JUMPDEST PUSH2 0xBD6 JUMPI PUSH1 0x0 DUP4 DUP2 MSTORE PUSH1 0x20 DUP2 DUP2 MSTORE PUSH1 0x40 DUP1 DUP4 KECCAK256 PUSH1 0x1 PUSH1 0x1 PUSH1 0xA0 SHL SUB DUP7 AND DUP5 MSTORE SWAP1 SWAP2 MSTORE SWAP1 KECCAK256 DUP1 SLOAD PUSH1 0xFF NOT AND PUSH1 0x1 OR SWAP1 SSTORE PUSH2 0xB8E CALLER SWAP1 JUMP JUMPDEST PUSH1 0x1 PUSH1 0x1 PUSH1 0xA0 SHL SUB AND DUP3 PUSH1 0x1 PUSH1 0x1 PUSH1 0xA0 SHL SUB AND DUP5 PUSH32 0x2F8788117E7EFF1D82E926EC794901D17C78024A50270940304540A733656F0D PUSH1 0x40 MLOAD PUSH1 0x40 MLOAD DUP1 SWAP2 SUB SWAP1 LOG4 POP PUSH1 0x1 PUSH2 0x371 JUMP JUMPDEST POP PUSH1 0x0 PUSH2 0x371 JUMP JUMPDEST PUSH1 0x0 PUSH2 0xBEA DUP4 DUP4 PUSH2 0x848 JUMP JUMPDEST ISZERO PUSH2 0xBD6 JUMPI PUSH1 0x0 DUP4 DUP2 MSTORE PUSH1 0x20 DUP2 DUP2 MSTORE PUSH1 0x40 DUP1 DUP4 KECCAK256 PUSH1 0x1 PUSH1 0x1 PUSH1 0xA0 SHL SUB DUP7 AND DUP1 DUP6 MSTORE SWAP3 MSTORE DUP1 DUP4 KECCAK256 DUP1 SLOAD PUSH1 0xFF NOT AND SWAP1 SSTORE MLOAD CALLER SWAP3 DUP7 SWAP2 PUSH32 0xF6391F5C32D9C69D2A47EA670B442974B53935D1EDC7FD64EB21E047A839171B SWAP2 SWAP1 LOG4 POP PUSH1 0x1 PUSH2 0x371 JUMP JUMPDEST PUSH2 0xC53 DUP3 DUP3 PUSH2 0x848 JUMP JUMPDEST PUSH2 0xC82 JUMPI PUSH1 0x40 MLOAD PUSH4 0xE2517D3F PUSH1 0xE0 SHL DUP2 MSTORE PUSH1 0x1 PUSH1 0x1 PUSH1 0xA0 SHL SUB DUP3 AND PUSH1 0x4 DUP3 ADD MSTORE PUSH1 0x24 DUP2 ADD DUP4 SWAP1 MSTORE PUSH1 0x44 ADD PUSH2 0x3E9 JUMP JUMPDEST POP POP JUMP JUMPDEST PUSH1 0x0 PUSH1 0x20 DUP3 DUP5 SUB SLT ISZERO PUSH2 0xC98 JUMPI PUSH1 0x0 DUP1 REVERT JUMPDEST DUP2 CALLDATALOAD PUSH1 0x1 PUSH1 0x1 PUSH1 0xE0 SHL SUB NOT DUP2 AND DUP2 EQ PUSH2 0xCB0 JUMPI PUSH1 0x0 DUP1 REVERT JUMPDEST SWAP4 SWAP3 POP POP POP JUMP JUMPDEST PUSH1 0x0 PUSH1 0x20 DUP3 DUP5 SUB SLT ISZERO PUSH2 0xCC9 JUMPI PUSH1 0x0 DUP1 REVERT JUMPDEST POP CALLDATALOAD SWAP2 SWAP1 POP JUMP JUMPDEST PUSH1 0x1 PUSH1 0x1 PUSH1 0xA0 SHL SUB DUP2 AND DUP2 EQ PUSH2 0xB49 JUMPI PUSH1 0x0 DUP1 REVERT JUMPDEST PUSH1 0x0 DUP1 PUSH1 0x40 DUP4 DUP6 SUB SLT ISZERO PUSH2 0xCF8 JUMPI PUSH1 0x0 DUP1 REVERT JUMPDEST DUP3 CALLDATALOAD PUSH2 0xD03 DUP2 PUSH2 0xCD0 JUMP JUMPDEST SWAP5 PUSH1 0x20 SWAP4 SWAP1 SWAP4 ADD CALLDATALOAD SWAP4 POP POP POP JUMP JUMPDEST PUSH1 0x0 DUP1 PUSH1 0x40 DUP4 DUP6 SUB SLT ISZERO PUSH2 0xD24 JUMPI PUSH1 0x0 DUP1 REVERT JUMPDEST DUP3 CALLDATALOAD SWAP2 POP PUSH1 0x20 DUP4 ADD CALLDATALOAD PUSH2 0xD36 DUP2 PUSH2 0xCD0 JUMP JUMPDEST DUP1 SWAP2 POP POP SWAP3 POP SWAP3 SWAP1 POP JUMP JUMPDEST PUSH1 0x0 PUSH1 0x20 DUP3 DUP5 SUB SLT ISZERO PUSH2 0xD53 JUMPI PUSH1 0x0 DUP1 REVERT JUMPDEST DUP2 CALLDATALOAD PUSH2 0xCB0 DUP2 PUSH2 0xCD0 JUMP JUMPDEST PUSH4 0x4E487B71 PUSH1 0xE0 SHL PUSH1 0x0 MSTORE PUSH1 0x11 PUSH1 0x4 MSTORE PUSH1 0x24 PUSH1 0x0 REVERT JUMPDEST DUP1 DUP3 ADD DUP1 DUP3 GT ISZERO PUSH2 0x371 JUMPI PUSH2 0x371 PUSH2 0xD5E JUMP JUMPDEST PUSH1 0x0 PUSH1 0x20 DUP3 DUP5 SUB SLT ISZERO PUSH2 0xD99 JUMPI PUSH1 0x0 DUP1 REVERT JUMPDEST DUP2 MLOAD DUP1 ISZERO ISZERO DUP2 EQ PUSH2 0xCB0 JUMPI PUSH1 0x0 DUP1 REVERT JUMPDEST DUP1 DUP3 MUL DUP2 ISZERO DUP3 DUP3 DIV DUP5 EQ OR PUSH2 0x371 JUMPI PUSH2 0x371 PUSH2 0xD5E JUMP JUMPDEST PUSH1 0x0 DUP3 PUSH2 0xDDD JUMPI PUSH4 0x4E487B71 PUSH1 0xE0 SHL PUSH1 0x0 MSTORE PUSH1 0x12 PUSH1 0x4 MSTORE PUSH1 0x24 PUSH1 0x0 REVERT JUMPDEST POP DIV SWAP1 JUMP INVALID CALLVALUE SWAP15 0xEC CHAINID 0xD2 0xC5 PUSH5 0xA125684D19 CALLVALUE 0xA6 SLT EXP PUSH17 0xCC341D3A26D362E358A775E07DEC17A264 PUSH10 0x70667358221220587B7D PUSH7 0xAAED0FEFC98039 0xA8 CALLDATACOPY PUSH1 0xE0 AND 0xE ISZERO 0xED SSTORE MSIZE 0xC8 DUP3 0xD4 DUP7 0xB4 PUSH28 0x85F976E6EC64736F6C6343000814003359C7A9EF9A56707D87D116A5 0xD2 PUSH21 0x96AFEE2604C70B902AC2C4DBDCB68F36F2EA349EEC CHAINID 0xD2 0xC5 PUSH5 0xA125684D19 CALLVALUE 0xA6 SLT EXP PUSH17 0xCC341D3A26D362E358A775E07DEC170000 "},"methodIdentifiers":{"DEFAULT_ADMIN_ROLE()":"a217fddf","FEE_ADMIN_ROLE()":"4cba593a","FEE_DISTRIBUTOR_ROLE()":"0cdac963","calculateFee(uint256)":"99a5d747","collectFee(address,uint256)":"2ec0ff6c","collectedFees()":"9003adfe","distributeFees(address)":"9413f25c","feeCollector()":"c415b95c","getRoleAdmin(bytes32)":"248a9ca3","grantRole(bytes32,address)":"2f2ff15d","hasRole(bytes32,address)":"91d14854","maxTransferFee()":"243cfc52","minTransferFee()":"ad7dd0e9","pause()":"8456cb59","paused()":"5c975abb","renounceRole(bytes32,address)":"36568abe","revokeRole(bytes32,address)":"d547741f","supportsInterface(bytes4)":"01ffc9a7","transferFeeRate()":"351bf518","unpause()":"3f4ba83a","updateFeeCollector(address)":"d2c35ce8","updateMaxTransferFee(uint256)":"064cbe6e","updateMinTransferFee(uint256)":"3b884886","updateTransferFeeRate(uint256)":"548d4a54"}}}}}