{"contracts/SimpleBatchPayment.sol":{"SimpleBatchPayment":{"abi":[{"inputs":[{"internalType":"address","name":"_admin","type":"address"},{"internalType":"address","name":"_tshc","type":"address"}],"stateMutability":"nonpayable","type":"constructor"},{"inputs":[],"name":"AccessControlBadConfirmation","type":"error"},{"inputs":[{"internalType":"address","name":"account","type":"address"},{"internalType":"bytes32","name":"neededRole","type":"bytes32"}],"name":"AccessControlUnauthorizedAccount","type":"error"},{"inputs":[{"internalType":"address","name":"token","type":"address"}],"name":"SafeERC20FailedOperation","type":"error"},{"anonymous":false,"inputs":[{"indexed":true,"internalType":"uint256","name":"batchId","type":"uint256"},{"indexed":true,"internalType":"address","name":"sender","type":"address"},{"indexed":false,"internalType":"uint256","name":"totalAmount","type":"uint256"},{"indexed":false,"internalType":"uint256","name":"totalFee","type":"uint256"},{"indexed":false,"internalType":"string","name":"paymentReference","type":"string"}],"name":"BatchPaymentCreated","type":"event"},{"anonymous":false,"inputs":[{"indexed":true,"internalType":"uint256","name":"batchId","type":"uint256"}],"name":"BatchPaymentProcessed","type":"event"},{"anonymous":false,"inputs":[{"indexed":false,"internalType":"uint256","name":"oldMax","type":"uint256"},{"indexed":false,"internalType":"uint256","name":"newMax","type":"uint256"}],"name":"MaxRecipientsUpdated","type":"event"},{"anonymous":false,"inputs":[{"indexed":false,"internalType":"uint256","name":"oldMin","type":"uint256"},{"indexed":false,"internalType":"uint256","name":"newMin","type":"uint256"}],"name":"MinAmountUpdated","type":"event"},{"anonymous":false,"inputs":[{"indexed":false,"internalType":"address","name":"account","type":"address"}],"name":"Paused","type":"event"},{"anonymous":false,"inputs":[{"indexed":true,"internalType":"bytes32","name":"role","type":"bytes32"},{"indexed":true,"internalType":"bytes32","name":"previousAdminRole","type":"bytes32"},{"indexed":true,"internalType":"bytes32","name":"newAdminRole","type":"bytes32"}],"name":"RoleAdminChanged","type":"event"},{"anonymous":false,"inputs":[{"indexed":true,"internalType":"bytes32","name":"role","type":"bytes32"},{"indexed":true,"internalType":"address","name":"account","type":"address"},{"indexed":true,"internalType":"address","name":"sender","type":"address"}],"name":"RoleGranted","type":"event"},{"anonymous":false,"inputs":[{"indexed":true,"internalType":"bytes32","name":"role","type":"bytes32"},{"indexed":true,"internalType":"address","name":"account","type":"address"},{"indexed":true,"internalType":"address","name":"sender","type":"address"}],"name":"RoleRevoked","type":"event"},{"anonymous":false,"inputs":[{"indexed":false,"internalType":"address","name":"account","type":"address"}],"name":"Unpaused","type":"event"},{"inputs":[],"name":"BATCH_ADMIN_ROLE","outputs":[{"internalType":"bytes32","name":"","type":"bytes32"}],"stateMutability":"view","type":"function"},{"inputs":[],"name":"DEFAULT_ADMIN_ROLE","outputs":[{"internalType":"bytes32","name":"","type":"bytes32"}],"stateMutability":"view","type":"function"},{"inputs":[],"name":"OPERATOR_ROLE","outputs":[{"internalType":"bytes32","name":"","type":"bytes32"}],"stateMutability":"view","type":"function"},{"inputs":[],"name":"batchCount","outputs":[{"internalType":"uint256","name":"","type":"uint256"}],"stateMutability":"view","type":"function"},{"inputs":[{"internalType":"uint256","name":"","type":"uint256"}],"name":"batchPayments","outputs":[{"internalType":"address","name":"sender","type":"address"},{"internalType":"string","name":"paymentReference","type":"string"},{"internalType":"uint256","name":"timestamp","type":"uint256"},{"internalType":"bool","name":"processed","type":"bool"},{"internalType":"uint256","name":"totalAmount","type":"uint256"},{"internalType":"uint256","name":"totalFee","type":"uint256"}],"stateMutability":"view","type":"function"},{"inputs":[{"internalType":"address[]","name":"_recipients","type":"address[]"},{"internalType":"uint256[]","name":"_amounts","type":"uint256[]"},{"internalType":"string","name":"_paymentReference","type":"string"}],"name":"createBatchPayment","outputs":[{"internalType":"uint256","name":"batchId","type":"uint256"}],"stateMutability":"nonpayable","type":"function"},{"inputs":[{"internalType":"uint256","name":"_batchId","type":"uint256"}],"name":"getBatchPayment","outputs":[{"internalType":"address","name":"sender","type":"address"},{"internalType":"address[]","name":"recipients","type":"address[]"},{"internalType":"uint256[]","name":"amounts","type":"uint256[]"},{"internalType":"string","name":"paymentReference","type":"string"},{"internalType":"uint256","name":"timestamp","type":"uint256"},{"internalType":"bool","name":"processed","type":"bool"},{"internalType":"uint256","name":"totalAmount","type":"uint256"},{"internalType":"uint256","name":"totalFee","type":"uint256"}],"stateMutability":"view","type":"function"},{"inputs":[{"internalType":"bytes32","name":"role","type":"bytes32"}],"name":"getRoleAdmin","outputs":[{"internalType":"bytes32","name":"","type":"bytes32"}],"stateMutability":"view","type":"function"},{"inputs":[{"internalType":"bytes32","name":"role","type":"bytes32"},{"internalType":"address","name":"account","type":"address"}],"name":"grantRole","outputs":[],"stateMutability":"nonpayable","type":"function"},{"inputs":[{"internalType":"bytes32","name":"role","type":"bytes32"},{"internalType":"address","name":"account","type":"address"}],"name":"hasRole","outputs":[{"internalType":"bool","name":"","type":"bool"}],"stateMutability":"view","type":"function"},{"inputs":[],"name":"maxRecipientsPerBatch","outputs":[{"internalType":"uint256","name":"","type":"uint256"}],"stateMutability":"view","type":"function"},{"inputs":[],"name":"minAmountPerRecipient","outputs":[{"internalType":"uint256","name":"","type":"uint256"}],"stateMutability":"view","type":"function"},{"inputs":[],"name":"pause","outputs":[],"stateMutability":"nonpayable","type":"function"},{"inputs":[],"name":"paused","outputs":[{"internalType":"bool","name":"","type":"bool"}],"stateMutability":"view","type":"function"},{"inputs":[{"internalType":"uint256","name":"_batchId","type":"uint256"}],"name":"processBatchPayment","outputs":[],"stateMutability":"nonpayable","type":"function"},{"inputs":[{"internalType":"bytes32","name":"role","type":"bytes32"},{"internalType":"address","name":"callerConfirmation","type":"address"}],"name":"renounceRole","outputs":[],"stateMutability":"nonpayable","type":"function"},{"inputs":[{"internalType":"bytes32","name":"role","type":"bytes32"},{"internalType":"address","name":"account","type":"address"}],"name":"revokeRole","outputs":[],"stateMutability":"nonpayable","type":"function"},{"inputs":[{"internalType":"bytes4","name":"interfaceId","type":"bytes4"}],"name":"supportsInterface","outputs":[{"internalType":"bool","name":"","type":"bool"}],"stateMutability":"view","type":"function"},{"inputs":[],"name":"tshc","outputs":[{"internalType":"contract IERC20","name":"","type":"address"}],"stateMutability":"view","type":"function"},{"inputs":[],"name":"unpause","outputs":[],"stateMutability":"nonpayable","type":"function"},{"inputs":[{"internalType":"uint256","name":"_newMax","type":"uint256"}],"name":"updateMaxRecipientsPerBatch","outputs":[],"stateMutability":"nonpayable","type":"function"},{"inputs":[{"internalType":"uint256","name":"_newMin","type":"uint256"}],"name":"updateMinAmountPerRecipient","outputs":[],"stateMutability":"nonpayable","type":"function"}],"evm":{"bytecode":{"linkReferences":{},"object":"60806040526064600455670de0b6b3a76400006005553480156200002257600080fd5b5060405162001b5a38038062001b5a8339810160408190526200004591620002c3565b6001600160a01b038216620000a15760405162461bcd60e51b815260206004820152601c60248201527f41646d696e20616464726573732063616e6e6f74206265207a65726f0000000060448201526064015b60405180910390fd5b6001600160a01b038116620000f95760405162461bcd60e51b815260206004820152601b60248201527f5453484320616464726573732063616e6e6f74206265207a65726f0000000000604482015260640162000098565b62000106600083620001ac565b506200012260008051602062001b1a83398151915283620001ac565b506200013e60008051602062001b3a83398151915283620001ac565b506200015b60008051602062001b1a83398151915260006200025b565b6200018560008051602062001b3a83398151915260008051602062001b1a8339815191526200025b565b600180546001600160a01b0319166001600160a01b039290921691909117905550620002fb565b6000828152602081815260408083206001600160a01b038516845290915281205460ff1662000251576000838152602081815260408083206001600160a01b03861684529091529020805460ff19166001179055620002083390565b6001600160a01b0316826001600160a01b0316847f2f8788117e7eff1d82e926ec794901d17c78024a50270940304540a733656f0d60405160405180910390a450600162000255565b5060005b92915050565b600082815260208190526040808220600101805490849055905190918391839186917fbd79b86ffe0ab8e8776151514217cd7cacd52c909f66475c3af44e129f0b00ff9190a4505050565b80516001600160a01b0381168114620002be57600080fd5b919050565b60008060408385031215620002d757600080fd5b620002e283620002a6565b9150620002f260208401620002a6565b90509250929050565b61180f806200030b6000396000f3fe608060405234801561001057600080fd5b50600436106101425760003560e01c80635c975abb116100b857806391d148541161007c57806391d14854146102a1578063a217fddf146102b4578063a7792cf4146102bc578063c1198217146102cf578063d547741f146102fa578063f5b541a61461030d57600080fd5b80635c975abb1461024a5780635da84f131461025e5780637bc948001461027157806380344c24146102865780638456cb591461029957600080fd5b80632f2ff15d1161010a5780632f2ff15d146101d75780632fcef5cc146101ec57806336568abe146102135780633f4ba83a1461022657806349e614e11461022e5780634e4b63691461024157600080fd5b806301ffc9a71461014757806306f130561461016f5780631457a87214610186578063248a9ca3146101ab5780632e8b92a9146101ce575b600080fd5b61015a61015536600461126b565b610334565b60405190151581526020015b60405180910390f35b61017860025481565b604051908152602001610166565b61019961019436600461129c565b61036b565b604051610166969594939291906112fb565b6101786101b936600461129c565b60009081526020819052604090206001015490565b61017860045481565b6101ea6101e5366004611360565b610438565b005b6101ff6101fa36600461129c565b610463565b6040516101669897969594939291906113c7565b6101ea610221366004611360565b61060e565b6101ea610646565b6101ea61023c36600461129c565b6106f9565b61017860055481565b60015461015a90600160a01b900460ff1681565b61017861026c3660046114b9565b6107b9565b6101786000805160206117ba83398151915281565b6101ea61029436600461129c565b610c72565b6101ea610e3d565b61015a6102af366004611360565b610ec2565b610178600081565b6101ea6102ca36600461129c565b610eeb565b6001546102e2906001600160a01b031681565b6040516001600160a01b039091168152602001610166565b6101ea610308366004611360565b610f41565b6101787f97667070c54ef182b0f5858b034beac1b6f3089aa2d3188bb1e8929f4fa9b92981565b60006001600160e01b03198216637965db0b60e01b148061036557506301ffc9a760e01b6001600160e01b03198316145b92915050565b6003602081905260009182526040909120805491810180546001600160a01b03909316926103989061157f565b80601f01602080910402602001604051908101604052809291908181526020018280546103c49061157f565b80156104115780601f106103e657610100808354040283529160200191610411565b820191906000526020600020905b8154815290600101906020018083116103f457829003601f168201915b505050506004830154600584015460068501546007909501549394919360ff909116925086565b60008281526020819052604090206001015461045381610f66565b61045d8383610f73565b50505050565b6000818152600360208181526040808420805460048201546005830154600684015460078501546001860180548851818b0281018b0190995280895260609a8b9a8b9a8e9a8b9a8b9a8b9a92996001600160a01b039092169860028b0197968b0196919560ff909416949293909291899183018282801561050d57602002820191906000526020600020905b81546001600160a01b031681526001909101906020018083116104ef575b505050505096508580548060200260200160405190810160405280929190818152602001828054801561055f57602002820191906000526020600020905b81548152602001906001019080831161054b575b505050505095508480546105729061157f565b80601f016020809104026020016040519081016040528092919081815260200182805461059e9061157f565b80156105eb5780601f106105c0576101008083540402835291602001916105eb565b820191906000526020600020905b8154815290600101906020018083116105ce57829003601f168201915b505050505094509850985098509850985098509850985050919395975091939597565b6001600160a01b03811633146106375760405163334bd91960e11b815260040160405180910390fd5b6106418282611005565b505050565b6000805160206117ba83398151915261065e81610f66565b600154600160a01b900460ff166106b55760405162461bcd60e51b815260206004820152601660248201527510dbdb9d1c9858dd081a5cc81b9bdd081c185d5cd95960521b60448201526064015b60405180910390fd5b6001805460ff60a01b191690556040513381527f5db9ee0a495bf2e6ff9c91a7834c1ba4fdd244a5e8aa4e537bd38aeae4b073aa906020015b60405180910390a150565b6000805160206117ba83398151915261071181610f66565b600082116107725760405162461bcd60e51b815260206004820152602860248201527f4d617820726563697069656e7473206d7573742062652067726561746572207460448201526768616e207a65726f60c01b60648201526084016106ac565b600480549083905560408051828152602081018590527fb010296fe6d61754e2577ef181d6f11c23e4f4fe93836511bb79364acd791c6891015b60405180910390a1505050565b600154600090600160a01b900460ff16156107e65760405162461bcd60e51b81526004016106ac906115b9565b8561082c5760405162461bcd60e51b8152602060048201526016602482015275139bc81c9958da5c1a595b9d1cc81c1c9bdd9a59195960521b60448201526064016106ac565b85841461088a5760405162461bcd60e51b815260206004820152602660248201527f526563697069656e747320616e6420616d6f756e7473206c656e677468206d696044820152650e6dac2e8c6d60d31b60648201526084016106ac565b6004548611156108d25760405162461bcd60e51b8152602060048201526013602482015272546f6f206d616e7920726563697069656e747360681b60448201526064016106ac565b6000805b878110156109f65760008989838181106108f2576108f26115e5565b905060200201602081019061090791906115fb565b6001600160a01b03160361095d5760405162461bcd60e51b815260206004820152601960248201527f496e76616c696420726563697069656e7420616464726573730000000000000060448201526064016106ac565b600554878783818110610972576109726115e5565b9050602002013510156109be5760405162461bcd60e51b8152602060048201526014602482015273416d6f756e742062656c6f77206d696e696d756d60601b60448201526064016106ac565b8686828181106109d0576109d06115e5565b90506020020135826109e2919061162c565b9150806109ee8161163f565b9150506108d6565b5060008111610a565760405162461bcd60e51b815260206004820152602660248201527f546f74616c20616d6f756e74206d7573742062652067726561746572207468616044820152656e207a65726f60d01b60648201526084016106ac565b6002805460009182610a678361163f565b919050559250604051806101000160405280336001600160a01b031681526020018a8a808060200260200160405190810160405280939291908181526020018383602002808284376000920191909152505050908252506040805160208a810282810182019093528a82529283019290918b918b918291850190849080828437600092019190915250505090825250604080516020601f890181900481028201810190925287815291810191908890889081908401838280828437600092018290525093855250504260208085019190915260408085018490526060850188905260809094018690528783526003815292909120835181546001600160a01b0319166001600160a01b039091161781558383015180519193610b91935060018501929101906111b6565b5060408201518051610bad91600284019160209091019061121b565b5060608201516003820190610bc290826116bc565b506080820151600482015560a082015160058201805460ff191691151591909117905560c0820151600682015560e090910151600790910155610c1e3330610c0a848661162c565b6001546001600160a01b0316929190611070565b336001600160a01b0316837f3e4cc587d6c58f63180ea4de590b290db14f1118bfd79d8499e8c21f99ecef3c84848989604051610c5e949392919061177c565b60405180910390a350509695505050505050565b600154600160a01b900460ff1615610c9c5760405162461bcd60e51b81526004016106ac906115b9565b7f97667070c54ef182b0f5858b034beac1b6f3089aa2d3188bb1e8929f4fa9b929610cc681610f66565b6000828152600360205260409020600581015460ff1615610d295760405162461bcd60e51b815260206004820152601760248201527f426174636820616c72656164792070726f63657373656400000000000000000060448201526064016106ac565b80546001600160a01b0316610d775760405162461bcd60e51b815260206004820152601460248201527310985d18da08191bd95cc81b9bdd08195e1a5cdd60621b60448201526064016106ac565b60058101805460ff1916600117905560005b6001820154811015610e0c57610dfa826001018281548110610dad57610dad6115e5565b6000918252602090912001546002840180546001600160a01b039092169184908110610ddb57610ddb6115e5565b6000918252602090912001546001546001600160a01b031691906110d7565b80610e048161163f565b915050610d89565b5060405183907f1c0d9eb91668154163bae8692f4199ee9c1aaa2fb6865879965d76606f4eb8a790600090a2505050565b6000805160206117ba833981519152610e5581610f66565b600154600160a01b900460ff1615610e7f5760405162461bcd60e51b81526004016106ac906115b9565b6001805460ff60a01b1916600160a01b1790556040513381527f62e78cea01bee320cd4e420270b5ea74000d11b0c9f74754ebdbfc544b05a258906020016106ee565b6000918252602082815260408084206001600160a01b0393909316845291905290205460ff1690565b6000805160206117ba833981519152610f0381610f66565b600580549083905560408051828152602081018590527f656a449366ed7a6c9034eeaf2c97a3ce974c5033a88215ae041e95fb9f9ade8691016107ac565b600082815260208190526040902060010154610f5c81610f66565b61045d8383611005565b610f708133611108565b50565b6000610f7f8383610ec2565b610ffd576000838152602081815260408083206001600160a01b03861684529091529020805460ff19166001179055610fb53390565b6001600160a01b0316826001600160a01b0316847f2f8788117e7eff1d82e926ec794901d17c78024a50270940304540a733656f0d60405160405180910390a4506001610365565b506000610365565b60006110118383610ec2565b15610ffd576000838152602081815260408083206001600160a01b0386168085529252808320805460ff1916905551339286917ff6391f5c32d9c69d2a47ea670b442974b53935d1edc7fd64eb21e047a839171b9190a4506001610365565b6040516001600160a01b03848116602483015283811660448301526064820183905261045d9186918216906323b872dd906084015b604051602081830303815290604052915060e01b6020820180516001600160e01b038381831617835250505050611145565b6040516001600160a01b0383811660248301526044820183905261064191859182169063a9059cbb906064016110a5565b6111128282610ec2565b6111415760405163e2517d3f60e01b81526001600160a01b0382166004820152602481018390526044016106ac565b5050565b600080602060008451602086016000885af180611168576040513d6000823e3d81fd5b50506000513d9150811561118057806001141561118d565b6001600160a01b0384163b155b1561045d57604051635274afe760e01b81526001600160a01b03851660048201526024016106ac565b82805482825590600052602060002090810192821561120b579160200282015b8281111561120b57825182546001600160a01b0319166001600160a01b039091161782556020909201916001909101906111d6565b50611217929150611256565b5090565b82805482825590600052602060002090810192821561120b579160200282015b8281111561120b57825182559160200191906001019061123b565b5b808211156112175760008155600101611257565b60006020828403121561127d57600080fd5b81356001600160e01b03198116811461129557600080fd5b9392505050565b6000602082840312156112ae57600080fd5b5035919050565b6000815180845260005b818110156112db576020818501810151868301820152016112bf565b506000602082860101526020601f19601f83011685010191505092915050565b6001600160a01b038716815260c06020820181905260009061131f908301886112b5565b6040830196909652509215156060840152608083019190915260a09091015292915050565b80356001600160a01b038116811461135b57600080fd5b919050565b6000806040838503121561137357600080fd5b8235915061138360208401611344565b90509250929050565b600081518084526020808501945080840160005b838110156113bc578151875295820195908201906001016113a0565b509495945050505050565b6001600160a01b03898116825261010060208084018290528a519184018290526000926101208501928c83019290855b818110156114155784518416865294820194938201936001016113f7565b5050505050828103604084015261142c818a61138c565b9050828103606084015261144081896112b5565b91505085608083015261145760a083018615159052565b60c082019390935260e001529695505050505050565b60008083601f84011261147f57600080fd5b50813567ffffffffffffffff81111561149757600080fd5b6020830191508360208260051b85010111156114b257600080fd5b9250929050565b600080600080600080606087890312156114d257600080fd5b863567ffffffffffffffff808211156114ea57600080fd5b6114f68a838b0161146d565b9098509650602089013591508082111561150f57600080fd5b61151b8a838b0161146d565b9096509450604089013591508082111561153457600080fd5b818901915089601f83011261154857600080fd5b81358181111561155757600080fd5b8a602082850101111561156957600080fd5b6020830194508093505050509295509295509295565b600181811c9082168061159357607f821691505b6020821081036115b357634e487b7160e01b600052602260045260246000fd5b50919050565b60208082526012908201527110dbdb9d1c9858dd081a5cc81c185d5cd95960721b604082015260600190565b634e487b7160e01b600052603260045260246000fd5b60006020828403121561160d57600080fd5b61129582611344565b634e487b7160e01b600052601160045260246000fd5b8082018082111561036557610365611616565b60006001820161165157611651611616565b5060010190565b634e487b7160e01b600052604160045260246000fd5b601f82111561064157600081815260208120601f850160051c810160208610156116955750805b601f850160051c820191505b818110156116b4578281556001016116a1565b505050505050565b815167ffffffffffffffff8111156116d6576116d6611658565b6116ea816116e4845461157f565b8461166e565b602080601f83116001811461171f57600084156117075750858301515b600019600386901b1c1916600185901b1785556116b4565b600085815260208120601f198616915b8281101561174e5788860151825594840194600190910190840161172f565b508582101561176c5787850151600019600388901b60f8161c191681555b5050505050600190811b01905550565b84815283602082015260606040820152816060820152818360808301376000818301608090810191909152601f909201601f19160101939250505056fe170c79c7fa91ee11c6de4d96f513fb36e59ec6d71ffdf75d7912c9da9a68cd56a2646970667358221220493f2b2d3ae0246f2e9dc40900bf42ebd885b20fc4943fb9237ea84d1f70612d64736f6c63430008140033170c79c7fa91ee11c6de4d96f513fb36e59ec6d71ffdf75d7912c9da9a68cd5697667070c54ef182b0f5858b034beac1b6f3089aa2d3188bb1e8929f4fa9b929","opcodes":"PUSH1 0x80 PUSH1 0x40 MSTORE PUSH1 0x64 PUSH1 0x4 SSTORE PUSH8 0xDE0B6B3A7640000 PUSH1 0x5 SSTORE CALLVALUE DUP1 ISZERO PUSH3 0x22 JUMPI PUSH1 0x0 DUP1 REVERT JUMPDEST POP PUSH1 0x40 MLOAD PUSH3 0x1B5A CODESIZE SUB DUP1 PUSH3 0x1B5A DUP4 CODECOPY DUP2 ADD PUSH1 0x40 DUP2 SWAP1 MSTORE PUSH3 0x45 SWAP2 PUSH3 0x2C3 JUMP JUMPDEST PUSH1 0x1 PUSH1 0x1 PUSH1 0xA0 SHL SUB DUP3 AND PUSH3 0xA1 JUMPI PUSH1 0x40 MLOAD PUSH3 0x461BCD PUSH1 0xE5 SHL DUP2 MSTORE PUSH1 0x20 PUSH1 0x4 DUP3 ADD MSTORE PUSH1 0x1C PUSH1 0x24 DUP3 ADD MSTORE PUSH32 0x41646D696E20616464726573732063616E6E6F74206265207A65726F00000000 PUSH1 0x44 DUP3 ADD MSTORE PUSH1 0x64 ADD JUMPDEST PUSH1 0x40 MLOAD DUP1 SWAP2 SUB SWAP1 REVERT JUMPDEST PUSH1 0x1 PUSH1 0x1 PUSH1 0xA0 SHL SUB DUP2 AND PUSH3 0xF9 JUMPI PUSH1 0x40 MLOAD PUSH3 0x461BCD PUSH1 0xE5 SHL DUP2 MSTORE PUSH1 0x20 PUSH1 0x4 DUP3 ADD MSTORE PUSH1 0x1B PUSH1 0x24 DUP3 ADD MSTORE PUSH32 0x5453484320616464726573732063616E6E6F74206265207A65726F0000000000 PUSH1 0x44 DUP3 ADD MSTORE PUSH1 0x64 ADD PUSH3 0x98 JUMP JUMPDEST PUSH3 0x106 PUSH1 0x0 DUP4 PUSH3 0x1AC JUMP JUMPDEST POP PUSH3 0x122 PUSH1 0x0 DUP1 MLOAD PUSH1 0x20 PUSH3 0x1B1A DUP4 CODECOPY DUP2 MLOAD SWAP2 MSTORE DUP4 PUSH3 0x1AC JUMP JUMPDEST POP PUSH3 0x13E PUSH1 0x0 DUP1 MLOAD PUSH1 0x20 PUSH3 0x1B3A DUP4 CODECOPY DUP2 MLOAD SWAP2 MSTORE DUP4 PUSH3 0x1AC JUMP JUMPDEST POP PUSH3 0x15B PUSH1 0x0 DUP1 MLOAD PUSH1 0x20 PUSH3 0x1B1A DUP4 CODECOPY DUP2 MLOAD SWAP2 MSTORE PUSH1 0x0 PUSH3 0x25B JUMP JUMPDEST PUSH3 0x185 PUSH1 0x0 DUP1 MLOAD PUSH1 0x20 PUSH3 0x1B3A DUP4 CODECOPY DUP2 MLOAD SWAP2 MSTORE PUSH1 0x0 DUP1 MLOAD PUSH1 0x20 PUSH3 0x1B1A DUP4 CODECOPY DUP2 MLOAD SWAP2 MSTORE PUSH3 0x25B JUMP JUMPDEST PUSH1 0x1 DUP1 SLOAD PUSH1 0x1 PUSH1 0x1 PUSH1 0xA0 SHL SUB NOT AND PUSH1 0x1 PUSH1 0x1 PUSH1 0xA0 SHL SUB SWAP3 SWAP1 SWAP3 AND SWAP2 SWAP1 SWAP2 OR SWAP1 SSTORE POP PUSH3 0x2FB JUMP JUMPDEST PUSH1 0x0 DUP3 DUP2 MSTORE PUSH1 0x20 DUP2 DUP2 MSTORE PUSH1 0x40 DUP1 DUP4 KECCAK256 PUSH1 0x1 PUSH1 0x1 PUSH1 0xA0 SHL SUB DUP6 AND DUP5 MSTORE SWAP1 SWAP2 MSTORE DUP2 KECCAK256 SLOAD PUSH1 0xFF AND PUSH3 0x251 JUMPI PUSH1 0x0 DUP4 DUP2 MSTORE PUSH1 0x20 DUP2 DUP2 MSTORE PUSH1 0x40 DUP1 DUP4 KECCAK256 PUSH1 0x1 PUSH1 0x1 PUSH1 0xA0 SHL SUB DUP7 AND DUP5 MSTORE SWAP1 SWAP2 MSTORE SWAP1 KECCAK256 DUP1 SLOAD PUSH1 0xFF NOT AND PUSH1 0x1 OR SWAP1 SSTORE PUSH3 0x208 CALLER SWAP1 JUMP JUMPDEST PUSH1 0x1 PUSH1 0x1 PUSH1 0xA0 SHL SUB AND DUP3 PUSH1 0x1 PUSH1 0x1 PUSH1 0xA0 SHL SUB AND DUP5 PUSH32 0x2F8788117E7EFF1D82E926EC794901D17C78024A50270940304540A733656F0D PUSH1 0x40 MLOAD PUSH1 0x40 MLOAD DUP1 SWAP2 SUB SWAP1 LOG4 POP PUSH1 0x1 PUSH3 0x255 JUMP JUMPDEST POP PUSH1 0x0 JUMPDEST SWAP3 SWAP2 POP POP JUMP JUMPDEST PUSH1 0x0 DUP3 DUP2 MSTORE PUSH1 0x20 DUP2 SWAP1 MSTORE PUSH1 0x40 DUP1 DUP3 KECCAK256 PUSH1 0x1 ADD DUP1 SLOAD SWAP1 DUP5 SWAP1 SSTORE SWAP1 MLOAD SWAP1 SWAP2 DUP4 SWAP2 DUP4 SWAP2 DUP7 SWAP2 PUSH32 0xBD79B86FFE0AB8E8776151514217CD7CACD52C909F66475C3AF44E129F0B00FF SWAP2 SWAP1 LOG4 POP POP POP JUMP JUMPDEST DUP1 MLOAD PUSH1 0x1 PUSH1 0x1 PUSH1 0xA0 SHL SUB DUP2 AND DUP2 EQ PUSH3 0x2BE JUMPI PUSH1 0x0 DUP1 REVERT JUMPDEST SWAP2 SWAP1 POP JUMP JUMPDEST PUSH1 0x0 DUP1 PUSH1 0x40 DUP4 DUP6 SUB SLT ISZERO PUSH3 0x2D7 JUMPI PUSH1 0x0 DUP1 REVERT JUMPDEST PUSH3 0x2E2 DUP4 PUSH3 0x2A6 JUMP JUMPDEST SWAP2 POP PUSH3 0x2F2 PUSH1 0x20 DUP5 ADD PUSH3 0x2A6 JUMP JUMPDEST SWAP1 POP SWAP3 POP SWAP3 SWAP1 POP JUMP JUMPDEST PUSH2 0x180F DUP1 PUSH3 0x30B PUSH1 0x0 CODECOPY PUSH1 0x0 RETURN INVALID PUSH1 0x80 PUSH1 0x40 MSTORE CALLVALUE DUP1 ISZERO PUSH2 0x10 JUMPI PUSH1 0x0 DUP1 REVERT JUMPDEST POP PUSH1 0x4 CALLDATASIZE LT PUSH2 0x142 JUMPI PUSH1 0x0 CALLDATALOAD PUSH1 0xE0 SHR DUP1 PUSH4 0x5C975ABB GT PUSH2 0xB8 JUMPI DUP1 PUSH4 0x91D14854 GT PUSH2 0x7C JUMPI DUP1 PUSH4 0x91D14854 EQ PUSH2 0x2A1 JUMPI DUP1 PUSH4 0xA217FDDF EQ PUSH2 0x2B4 JUMPI DUP1 PUSH4 0xA7792CF4 EQ PUSH2 0x2BC JUMPI DUP1 PUSH4 0xC1198217 EQ PUSH2 0x2CF JUMPI DUP1 PUSH4 0xD547741F EQ PUSH2 0x2FA JUMPI DUP1 PUSH4 0xF5B541A6 EQ PUSH2 0x30D JUMPI PUSH1 0x0 DUP1 REVERT JUMPDEST DUP1 PUSH4 0x5C975ABB EQ PUSH2 0x24A JUMPI DUP1 PUSH4 0x5DA84F13 EQ PUSH2 0x25E JUMPI DUP1 PUSH4 0x7BC94800 EQ PUSH2 0x271 JUMPI DUP1 PUSH4 0x80344C24 EQ PUSH2 0x286 JUMPI DUP1 PUSH4 0x8456CB59 EQ PUSH2 0x299 JUMPI PUSH1 0x0 DUP1 REVERT JUMPDEST DUP1 PUSH4 0x2F2FF15D GT PUSH2 0x10A JUMPI DUP1 PUSH4 0x2F2FF15D EQ PUSH2 0x1D7 JUMPI DUP1 PUSH4 0x2FCEF5CC EQ PUSH2 0x1EC JUMPI DUP1 PUSH4 0x36568ABE EQ PUSH2 0x213 JUMPI DUP1 PUSH4 0x3F4BA83A EQ PUSH2 0x226 JUMPI DUP1 PUSH4 0x49E614E1 EQ PUSH2 0x22E JUMPI DUP1 PUSH4 0x4E4B6369 EQ PUSH2 0x241 JUMPI PUSH1 0x0 DUP1 REVERT JUMPDEST DUP1 PUSH4 0x1FFC9A7 EQ PUSH2 0x147 JUMPI DUP1 PUSH4 0x6F13056 EQ PUSH2 0x16F JUMPI DUP1 PUSH4 0x1457A872 EQ PUSH2 0x186 JUMPI DUP1 PUSH4 0x248A9CA3 EQ PUSH2 0x1AB JUMPI DUP1 PUSH4 0x2E8B92A9 EQ PUSH2 0x1CE JUMPI JUMPDEST PUSH1 0x0 DUP1 REVERT JUMPDEST PUSH2 0x15A PUSH2 0x155 CALLDATASIZE PUSH1 0x4 PUSH2 0x126B JUMP JUMPDEST PUSH2 0x334 JUMP JUMPDEST PUSH1 0x40 MLOAD SWAP1 ISZERO ISZERO DUP2 MSTORE PUSH1 0x20 ADD JUMPDEST PUSH1 0x40 MLOAD DUP1 SWAP2 SUB SWAP1 RETURN JUMPDEST PUSH2 0x178 PUSH1 0x2 SLOAD DUP2 JUMP JUMPDEST PUSH1 0x40 MLOAD SWAP1 DUP2 MSTORE PUSH1 0x20 ADD PUSH2 0x166 JUMP JUMPDEST PUSH2 0x199 PUSH2 0x194 CALLDATASIZE PUSH1 0x4 PUSH2 0x129C JUMP JUMPDEST PUSH2 0x36B JUMP JUMPDEST PUSH1 0x40 MLOAD PUSH2 0x166 SWAP7 SWAP6 SWAP5 SWAP4 SWAP3 SWAP2 SWAP1 PUSH2 0x12FB JUMP JUMPDEST PUSH2 0x178 PUSH2 0x1B9 CALLDATASIZE PUSH1 0x4 PUSH2 0x129C JUMP JUMPDEST PUSH1 0x0 SWAP1 DUP2 MSTORE PUSH1 0x20 DUP2 SWAP1 MSTORE PUSH1 0x40 SWAP1 KECCAK256 PUSH1 0x1 ADD SLOAD SWAP1 JUMP JUMPDEST PUSH2 0x178 PUSH1 0x4 SLOAD DUP2 JUMP JUMPDEST PUSH2 0x1EA PUSH2 0x1E5 CALLDATASIZE PUSH1 0x4 PUSH2 0x1360 JUMP JUMPDEST PUSH2 0x438 JUMP JUMPDEST STOP JUMPDEST PUSH2 0x1FF PUSH2 0x1FA CALLDATASIZE PUSH1 0x4 PUSH2 0x129C JUMP JUMPDEST PUSH2 0x463 JUMP JUMPDEST PUSH1 0x40 MLOAD PUSH2 0x166 SWAP9 SWAP8 SWAP7 SWAP6 SWAP5 SWAP4 SWAP3 SWAP2 SWAP1 PUSH2 0x13C7 JUMP JUMPDEST PUSH2 0x1EA PUSH2 0x221 CALLDATASIZE PUSH1 0x4 PUSH2 0x1360 JUMP JUMPDEST PUSH2 0x60E JUMP JUMPDEST PUSH2 0x1EA PUSH2 0x646 JUMP JUMPDEST PUSH2 0x1EA PUSH2 0x23C CALLDATASIZE PUSH1 0x4 PUSH2 0x129C JUMP JUMPDEST PUSH2 0x6F9 JUMP JUMPDEST PUSH2 0x178 PUSH1 0x5 SLOAD DUP2 JUMP JUMPDEST PUSH1 0x1 SLOAD PUSH2 0x15A SWAP1 PUSH1 0x1 PUSH1 0xA0 SHL SWAP1 DIV PUSH1 0xFF AND DUP2 JUMP JUMPDEST PUSH2 0x178 PUSH2 0x26C CALLDATASIZE PUSH1 0x4 PUSH2 0x14B9 JUMP JUMPDEST PUSH2 0x7B9 JUMP JUMPDEST PUSH2 0x178 PUSH1 0x0 DUP1 MLOAD PUSH1 0x20 PUSH2 0x17BA DUP4 CODECOPY DUP2 MLOAD SWAP2 MSTORE DUP2 JUMP JUMPDEST PUSH2 0x1EA PUSH2 0x294 CALLDATASIZE PUSH1 0x4 PUSH2 0x129C JUMP JUMPDEST PUSH2 0xC72 JUMP JUMPDEST PUSH2 0x1EA PUSH2 0xE3D JUMP JUMPDEST PUSH2 0x15A PUSH2 0x2AF CALLDATASIZE PUSH1 0x4 PUSH2 0x1360 JUMP JUMPDEST PUSH2 0xEC2 JUMP JUMPDEST PUSH2 0x178 PUSH1 0x0 DUP2 JUMP JUMPDEST PUSH2 0x1EA PUSH2 0x2CA CALLDATASIZE PUSH1 0x4 PUSH2 0x129C JUMP JUMPDEST PUSH2 0xEEB JUMP JUMPDEST PUSH1 0x1 SLOAD PUSH2 0x2E2 SWAP1 PUSH1 0x1 PUSH1 0x1 PUSH1 0xA0 SHL SUB AND DUP2 JUMP JUMPDEST PUSH1 0x40 MLOAD PUSH1 0x1 PUSH1 0x1 PUSH1 0xA0 SHL SUB SWAP1 SWAP2 AND DUP2 MSTORE PUSH1 0x20 ADD PUSH2 0x166 JUMP JUMPDEST PUSH2 0x1EA PUSH2 0x308 CALLDATASIZE PUSH1 0x4 PUSH2 0x1360 JUMP JUMPDEST PUSH2 0xF41 JUMP JUMPDEST PUSH2 0x178 PUSH32 0x97667070C54EF182B0F5858B034BEAC1B6F3089AA2D3188BB1E8929F4FA9B929 DUP2 JUMP JUMPDEST PUSH1 0x0 PUSH1 0x1 PUSH1 0x1 PUSH1 0xE0 SHL SUB NOT DUP3 AND PUSH4 0x7965DB0B PUSH1 0xE0 SHL EQ DUP1 PUSH2 0x365 JUMPI POP PUSH4 0x1FFC9A7 PUSH1 0xE0 SHL PUSH1 0x1 PUSH1 0x1 PUSH1 0xE0 SHL SUB NOT DUP4 AND EQ JUMPDEST SWAP3 SWAP2 POP POP JUMP JUMPDEST PUSH1 0x3 PUSH1 0x20 DUP2 SWAP1 MSTORE PUSH1 0x0 SWAP2 DUP3 MSTORE PUSH1 0x40 SWAP1 SWAP2 KECCAK256 DUP1 SLOAD SWAP2 DUP2 ADD DUP1 SLOAD PUSH1 0x1 PUSH1 0x1 PUSH1 0xA0 SHL SUB SWAP1 SWAP4 AND SWAP3 PUSH2 0x398 SWAP1 PUSH2 0x157F JUMP JUMPDEST DUP1 PUSH1 0x1F ADD PUSH1 0x20 DUP1 SWAP2 DIV MUL PUSH1 0x20 ADD PUSH1 0x40 MLOAD SWAP1 DUP2 ADD PUSH1 0x40 MSTORE DUP1 SWAP3 SWAP2 SWAP1 DUP2 DUP2 MSTORE PUSH1 0x20 ADD DUP3 DUP1 SLOAD PUSH2 0x3C4 SWAP1 PUSH2 0x157F JUMP JUMPDEST DUP1 ISZERO PUSH2 0x411 JUMPI DUP1 PUSH1 0x1F LT PUSH2 0x3E6 JUMPI PUSH2 0x100 DUP1 DUP4 SLOAD DIV MUL DUP4 MSTORE SWAP2 PUSH1 0x20 ADD SWAP2 PUSH2 0x411 JUMP JUMPDEST DUP3 ADD SWAP2 SWAP1 PUSH1 0x0 MSTORE PUSH1 0x20 PUSH1 0x0 KECCAK256 SWAP1 JUMPDEST DUP2 SLOAD DUP2 MSTORE SWAP1 PUSH1 0x1 ADD SWAP1 PUSH1 0x20 ADD DUP1 DUP4 GT PUSH2 0x3F4 JUMPI DUP3 SWAP1 SUB PUSH1 0x1F AND DUP3 ADD SWAP2 JUMPDEST POP POP POP POP PUSH1 0x4 DUP4 ADD SLOAD PUSH1 0x5 DUP5 ADD SLOAD PUSH1 0x6 DUP6 ADD SLOAD PUSH1 0x7 SWAP1 SWAP6 ADD SLOAD SWAP4 SWAP5 SWAP2 SWAP4 PUSH1 0xFF SWAP1 SWAP2 AND SWAP3 POP DUP7 JUMP JUMPDEST PUSH1 0x0 DUP3 DUP2 MSTORE PUSH1 0x20 DUP2 SWAP1 MSTORE PUSH1 0x40 SWAP1 KECCAK256 PUSH1 0x1 ADD SLOAD PUSH2 0x453 DUP2 PUSH2 0xF66 JUMP JUMPDEST PUSH2 0x45D DUP4 DUP4 PUSH2 0xF73 JUMP JUMPDEST POP POP POP POP JUMP JUMPDEST PUSH1 0x0 DUP2 DUP2 MSTORE PUSH1 0x3 PUSH1 0x20 DUP2 DUP2 MSTORE PUSH1 0x40 DUP1 DUP5 KECCAK256 DUP1 SLOAD PUSH1 0x4 DUP3 ADD SLOAD PUSH1 0x5 DUP4 ADD SLOAD PUSH1 0x6 DUP5 ADD SLOAD PUSH1 0x7 DUP6 ADD SLOAD PUSH1 0x1 DUP7 ADD DUP1 SLOAD DUP9 MLOAD DUP2 DUP12 MUL DUP2 ADD DUP12 ADD SWAP1 SWAP10 MSTORE DUP1 DUP10 MSTORE PUSH1 0x60 SWAP11 DUP12 SWAP11 DUP12 SWAP11 DUP15 SWAP11 DUP12 SWAP11 DUP12 SWAP11 DUP12 SWAP11 SWAP3 SWAP10 PUSH1 0x1 PUSH1 0x1 PUSH1 0xA0 SHL SUB SWAP1 SWAP3 AND SWAP9 PUSH1 0x2 DUP12 ADD SWAP8 SWAP7 DUP12 ADD SWAP7 SWAP2 SWAP6 PUSH1 0xFF SWAP1 SWAP5 AND SWAP5 SWAP3 SWAP4 SWAP1 SWAP3 SWAP2 DUP10 SWAP2 DUP4 ADD DUP3 DUP3 DUP1 ISZERO PUSH2 0x50D JUMPI PUSH1 0x20 MUL DUP3 ADD SWAP2 SWAP1 PUSH1 0x0 MSTORE PUSH1 0x20 PUSH1 0x0 KECCAK256 SWAP1 JUMPDEST DUP2 SLOAD PUSH1 0x1 PUSH1 0x1 PUSH1 0xA0 SHL SUB AND DUP2 MSTORE PUSH1 0x1 SWAP1 SWAP2 ADD SWAP1 PUSH1 0x20 ADD DUP1 DUP4 GT PUSH2 0x4EF JUMPI JUMPDEST POP POP POP POP POP SWAP7 POP DUP6 DUP1 SLOAD DUP1 PUSH1 0x20 MUL PUSH1 0x20 ADD PUSH1 0x40 MLOAD SWAP1 DUP2 ADD PUSH1 0x40 MSTORE DUP1 SWAP3 SWAP2 SWAP1 DUP2 DUP2 MSTORE PUSH1 0x20 ADD DUP3 DUP1 SLOAD DUP1 ISZERO PUSH2 0x55F JUMPI PUSH1 0x20 MUL DUP3 ADD SWAP2 SWAP1 PUSH1 0x0 MSTORE PUSH1 0x20 PUSH1 0x0 KECCAK256 SWAP1 JUMPDEST DUP2 SLOAD DUP2 MSTORE PUSH1 0x20 ADD SWAP1 PUSH1 0x1 ADD SWAP1 DUP1 DUP4 GT PUSH2 0x54B JUMPI JUMPDEST POP POP POP POP POP SWAP6 POP DUP5 DUP1 SLOAD PUSH2 0x572 SWAP1 PUSH2 0x157F JUMP JUMPDEST DUP1 PUSH1 0x1F ADD PUSH1 0x20 DUP1 SWAP2 DIV MUL PUSH1 0x20 ADD PUSH1 0x40 MLOAD SWAP1 DUP2 ADD PUSH1 0x40 MSTORE DUP1 SWAP3 SWAP2 SWAP1 DUP2 DUP2 MSTORE PUSH1 0x20 ADD DUP3 DUP1 SLOAD PUSH2 0x59E SWAP1 PUSH2 0x157F JUMP JUMPDEST DUP1 ISZERO PUSH2 0x5EB JUMPI DUP1 PUSH1 0x1F LT PUSH2 0x5C0 JUMPI PUSH2 0x100 DUP1 DUP4 SLOAD DIV MUL DUP4 MSTORE SWAP2 PUSH1 0x20 ADD SWAP2 PUSH2 0x5EB JUMP JUMPDEST DUP3 ADD SWAP2 SWAP1 PUSH1 0x0 MSTORE PUSH1 0x20 PUSH1 0x0 KECCAK256 SWAP1 JUMPDEST DUP2 SLOAD DUP2 MSTORE SWAP1 PUSH1 0x1 ADD SWAP1 PUSH1 0x20 ADD DUP1 DUP4 GT PUSH2 0x5CE JUMPI DUP3 SWAP1 SUB PUSH1 0x1F AND DUP3 ADD SWAP2 JUMPDEST POP POP POP POP POP SWAP5 POP SWAP9 POP SWAP9 POP SWAP9 POP SWAP9 POP SWAP9 POP SWAP9 POP SWAP9 POP SWAP9 POP POP SWAP2 SWAP4 SWAP6 SWAP8 POP SWAP2 SWAP4 SWAP6 SWAP8 JUMP JUMPDEST PUSH1 0x1 PUSH1 0x1 PUSH1 0xA0 SHL SUB DUP2 AND CALLER EQ PUSH2 0x637 JUMPI PUSH1 0x40 MLOAD PUSH4 0x334BD919 PUSH1 0xE1 SHL DUP2 MSTORE PUSH1 0x4 ADD PUSH1 0x40 MLOAD DUP1 SWAP2 SUB SWAP1 REVERT JUMPDEST PUSH2 0x641 DUP3 DUP3 PUSH2 0x1005 JUMP JUMPDEST POP POP POP JUMP JUMPDEST PUSH1 0x0 DUP1 MLOAD PUSH1 0x20 PUSH2 0x17BA DUP4 CODECOPY DUP2 MLOAD SWAP2 MSTORE PUSH2 0x65E DUP2 PUSH2 0xF66 JUMP JUMPDEST PUSH1 0x1 SLOAD PUSH1 0x1 PUSH1 0xA0 SHL SWAP1 DIV PUSH1 0xFF AND PUSH2 0x6B5 JUMPI PUSH1 0x40 MLOAD PUSH3 0x461BCD PUSH1 0xE5 SHL DUP2 MSTORE PUSH1 0x20 PUSH1 0x4 DUP3 ADD MSTORE PUSH1 0x16 PUSH1 0x24 DUP3 ADD MSTORE PUSH22 0x10DBDB9D1C9858DD081A5CC81B9BDD081C185D5CD959 PUSH1 0x52 SHL PUSH1 0x44 DUP3 ADD MSTORE PUSH1 0x64 ADD JUMPDEST PUSH1 0x40 MLOAD DUP1 SWAP2 SUB SWAP1 REVERT JUMPDEST PUSH1 0x1 DUP1 SLOAD PUSH1 0xFF PUSH1 0xA0 SHL NOT AND SWAP1 SSTORE PUSH1 0x40 MLOAD CALLER DUP2 MSTORE PUSH32 0x5DB9EE0A495BF2E6FF9C91A7834C1BA4FDD244A5E8AA4E537BD38AEAE4B073AA SWAP1 PUSH1 0x20 ADD JUMPDEST PUSH1 0x40 MLOAD DUP1 SWAP2 SUB SWAP1 LOG1 POP JUMP JUMPDEST PUSH1 0x0 DUP1 MLOAD PUSH1 0x20 PUSH2 0x17BA DUP4 CODECOPY DUP2 MLOAD SWAP2 MSTORE PUSH2 0x711 DUP2 PUSH2 0xF66 JUMP JUMPDEST PUSH1 0x0 DUP3 GT PUSH2 0x772 JUMPI PUSH1 0x40 MLOAD PUSH3 0x461BCD PUSH1 0xE5 SHL DUP2 MSTORE PUSH1 0x20 PUSH1 0x4 DUP3 ADD MSTORE PUSH1 0x28 PUSH1 0x24 DUP3 ADD MSTORE PUSH32 0x4D617820726563697069656E7473206D75737420626520677265617465722074 PUSH1 0x44 DUP3 ADD MSTORE PUSH8 0x68616E207A65726F PUSH1 0xC0 SHL PUSH1 0x64 DUP3 ADD MSTORE PUSH1 0x84 ADD PUSH2 0x6AC JUMP JUMPDEST PUSH1 0x4 DUP1 SLOAD SWAP1 DUP4 SWAP1 SSTORE PUSH1 0x40 DUP1 MLOAD DUP3 DUP2 MSTORE PUSH1 0x20 DUP2 ADD DUP6 SWAP1 MSTORE PUSH32 0xB010296FE6D61754E2577EF181D6F11C23E4F4FE93836511BB79364ACD791C68 SWAP2 ADD JUMPDEST PUSH1 0x40 MLOAD DUP1 SWAP2 SUB SWAP1 LOG1 POP POP POP JUMP JUMPDEST PUSH1 0x1 SLOAD PUSH1 0x0 SWAP1 PUSH1 0x1 PUSH1 0xA0 SHL SWAP1 DIV PUSH1 0xFF AND ISZERO PUSH2 0x7E6 JUMPI PUSH1 0x40 MLOAD PUSH3 0x461BCD PUSH1 0xE5 SHL DUP2 MSTORE PUSH1 0x4 ADD PUSH2 0x6AC SWAP1 PUSH2 0x15B9 JUMP JUMPDEST DUP6 PUSH2 0x82C JUMPI PUSH1 0x40 MLOAD PUSH3 0x461BCD PUSH1 0xE5 SHL DUP2 MSTORE PUSH1 0x20 PUSH1 0x4 DUP3 ADD MSTORE PUSH1 0x16 PUSH1 0x24 DUP3 ADD MSTORE PUSH22 0x139BC81C9958DA5C1A595B9D1CC81C1C9BDD9A591959 PUSH1 0x52 SHL PUSH1 0x44 DUP3 ADD MSTORE PUSH1 0x64 ADD PUSH2 0x6AC JUMP JUMPDEST DUP6 DUP5 EQ PUSH2 0x88A JUMPI PUSH1 0x40 MLOAD PUSH3 0x461BCD PUSH1 0xE5 SHL DUP2 MSTORE PUSH1 0x20 PUSH1 0x4 DUP3 ADD MSTORE PUSH1 0x26 PUSH1 0x24 DUP3 ADD MSTORE PUSH32 0x526563697069656E747320616E6420616D6F756E7473206C656E677468206D69 PUSH1 0x44 DUP3 ADD MSTORE PUSH6 0xE6DAC2E8C6D PUSH1 0xD3 SHL PUSH1 0x64 DUP3 ADD MSTORE PUSH1 0x84 ADD PUSH2 0x6AC JUMP JUMPDEST PUSH1 0x4 SLOAD DUP7 GT ISZERO PUSH2 0x8D2 JUMPI PUSH1 0x40 MLOAD PUSH3 0x461BCD PUSH1 0xE5 SHL DUP2 MSTORE PUSH1 0x20 PUSH1 0x4 DUP3 ADD MSTORE PUSH1 0x13 PUSH1 0x24 DUP3 ADD MSTORE PUSH19 0x546F6F206D616E7920726563697069656E7473 PUSH1 0x68 SHL PUSH1 0x44 DUP3 ADD MSTORE PUSH1 0x64 ADD PUSH2 0x6AC JUMP JUMPDEST PUSH1 0x0 DUP1 JUMPDEST DUP8 DUP2 LT ISZERO PUSH2 0x9F6 JUMPI PUSH1 0x0 DUP10 DUP10 DUP4 DUP2 DUP2 LT PUSH2 0x8F2 JUMPI PUSH2 0x8F2 PUSH2 0x15E5 JUMP JUMPDEST SWAP1 POP PUSH1 0x20 MUL ADD PUSH1 0x20 DUP2 ADD SWAP1 PUSH2 0x907 SWAP2 SWAP1 PUSH2 0x15FB JUMP JUMPDEST PUSH1 0x1 PUSH1 0x1 PUSH1 0xA0 SHL SUB AND SUB PUSH2 0x95D JUMPI PUSH1 0x40 MLOAD PUSH3 0x461BCD PUSH1 0xE5 SHL DUP2 MSTORE PUSH1 0x20 PUSH1 0x4 DUP3 ADD MSTORE PUSH1 0x19 PUSH1 0x24 DUP3 ADD MSTORE PUSH32 0x496E76616C696420726563697069656E74206164647265737300000000000000 PUSH1 0x44 DUP3 ADD MSTORE PUSH1 0x64 ADD PUSH2 0x6AC JUMP JUMPDEST PUSH1 0x5 SLOAD DUP8 DUP8 DUP4 DUP2 DUP2 LT PUSH2 0x972 JUMPI PUSH2 0x972 PUSH2 0x15E5 JUMP JUMPDEST SWAP1 POP PUSH1 0x20 MUL ADD CALLDATALOAD LT ISZERO PUSH2 0x9BE JUMPI PUSH1 0x40 MLOAD PUSH3 0x461BCD PUSH1 0xE5 SHL DUP2 MSTORE PUSH1 0x20 PUSH1 0x4 DUP3 ADD MSTORE PUSH1 0x14 PUSH1 0x24 DUP3 ADD MSTORE PUSH20 0x416D6F756E742062656C6F77206D696E696D756D PUSH1 0x60 SHL PUSH1 0x44 DUP3 ADD MSTORE PUSH1 0x64 ADD PUSH2 0x6AC JUMP JUMPDEST DUP7 DUP7 DUP3 DUP2 DUP2 LT PUSH2 0x9D0 JUMPI PUSH2 0x9D0 PUSH2 0x15E5 JUMP JUMPDEST SWAP1 POP PUSH1 0x20 MUL ADD CALLDATALOAD DUP3 PUSH2 0x9E2 SWAP2 SWAP1 PUSH2 0x162C JUMP JUMPDEST SWAP2 POP DUP1 PUSH2 0x9EE DUP2 PUSH2 0x163F JUMP JUMPDEST SWAP2 POP POP PUSH2 0x8D6 JUMP JUMPDEST POP PUSH1 0x0 DUP2 GT PUSH2 0xA56 JUMPI PUSH1 0x40 MLOAD PUSH3 0x461BCD PUSH1 0xE5 SHL DUP2 MSTORE PUSH1 0x20 PUSH1 0x4 DUP3 ADD MSTORE PUSH1 0x26 PUSH1 0x24 DUP3 ADD MSTORE PUSH32 0x546F74616C20616D6F756E74206D757374206265206772656174657220746861 PUSH1 0x44 DUP3 ADD MSTORE PUSH6 0x6E207A65726F PUSH1 0xD0 SHL PUSH1 0x64 DUP3 ADD MSTORE PUSH1 0x84 ADD PUSH2 0x6AC JUMP JUMPDEST PUSH1 0x2 DUP1 SLOAD PUSH1 0x0 SWAP2 DUP3 PUSH2 0xA67 DUP4 PUSH2 0x163F JUMP JUMPDEST SWAP2 SWAP1 POP SSTORE SWAP3 POP PUSH1 0x40 MLOAD DUP1 PUSH2 0x100 ADD PUSH1 0x40 MSTORE DUP1 CALLER PUSH1 0x1 PUSH1 0x1 PUSH1 0xA0 SHL SUB AND DUP2 MSTORE PUSH1 0x20 ADD DUP11 DUP11 DUP1 DUP1 PUSH1 0x20 MUL PUSH1 0x20 ADD PUSH1 0x40 MLOAD SWAP1 DUP2 ADD PUSH1 0x40 MSTORE DUP1 SWAP4 SWAP3 SWAP2 SWAP1 DUP2 DUP2 MSTORE PUSH1 0x20 ADD DUP4 DUP4 PUSH1 0x20 MUL DUP1 DUP3 DUP5 CALLDATACOPY PUSH1 0x0 SWAP3 ADD SWAP2 SWAP1 SWAP2 MSTORE POP POP POP SWAP1 DUP3 MSTORE POP PUSH1 0x40 DUP1 MLOAD PUSH1 0x20 DUP11 DUP2 MUL DUP3 DUP2 ADD DUP3 ADD SWAP1 SWAP4 MSTORE DUP11 DUP3 MSTORE SWAP3 DUP4 ADD SWAP3 SWAP1 SWAP2 DUP12 SWAP2 DUP12 SWAP2 DUP3 SWAP2 DUP6 ADD SWAP1 DUP5 SWAP1 DUP1 DUP3 DUP5 CALLDATACOPY PUSH1 0x0 SWAP3 ADD SWAP2 SWAP1 SWAP2 MSTORE POP POP POP SWAP1 DUP3 MSTORE POP PUSH1 0x40 DUP1 MLOAD PUSH1 0x20 PUSH1 0x1F DUP10 ADD DUP2 SWAP1 DIV DUP2 MUL DUP3 ADD DUP2 ADD SWAP1 SWAP3 MSTORE DUP8 DUP2 MSTORE SWAP2 DUP2 ADD SWAP2 SWAP1 DUP9 SWAP1 DUP9 SWAP1 DUP2 SWAP1 DUP5 ADD DUP4 DUP3 DUP1 DUP3 DUP5 CALLDATACOPY PUSH1 0x0 SWAP3 ADD DUP3 SWAP1 MSTORE POP SWAP4 DUP6 MSTORE POP POP TIMESTAMP PUSH1 0x20 DUP1 DUP6 ADD SWAP2 SWAP1 SWAP2 MSTORE PUSH1 0x40 DUP1 DUP6 ADD DUP5 SWAP1 MSTORE PUSH1 0x60 DUP6 ADD DUP9 SWAP1 MSTORE PUSH1 0x80 SWAP1 SWAP5 ADD DUP7 SWAP1 MSTORE DUP8 DUP4 MSTORE PUSH1 0x3 DUP2 MSTORE SWAP3 SWAP1 SWAP2 KECCAK256 DUP4 MLOAD DUP2 SLOAD PUSH1 0x1 PUSH1 0x1 PUSH1 0xA0 SHL SUB NOT AND PUSH1 0x1 PUSH1 0x1 PUSH1 0xA0 SHL SUB SWAP1 SWAP2 AND OR DUP2 SSTORE DUP4 DUP4 ADD MLOAD DUP1 MLOAD SWAP2 SWAP4 PUSH2 0xB91 SWAP4 POP PUSH1 0x1 DUP6 ADD SWAP3 SWAP2 ADD SWAP1 PUSH2 0x11B6 JUMP JUMPDEST POP PUSH1 0x40 DUP3 ADD MLOAD DUP1 MLOAD PUSH2 0xBAD SWAP2 PUSH1 0x2 DUP5 ADD SWAP2 PUSH1 0x20 SWAP1 SWAP2 ADD SWAP1 PUSH2 0x121B JUMP JUMPDEST POP PUSH1 0x60 DUP3 ADD MLOAD PUSH1 0x3 DUP3 ADD SWAP1 PUSH2 0xBC2 SWAP1 DUP3 PUSH2 0x16BC JUMP JUMPDEST POP PUSH1 0x80 DUP3 ADD MLOAD PUSH1 0x4 DUP3 ADD SSTORE PUSH1 0xA0 DUP3 ADD MLOAD PUSH1 0x5 DUP3 ADD DUP1 SLOAD PUSH1 0xFF NOT AND SWAP2 ISZERO ISZERO SWAP2 SWAP1 SWAP2 OR SWAP1 SSTORE PUSH1 0xC0 DUP3 ADD MLOAD PUSH1 0x6 DUP3 ADD SSTORE PUSH1 0xE0 SWAP1 SWAP2 ADD MLOAD PUSH1 0x7 SWAP1 SWAP2 ADD SSTORE PUSH2 0xC1E CALLER ADDRESS PUSH2 0xC0A DUP5 DUP7 PUSH2 0x162C JUMP JUMPDEST PUSH1 0x1 SLOAD PUSH1 0x1 PUSH1 0x1 PUSH1 0xA0 SHL SUB AND SWAP3 SWAP2 SWAP1 PUSH2 0x1070 JUMP JUMPDEST CALLER PUSH1 0x1 PUSH1 0x1 PUSH1 0xA0 SHL SUB AND DUP4 PUSH32 0x3E4CC587D6C58F63180EA4DE590B290DB14F1118BFD79D8499E8C21F99ECEF3C DUP5 DUP5 DUP10 DUP10 PUSH1 0x40 MLOAD PUSH2 0xC5E SWAP5 SWAP4 SWAP3 SWAP2 SWAP1 PUSH2 0x177C JUMP JUMPDEST PUSH1 0x40 MLOAD DUP1 SWAP2 SUB SWAP1 LOG3 POP POP SWAP7 SWAP6 POP POP POP POP POP POP JUMP JUMPDEST PUSH1 0x1 SLOAD PUSH1 0x1 PUSH1 0xA0 SHL SWAP1 DIV PUSH1 0xFF AND ISZERO PUSH2 0xC9C JUMPI PUSH1 0x40 MLOAD PUSH3 0x461BCD PUSH1 0xE5 SHL DUP2 MSTORE PUSH1 0x4 ADD PUSH2 0x6AC SWAP1 PUSH2 0x15B9 JUMP JUMPDEST PUSH32 0x97667070C54EF182B0F5858B034BEAC1B6F3089AA2D3188BB1E8929F4FA9B929 PUSH2 0xCC6 DUP2 PUSH2 0xF66 JUMP JUMPDEST PUSH1 0x0 DUP3 DUP2 MSTORE PUSH1 0x3 PUSH1 0x20 MSTORE PUSH1 0x40 SWAP1 KECCAK256 PUSH1 0x5 DUP2 ADD SLOAD PUSH1 0xFF AND ISZERO PUSH2 0xD29 JUMPI PUSH1 0x40 MLOAD PUSH3 0x461BCD PUSH1 0xE5 SHL DUP2 MSTORE PUSH1 0x20 PUSH1 0x4 DUP3 ADD MSTORE PUSH1 0x17 PUSH1 0x24 DUP3 ADD MSTORE PUSH32 0x426174636820616C72656164792070726F636573736564000000000000000000 PUSH1 0x44 DUP3 ADD MSTORE PUSH1 0x64 ADD PUSH2 0x6AC JUMP JUMPDEST DUP1 SLOAD PUSH1 0x1 PUSH1 0x1 PUSH1 0xA0 SHL SUB AND PUSH2 0xD77 JUMPI PUSH1 0x40 MLOAD PUSH3 0x461BCD PUSH1 0xE5 SHL DUP2 MSTORE PUSH1 0x20 PUSH1 0x4 DUP3 ADD MSTORE PUSH1 0x14 PUSH1 0x24 DUP3 ADD MSTORE PUSH20 0x10985D18DA08191BD95CC81B9BDD08195E1A5CDD PUSH1 0x62 SHL PUSH1 0x44 DUP3 ADD MSTORE PUSH1 0x64 ADD PUSH2 0x6AC JUMP JUMPDEST PUSH1 0x5 DUP2 ADD DUP1 SLOAD PUSH1 0xFF NOT AND PUSH1 0x1 OR SWAP1 SSTORE PUSH1 0x0 JUMPDEST PUSH1 0x1 DUP3 ADD SLOAD DUP2 LT ISZERO PUSH2 0xE0C JUMPI PUSH2 0xDFA DUP3 PUSH1 0x1 ADD DUP3 DUP2 SLOAD DUP2 LT PUSH2 0xDAD JUMPI PUSH2 0xDAD PUSH2 0x15E5 JUMP JUMPDEST PUSH1 0x0 SWAP2 DUP3 MSTORE PUSH1 0x20 SWAP1 SWAP2 KECCAK256 ADD SLOAD PUSH1 0x2 DUP5 ADD DUP1 SLOAD PUSH1 0x1 PUSH1 0x1 PUSH1 0xA0 SHL SUB SWAP1 SWAP3 AND SWAP2 DUP5 SWAP1 DUP2 LT PUSH2 0xDDB JUMPI PUSH2 0xDDB PUSH2 0x15E5 JUMP JUMPDEST PUSH1 0x0 SWAP2 DUP3 MSTORE PUSH1 0x20 SWAP1 SWAP2 KECCAK256 ADD SLOAD PUSH1 0x1 SLOAD PUSH1 0x1 PUSH1 0x1 PUSH1 0xA0 SHL SUB AND SWAP2 SWAP1 PUSH2 0x10D7 JUMP JUMPDEST DUP1 PUSH2 0xE04 DUP2 PUSH2 0x163F JUMP JUMPDEST SWAP2 POP POP PUSH2 0xD89 JUMP JUMPDEST POP PUSH1 0x40 MLOAD DUP4 SWAP1 PUSH32 0x1C0D9EB91668154163BAE8692F4199EE9C1AAA2FB6865879965D76606F4EB8A7 SWAP1 PUSH1 0x0 SWAP1 LOG2 POP POP POP JUMP JUMPDEST PUSH1 0x0 DUP1 MLOAD PUSH1 0x20 PUSH2 0x17BA DUP4 CODECOPY DUP2 MLOAD SWAP2 MSTORE PUSH2 0xE55 DUP2 PUSH2 0xF66 JUMP JUMPDEST PUSH1 0x1 SLOAD PUSH1 0x1 PUSH1 0xA0 SHL SWAP1 DIV PUSH1 0xFF AND ISZERO PUSH2 0xE7F JUMPI PUSH1 0x40 MLOAD PUSH3 0x461BCD PUSH1 0xE5 SHL DUP2 MSTORE PUSH1 0x4 ADD PUSH2 0x6AC SWAP1 PUSH2 0x15B9 JUMP JUMPDEST PUSH1 0x1 DUP1 SLOAD PUSH1 0xFF PUSH1 0xA0 SHL NOT AND PUSH1 0x1 PUSH1 0xA0 SHL OR SWAP1 SSTORE PUSH1 0x40 MLOAD CALLER DUP2 MSTORE PUSH32 0x62E78CEA01BEE320CD4E420270B5EA74000D11B0C9F74754EBDBFC544B05A258 SWAP1 PUSH1 0x20 ADD PUSH2 0x6EE JUMP JUMPDEST PUSH1 0x0 SWAP2 DUP3 MSTORE PUSH1 0x20 DUP3 DUP2 MSTORE PUSH1 0x40 DUP1 DUP5 KECCAK256 PUSH1 0x1 PUSH1 0x1 PUSH1 0xA0 SHL SUB SWAP4 SWAP1 SWAP4 AND DUP5 MSTORE SWAP2 SWAP1 MSTORE SWAP1 KECCAK256 SLOAD PUSH1 0xFF AND SWAP1 JUMP JUMPDEST PUSH1 0x0 DUP1 MLOAD PUSH1 0x20 PUSH2 0x17BA DUP4 CODECOPY DUP2 MLOAD SWAP2 MSTORE PUSH2 0xF03 DUP2 PUSH2 0xF66 JUMP JUMPDEST PUSH1 0x5 DUP1 SLOAD SWAP1 DUP4 SWAP1 SSTORE PUSH1 0x40 DUP1 MLOAD DUP3 DUP2 MSTORE PUSH1 0x20 DUP2 ADD DUP6 SWAP1 MSTORE PUSH32 0x656A449366ED7A6C9034EEAF2C97A3CE974C5033A88215AE041E95FB9F9ADE86 SWAP2 ADD PUSH2 0x7AC JUMP JUMPDEST PUSH1 0x0 DUP3 DUP2 MSTORE PUSH1 0x20 DUP2 SWAP1 MSTORE PUSH1 0x40 SWAP1 KECCAK256 PUSH1 0x1 ADD SLOAD PUSH2 0xF5C DUP2 PUSH2 0xF66 JUMP JUMPDEST PUSH2 0x45D DUP4 DUP4 PUSH2 0x1005 JUMP JUMPDEST PUSH2 0xF70 DUP2 CALLER PUSH2 0x1108 JUMP JUMPDEST POP JUMP JUMPDEST PUSH1 0x0 PUSH2 0xF7F DUP4 DUP4 PUSH2 0xEC2 JUMP JUMPDEST PUSH2 0xFFD JUMPI PUSH1 0x0 DUP4 DUP2 MSTORE PUSH1 0x20 DUP2 DUP2 MSTORE PUSH1 0x40 DUP1 DUP4 KECCAK256 PUSH1 0x1 PUSH1 0x1 PUSH1 0xA0 SHL SUB DUP7 AND DUP5 MSTORE SWAP1 SWAP2 MSTORE SWAP1 KECCAK256 DUP1 SLOAD PUSH1 0xFF NOT AND PUSH1 0x1 OR SWAP1 SSTORE PUSH2 0xFB5 CALLER SWAP1 JUMP JUMPDEST PUSH1 0x1 PUSH1 0x1 PUSH1 0xA0 SHL SUB AND DUP3 PUSH1 0x1 PUSH1 0x1 PUSH1 0xA0 SHL SUB AND DUP5 PUSH32 0x2F8788117E7EFF1D82E926EC794901D17C78024A50270940304540A733656F0D PUSH1 0x40 MLOAD PUSH1 0x40 MLOAD DUP1 SWAP2 SUB SWAP1 LOG4 POP PUSH1 0x1 PUSH2 0x365 JUMP JUMPDEST POP PUSH1 0x0 PUSH2 0x365 JUMP JUMPDEST PUSH1 0x0 PUSH2 0x1011 DUP4 DUP4 PUSH2 0xEC2 JUMP JUMPDEST ISZERO PUSH2 0xFFD JUMPI PUSH1 0x0 DUP4 DUP2 MSTORE PUSH1 0x20 DUP2 DUP2 MSTORE PUSH1 0x40 DUP1 DUP4 KECCAK256 PUSH1 0x1 PUSH1 0x1 PUSH1 0xA0 SHL SUB DUP7 AND DUP1 DUP6 MSTORE SWAP3 MSTORE DUP1 DUP4 KECCAK256 DUP1 SLOAD PUSH1 0xFF NOT AND SWAP1 SSTORE MLOAD CALLER SWAP3 DUP7 SWAP2 PUSH32 0xF6391F5C32D9C69D2A47EA670B442974B53935D1EDC7FD64EB21E047A839171B SWAP2 SWAP1 LOG4 POP PUSH1 0x1 PUSH2 0x365 JUMP JUMPDEST PUSH1 0x40 MLOAD PUSH1 0x1 PUSH1 0x1 PUSH1 0xA0 SHL SUB DUP5 DUP2 AND PUSH1 0x24 DUP4 ADD MSTORE DUP4 DUP2 AND PUSH1 0x44 DUP4 ADD MSTORE PUSH1 0x64 DUP3 ADD DUP4 SWAP1 MSTORE PUSH2 0x45D SWAP2 DUP7 SWAP2 DUP3 AND SWAP1 PUSH4 0x23B872DD SWAP1 PUSH1 0x84 ADD JUMPDEST PUSH1 0x40 MLOAD PUSH1 0x20 DUP2 DUP4 SUB SUB DUP2 MSTORE SWAP1 PUSH1 0x40 MSTORE SWAP2 POP PUSH1 0xE0 SHL PUSH1 0x20 DUP3 ADD DUP1 MLOAD PUSH1 0x1 PUSH1 0x1 PUSH1 0xE0 SHL SUB DUP4 DUP2 DUP4 AND OR DUP4 MSTORE POP POP POP POP PUSH2 0x1145 JUMP JUMPDEST PUSH1 0x40 MLOAD PUSH1 0x1 PUSH1 0x1 PUSH1 0xA0 SHL SUB DUP4 DUP2 AND PUSH1 0x24 DUP4 ADD MSTORE PUSH1 0x44 DUP3 ADD DUP4 SWAP1 MSTORE PUSH2 0x641 SWAP2 DUP6 SWAP2 DUP3 AND SWAP1 PUSH4 0xA9059CBB SWAP1 PUSH1 0x64 ADD PUSH2 0x10A5 JUMP JUMPDEST PUSH2 0x1112 DUP3 DUP3 PUSH2 0xEC2 JUMP JUMPDEST PUSH2 0x1141 JUMPI PUSH1 0x40 MLOAD PUSH4 0xE2517D3F PUSH1 0xE0 SHL DUP2 MSTORE PUSH1 0x1 PUSH1 0x1 PUSH1 0xA0 SHL SUB DUP3 AND PUSH1 0x4 DUP3 ADD MSTORE PUSH1 0x24 DUP2 ADD DUP4 SWAP1 MSTORE PUSH1 0x44 ADD PUSH2 0x6AC JUMP JUMPDEST POP POP JUMP JUMPDEST PUSH1 0x0 DUP1 PUSH1 0x20 PUSH1 0x0 DUP5 MLOAD PUSH1 0x20 DUP7 ADD PUSH1 0x0 DUP9 GAS CALL DUP1 PUSH2 0x1168 JUMPI PUSH1 0x40 MLOAD RETURNDATASIZE PUSH1 0x0 DUP3 RETURNDATACOPY RETURNDATASIZE DUP2 REVERT JUMPDEST POP POP PUSH1 0x0 MLOAD RETURNDATASIZE SWAP2 POP DUP2 ISZERO PUSH2 0x1180 JUMPI DUP1 PUSH1 0x1 EQ ISZERO PUSH2 0x118D JUMP JUMPDEST PUSH1 0x1 PUSH1 0x1 PUSH1 0xA0 SHL SUB DUP5 AND EXTCODESIZE ISZERO JUMPDEST ISZERO PUSH2 0x45D JUMPI PUSH1 0x40 MLOAD PUSH4 0x5274AFE7 PUSH1 0xE0 SHL DUP2 MSTORE PUSH1 0x1 PUSH1 0x1 PUSH1 0xA0 SHL SUB DUP6 AND PUSH1 0x4 DUP3 ADD MSTORE PUSH1 0x24 ADD PUSH2 0x6AC JUMP JUMPDEST DUP3 DUP1 SLOAD DUP3 DUP3 SSTORE SWAP1 PUSH1 0x0 MSTORE PUSH1 0x20 PUSH1 0x0 KECCAK256 SWAP1 DUP2 ADD SWAP3 DUP3 ISZERO PUSH2 0x120B JUMPI SWAP2 PUSH1 0x20 MUL DUP3 ADD JUMPDEST DUP3 DUP2 GT ISZERO PUSH2 0x120B JUMPI DUP3 MLOAD DUP3 SLOAD PUSH1 0x1 PUSH1 0x1 PUSH1 0xA0 SHL SUB NOT AND PUSH1 0x1 PUSH1 0x1 PUSH1 0xA0 SHL SUB SWAP1 SWAP2 AND OR DUP3 SSTORE PUSH1 0x20 SWAP1 SWAP3 ADD SWAP2 PUSH1 0x1 SWAP1 SWAP2 ADD SWAP1 PUSH2 0x11D6 JUMP JUMPDEST POP PUSH2 0x1217 SWAP3 SWAP2 POP PUSH2 0x1256 JUMP JUMPDEST POP SWAP1 JUMP JUMPDEST DUP3 DUP1 SLOAD DUP3 DUP3 SSTORE SWAP1 PUSH1 0x0 MSTORE PUSH1 0x20 PUSH1 0x0 KECCAK256 SWAP1 DUP2 ADD SWAP3 DUP3 ISZERO PUSH2 0x120B JUMPI SWAP2 PUSH1 0x20 MUL DUP3 ADD JUMPDEST DUP3 DUP2 GT ISZERO PUSH2 0x120B JUMPI DUP3 MLOAD DUP3 SSTORE SWAP2 PUSH1 0x20 ADD SWAP2 SWAP1 PUSH1 0x1 ADD SWAP1 PUSH2 0x123B JUMP JUMPDEST JUMPDEST DUP1 DUP3 GT ISZERO PUSH2 0x1217 JUMPI PUSH1 0x0 DUP2 SSTORE PUSH1 0x1 ADD PUSH2 0x1257 JUMP JUMPDEST PUSH1 0x0 PUSH1 0x20 DUP3 DUP5 SUB SLT ISZERO PUSH2 0x127D JUMPI PUSH1 0x0 DUP1 REVERT JUMPDEST DUP2 CALLDATALOAD PUSH1 0x1 PUSH1 0x1 PUSH1 0xE0 SHL SUB NOT DUP2 AND DUP2 EQ PUSH2 0x1295 JUMPI PUSH1 0x0 DUP1 REVERT JUMPDEST SWAP4 SWAP3 POP POP POP JUMP JUMPDEST PUSH1 0x0 PUSH1 0x20 DUP3 DUP5 SUB SLT ISZERO PUSH2 0x12AE JUMPI PUSH1 0x0 DUP1 REVERT JUMPDEST POP CALLDATALOAD SWAP2 SWAP1 POP JUMP JUMPDEST PUSH1 0x0 DUP2 MLOAD DUP1 DUP5 MSTORE PUSH1 0x0 JUMPDEST DUP2 DUP2 LT ISZERO PUSH2 0x12DB JUMPI PUSH1 0x20 DUP2 DUP6 ADD DUP2 ADD MLOAD DUP7 DUP4 ADD DUP3 ADD MSTORE ADD PUSH2 0x12BF JUMP JUMPDEST POP PUSH1 0x0 PUSH1 0x20 DUP3 DUP7 ADD ADD MSTORE PUSH1 0x20 PUSH1 0x1F NOT PUSH1 0x1F DUP4 ADD AND DUP6 ADD ADD SWAP2 POP POP SWAP3 SWAP2 POP POP JUMP JUMPDEST PUSH1 0x1 PUSH1 0x1 PUSH1 0xA0 SHL SUB DUP8 AND DUP2 MSTORE PUSH1 0xC0 PUSH1 0x20 DUP3 ADD DUP2 SWAP1 MSTORE PUSH1 0x0 SWAP1 PUSH2 0x131F SWAP1 DUP4 ADD DUP9 PUSH2 0x12B5 JUMP JUMPDEST PUSH1 0x40 DUP4 ADD SWAP7 SWAP1 SWAP7 MSTORE POP SWAP3 ISZERO ISZERO PUSH1 0x60 DUP5 ADD MSTORE PUSH1 0x80 DUP4 ADD SWAP2 SWAP1 SWAP2 MSTORE PUSH1 0xA0 SWAP1 SWAP2 ADD MSTORE SWAP3 SWAP2 POP POP JUMP JUMPDEST DUP1 CALLDATALOAD PUSH1 0x1 PUSH1 0x1 PUSH1 0xA0 SHL SUB DUP2 AND DUP2 EQ PUSH2 0x135B JUMPI PUSH1 0x0 DUP1 REVERT JUMPDEST SWAP2 SWAP1 POP JUMP JUMPDEST PUSH1 0x0 DUP1 PUSH1 0x40 DUP4 DUP6 SUB SLT ISZERO PUSH2 0x1373 JUMPI PUSH1 0x0 DUP1 REVERT JUMPDEST DUP3 CALLDATALOAD SWAP2 POP PUSH2 0x1383 PUSH1 0x20 DUP5 ADD PUSH2 0x1344 JUMP JUMPDEST SWAP1 POP SWAP3 POP SWAP3 SWAP1 POP JUMP JUMPDEST PUSH1 0x0 DUP2 MLOAD DUP1 DUP5 MSTORE PUSH1 0x20 DUP1 DUP6 ADD SWAP5 POP DUP1 DUP5 ADD PUSH1 0x0 JUMPDEST DUP4 DUP2 LT ISZERO PUSH2 0x13BC JUMPI DUP2 MLOAD DUP8 MSTORE SWAP6 DUP3 ADD SWAP6 SWAP1 DUP3 ADD SWAP1 PUSH1 0x1 ADD PUSH2 0x13A0 JUMP JUMPDEST POP SWAP5 SWAP6 SWAP5 POP POP POP POP POP JUMP JUMPDEST PUSH1 0x1 PUSH1 0x1 PUSH1 0xA0 SHL SUB DUP10 DUP2 AND DUP3 MSTORE PUSH2 0x100 PUSH1 0x20 DUP1 DUP5 ADD DUP3 SWAP1 MSTORE DUP11 MLOAD SWAP2 DUP5 ADD DUP3 SWAP1 MSTORE PUSH1 0x0 SWAP3 PUSH2 0x120 DUP6 ADD SWAP3 DUP13 DUP4 ADD SWAP3 SWAP1 DUP6 JUMPDEST DUP2 DUP2 LT ISZERO PUSH2 0x1415 JUMPI DUP5 MLOAD DUP5 AND DUP7 MSTORE SWAP5 DUP3 ADD SWAP5 SWAP4 DUP3 ADD SWAP4 PUSH1 0x1 ADD PUSH2 0x13F7 JUMP JUMPDEST POP POP POP POP POP DUP3 DUP2 SUB PUSH1 0x40 DUP5 ADD MSTORE PUSH2 0x142C DUP2 DUP11 PUSH2 0x138C JUMP JUMPDEST SWAP1 POP DUP3 DUP2 SUB PUSH1 0x60 DUP5 ADD MSTORE PUSH2 0x1440 DUP2 DUP10 PUSH2 0x12B5 JUMP JUMPDEST SWAP2 POP POP DUP6 PUSH1 0x80 DUP4 ADD MSTORE PUSH2 0x1457 PUSH1 0xA0 DUP4 ADD DUP7 ISZERO ISZERO SWAP1 MSTORE JUMP JUMPDEST PUSH1 0xC0 DUP3 ADD SWAP4 SWAP1 SWAP4 MSTORE PUSH1 0xE0 ADD MSTORE SWAP7 SWAP6 POP POP POP POP POP POP JUMP JUMPDEST PUSH1 0x0 DUP1 DUP4 PUSH1 0x1F DUP5 ADD SLT PUSH2 0x147F JUMPI PUSH1 0x0 DUP1 REVERT JUMPDEST POP DUP2 CALLDATALOAD PUSH8 0xFFFFFFFFFFFFFFFF DUP2 GT ISZERO PUSH2 0x1497 JUMPI PUSH1 0x0 DUP1 REVERT JUMPDEST PUSH1 0x20 DUP4 ADD SWAP2 POP DUP4 PUSH1 0x20 DUP3 PUSH1 0x5 SHL DUP6 ADD ADD GT ISZERO PUSH2 0x14B2 JUMPI PUSH1 0x0 DUP1 REVERT JUMPDEST SWAP3 POP SWAP3 SWAP1 POP JUMP JUMPDEST PUSH1 0x0 DUP1 PUSH1 0x0 DUP1 PUSH1 0x0 DUP1 PUSH1 0x60 DUP8 DUP10 SUB SLT ISZERO PUSH2 0x14D2 JUMPI PUSH1 0x0 DUP1 REVERT JUMPDEST DUP7 CALLDATALOAD PUSH8 0xFFFFFFFFFFFFFFFF DUP1 DUP3 GT ISZERO PUSH2 0x14EA JUMPI PUSH1 0x0 DUP1 REVERT JUMPDEST PUSH2 0x14F6 DUP11 DUP4 DUP12 ADD PUSH2 0x146D JUMP JUMPDEST SWAP1 SWAP9 POP SWAP7 POP PUSH1 0x20 DUP10 ADD CALLDATALOAD SWAP2 POP DUP1 DUP3 GT ISZERO PUSH2 0x150F JUMPI PUSH1 0x0 DUP1 REVERT JUMPDEST PUSH2 0x151B DUP11 DUP4 DUP12 ADD PUSH2 0x146D JUMP JUMPDEST SWAP1 SWAP7 POP SWAP5 POP PUSH1 0x40 DUP10 ADD CALLDATALOAD SWAP2 POP DUP1 DUP3 GT ISZERO PUSH2 0x1534 JUMPI PUSH1 0x0 DUP1 REVERT JUMPDEST DUP2 DUP10 ADD SWAP2 POP DUP10 PUSH1 0x1F DUP4 ADD SLT PUSH2 0x1548 JUMPI PUSH1 0x0 DUP1 REVERT JUMPDEST DUP2 CALLDATALOAD DUP2 DUP2 GT ISZERO PUSH2 0x1557 JUMPI PUSH1 0x0 DUP1 REVERT JUMPDEST DUP11 PUSH1 0x20 DUP3 DUP6 ADD ADD GT ISZERO PUSH2 0x1569 JUMPI PUSH1 0x0 DUP1 REVERT JUMPDEST PUSH1 0x20 DUP4 ADD SWAP5 POP DUP1 SWAP4 POP POP POP POP SWAP3 SWAP6 POP SWAP3 SWAP6 POP SWAP3 SWAP6 JUMP JUMPDEST PUSH1 0x1 DUP2 DUP2 SHR SWAP1 DUP3 AND DUP1 PUSH2 0x1593 JUMPI PUSH1 0x7F DUP3 AND SWAP2 POP JUMPDEST PUSH1 0x20 DUP3 LT DUP2 SUB PUSH2 0x15B3 JUMPI PUSH4 0x4E487B71 PUSH1 0xE0 SHL PUSH1 0x0 MSTORE PUSH1 0x22 PUSH1 0x4 MSTORE PUSH1 0x24 PUSH1 0x0 REVERT JUMPDEST POP SWAP2 SWAP1 POP JUMP JUMPDEST PUSH1 0x20 DUP1 DUP3 MSTORE PUSH1 0x12 SWAP1 DUP3 ADD MSTORE PUSH18 0x10DBDB9D1C9858DD081A5CC81C185D5CD959 PUSH1 0x72 SHL PUSH1 0x40 DUP3 ADD MSTORE PUSH1 0x60 ADD SWAP1 JUMP JUMPDEST PUSH4 0x4E487B71 PUSH1 0xE0 SHL PUSH1 0x0 MSTORE PUSH1 0x32 PUSH1 0x4 MSTORE PUSH1 0x24 PUSH1 0x0 REVERT JUMPDEST PUSH1 0x0 PUSH1 0x20 DUP3 DUP5 SUB SLT ISZERO PUSH2 0x160D JUMPI PUSH1 0x0 DUP1 REVERT JUMPDEST PUSH2 0x1295 DUP3 PUSH2 0x1344 JUMP JUMPDEST PUSH4 0x4E487B71 PUSH1 0xE0 SHL PUSH1 0x0 MSTORE PUSH1 0x11 PUSH1 0x4 MSTORE PUSH1 0x24 PUSH1 0x0 REVERT JUMPDEST DUP1 DUP3 ADD DUP1 DUP3 GT ISZERO PUSH2 0x365 JUMPI PUSH2 0x365 PUSH2 0x1616 JUMP JUMPDEST PUSH1 0x0 PUSH1 0x1 DUP3 ADD PUSH2 0x1651 JUMPI PUSH2 0x1651 PUSH2 0x1616 JUMP JUMPDEST POP PUSH1 0x1 ADD SWAP1 JUMP JUMPDEST PUSH4 0x4E487B71 PUSH1 0xE0 SHL PUSH1 0x0 MSTORE PUSH1 0x41 PUSH1 0x4 MSTORE PUSH1 0x24 PUSH1 0x0 REVERT JUMPDEST PUSH1 0x1F DUP3 GT ISZERO PUSH2 0x641 JUMPI PUSH1 0x0 DUP2 DUP2 MSTORE PUSH1 0x20 DUP2 KECCAK256 PUSH1 0x1F DUP6 ADD PUSH1 0x5 SHR DUP2 ADD PUSH1 0x20 DUP7 LT ISZERO PUSH2 0x1695 JUMPI POP DUP1 JUMPDEST PUSH1 0x1F DUP6 ADD PUSH1 0x5 SHR DUP3 ADD SWAP2 POP JUMPDEST DUP2 DUP2 LT ISZERO PUSH2 0x16B4 JUMPI DUP3 DUP2 SSTORE PUSH1 0x1 ADD PUSH2 0x16A1 JUMP JUMPDEST POP POP POP POP POP POP JUMP JUMPDEST DUP2 MLOAD PUSH8 0xFFFFFFFFFFFFFFFF DUP2 GT ISZERO PUSH2 0x16D6 JUMPI PUSH2 0x16D6 PUSH2 0x1658 JUMP JUMPDEST PUSH2 0x16EA DUP2 PUSH2 0x16E4 DUP5 SLOAD PUSH2 0x157F JUMP JUMPDEST DUP5 PUSH2 0x166E JUMP JUMPDEST PUSH1 0x20 DUP1 PUSH1 0x1F DUP4 GT PUSH1 0x1 DUP2 EQ PUSH2 0x171F JUMPI PUSH1 0x0 DUP5 ISZERO PUSH2 0x1707 JUMPI POP DUP6 DUP4 ADD MLOAD JUMPDEST PUSH1 0x0 NOT PUSH1 0x3 DUP7 SWAP1 SHL SHR NOT AND PUSH1 0x1 DUP6 SWAP1 SHL OR DUP6 SSTORE PUSH2 0x16B4 JUMP JUMPDEST PUSH1 0x0 DUP6 DUP2 MSTORE PUSH1 0x20 DUP2 KECCAK256 PUSH1 0x1F NOT DUP7 AND SWAP2 JUMPDEST DUP3 DUP2 LT ISZERO PUSH2 0x174E JUMPI DUP9 DUP7 ADD MLOAD DUP3 SSTORE SWAP5 DUP5 ADD SWAP5 PUSH1 0x1 SWAP1 SWAP2 ADD SWAP1 DUP5 ADD PUSH2 0x172F JUMP JUMPDEST POP DUP6 DUP3 LT ISZERO PUSH2 0x176C JUMPI DUP8 DUP6 ADD MLOAD PUSH1 0x0 NOT PUSH1 0x3 DUP9 SWAP1 SHL PUSH1 0xF8 AND SHR NOT AND DUP2 SSTORE JUMPDEST POP POP POP POP POP PUSH1 0x1 SWAP1 DUP2 SHL ADD SWAP1 SSTORE POP JUMP JUMPDEST DUP5 DUP2 MSTORE DUP4 PUSH1 0x20 DUP3 ADD MSTORE PUSH1 0x60 PUSH1 0x40 DUP3 ADD MSTORE DUP2 PUSH1 0x60 DUP3 ADD MSTORE DUP2 DUP4 PUSH1 0x80 DUP4 ADD CALLDATACOPY PUSH1 0x0 DUP2 DUP4 ADD PUSH1 0x80 SWAP1 DUP2 ADD SWAP2 SWAP1 SWAP2 MSTORE PUSH1 0x1F SWAP1 SWAP3 ADD PUSH1 0x1F NOT AND ADD ADD SWAP4 SWAP3 POP POP POP JUMP INVALID OR 0xC PUSH26 0xC7FA91EE11C6DE4D96F513FB36E59EC6D71FFDF75D7912C9DA9A PUSH9 0xCD56A2646970667358 0x22 SLT KECCAK256 0x49 EXTCODEHASH 0x2B 0x2D GASPRICE 0xE0 0x24 PUSH16 0x2E9DC40900BF42EBD885B20FC4943FB9 0x23 PUSH31 0xA84D1F70612D64736F6C63430008140033170C79C7FA91EE11C6DE4D96F513 0xFB CALLDATASIZE 0xE5 SWAP15 0xC6 0xD7 0x1F REVERT 0xF7 0x5D PUSH26 0x12C9DA9A68CD5697667070C54EF182B0F5858B034BEAC1B6F308 SWAP11 LOG2 0xD3 XOR DUP12 0xB1 0xE8 SWAP3 SWAP16 0x4F 0xA9 0xB9 0x29 "},"methodIdentifiers":{"BATCH_ADMIN_ROLE()":"7bc94800","DEFAULT_ADMIN_ROLE()":"a217fddf","OPERATOR_ROLE()":"f5b541a6","batchCount()":"06f13056","batchPayments(uint256)":"1457a872","createBatchPayment(address[],uint256[],string)":"5da84f13","getBatchPayment(uint256)":"2fcef5cc","getRoleAdmin(bytes32)":"248a9ca3","grantRole(bytes32,address)":"2f2ff15d","hasRole(bytes32,address)":"91d14854","maxRecipientsPerBatch()":"2e8b92a9","minAmountPerRecipient()":"4e4b6369","pause()":"8456cb59","paused()":"5c975abb","processBatchPayment(uint256)":"80344c24","renounceRole(bytes32,address)":"36568abe","revokeRole(bytes32,address)":"d547741f","supportsInterface(bytes4)":"01ffc9a7","tshc()":"c1198217","unpause()":"3f4ba83a","updateMaxRecipientsPerBatch(uint256)":"49e614e1","updateMinAmountPerRecipient(uint256)":"a7792cf4"}}}}}