{
  "_format": "hh-sol-artifact-1",
  "contractName": "SimpleReserve",
  "sourceName": "contracts/SimpleReserve.sol",
  "abi": [
    {
      "inputs": [
        {
          "internalType": "address",
          "name": "_tshc",
          "type": "address"
        },
        {
          "internalType": "address",
          "name": "_admin",
          "type": "address"
        }
      ],
      "stateMutability": "nonpayable",
      "type": "constructor"
    },
    {
      "inputs": [],
      "name": "AccessControlBadConfirmation",
      "type": "error"
    },
    {
      "inputs": [
        {
          "internalType": "address",
          "name": "account",
          "type": "address"
        },
        {
          "internalType": "bytes32",
          "name": "neededRole",
          "type": "bytes32"
        }
      ],
      "name": "AccessControlUnauthorizedAccount",
      "type": "error"
    },
    {
      "inputs": [
        {
          "internalType": "address",
          "name": "token",
          "type": "address"
        }
      ],
      "name": "SafeERC20FailedOperation",
      "type": "error"
    },
    {
      "anonymous": false,
      "inputs": [
        {
          "indexed": true,
          "internalType": "address",
          "name": "token",
          "type": "address"
        },
        {
          "indexed": false,
          "internalType": "uint256",
          "name": "collateralRatio",
          "type": "uint256"
        }
      ],
      "name": "CollateralAdded",
      "type": "event"
    },
    {
      "anonymous": false,
      "inputs": [
        {
          "indexed": true,
          "internalType": "address",
          "name": "user",
          "type": "address"
        },
        {
          "indexed": true,
          "internalType": "address",
          "name": "token",
          "type": "address"
        },
        {
          "indexed": false,
          "internalType": "uint256",
          "name": "amount",
          "type": "uint256"
        },
        {
          "indexed": false,
          "internalType": "uint256",
          "name": "tshcMinted",
          "type": "uint256"
        }
      ],
      "name": "CollateralDeposited",
      "type": "event"
    },
    {
      "anonymous": false,
      "inputs": [
        {
          "indexed": true,
          "internalType": "address",
          "name": "user",
          "type": "address"
        },
        {
          "indexed": true,
          "internalType": "address",
          "name": "token",
          "type": "address"
        },
        {
          "indexed": false,
          "internalType": "uint256",
          "name": "amount",
          "type": "uint256"
        },
        {
          "indexed": false,
          "internalType": "uint256",
          "name": "tshcBurned",
          "type": "uint256"
        }
      ],
      "name": "CollateralWithdrawn",
      "type": "event"
    },
    {
      "anonymous": false,
      "inputs": [
        {
          "indexed": true,
          "internalType": "bytes32",
          "name": "role",
          "type": "bytes32"
        },
        {
          "indexed": true,
          "internalType": "bytes32",
          "name": "previousAdminRole",
          "type": "bytes32"
        },
        {
          "indexed": true,
          "internalType": "bytes32",
          "name": "newAdminRole",
          "type": "bytes32"
        }
      ],
      "name": "RoleAdminChanged",
      "type": "event"
    },
    {
      "anonymous": false,
      "inputs": [
        {
          "indexed": true,
          "internalType": "bytes32",
          "name": "role",
          "type": "bytes32"
        },
        {
          "indexed": true,
          "internalType": "address",
          "name": "account",
          "type": "address"
        },
        {
          "indexed": true,
          "internalType": "address",
          "name": "sender",
          "type": "address"
        }
      ],
      "name": "RoleGranted",
      "type": "event"
    },
    {
      "anonymous": false,
      "inputs": [
        {
          "indexed": true,
          "internalType": "bytes32",
          "name": "role",
          "type": "bytes32"
        },
        {
          "indexed": true,
          "internalType": "address",
          "name": "account",
          "type": "address"
        },
        {
          "indexed": true,
          "internalType": "address",
          "name": "sender",
          "type": "address"
        }
      ],
      "name": "RoleRevoked",
      "type": "event"
    },
    {
      "inputs": [],
      "name": "DEFAULT_ADMIN_ROLE",
      "outputs": [
        {
          "internalType": "bytes32",
          "name": "",
          "type": "bytes32"
        }
      ],
      "stateMutability": "view",
      "type": "function"
    },
    {
      "inputs": [],
      "name": "OPERATOR_ROLE",
      "outputs": [
        {
          "internalType": "bytes32",
          "name": "",
          "type": "bytes32"
        }
      ],
      "stateMutability": "view",
      "type": "function"
    },
    {
      "inputs": [],
      "name": "RESERVE_ADMIN_ROLE",
      "outputs": [
        {
          "internalType": "bytes32",
          "name": "",
          "type": "bytes32"
        }
      ],
      "stateMutability": "view",
      "type": "function"
    },
    {
      "inputs": [
        {
          "internalType": "address",
          "name": "_token",
          "type": "address"
        },
        {
          "internalType": "uint256",
          "name": "_collateralRatio",
          "type": "uint256"
        }
      ],
      "name": "addCollateralAsset",
      "outputs": [],
      "stateMutability": "nonpayable",
      "type": "function"
    },
    {
      "inputs": [
        {
          "internalType": "address",
          "name": "_token",
          "type": "address"
        },
        {
          "internalType": "uint256",
          "name": "_tshcAmount",
          "type": "uint256"
        }
      ],
      "name": "burnTSHCAndWithdrawCollateral",
      "outputs": [
        {
          "internalType": "uint256",
          "name": "collateralAmount",
          "type": "uint256"
        }
      ],
      "stateMutability": "nonpayable",
      "type": "function"
    },
    {
      "inputs": [
        {
          "internalType": "address",
          "name": "",
          "type": "address"
        }
      ],
      "name": "collateralAssets",
      "outputs": [
        {
          "internalType": "bool",
          "name": "isSupported",
          "type": "bool"
        },
        {
          "internalType": "uint256",
          "name": "collateralRatio",
          "type": "uint256"
        },
        {
          "internalType": "uint256",
          "name": "totalDeposited",
          "type": "uint256"
        }
      ],
      "stateMutability": "view",
      "type": "function"
    },
    {
      "inputs": [
        {
          "internalType": "address",
          "name": "_token",
          "type": "address"
        },
        {
          "internalType": "uint256",
          "name": "_amount",
          "type": "uint256"
        }
      ],
      "name": "depositCollateralAndMintTSHC",
      "outputs": [
        {
          "internalType": "uint256",
          "name": "tshcAmount",
          "type": "uint256"
        }
      ],
      "stateMutability": "nonpayable",
      "type": "function"
    },
    {
      "inputs": [
        {
          "internalType": "bytes32",
          "name": "role",
          "type": "bytes32"
        }
      ],
      "name": "getRoleAdmin",
      "outputs": [
        {
          "internalType": "bytes32",
          "name": "",
          "type": "bytes32"
        }
      ],
      "stateMutability": "view",
      "type": "function"
    },
    {
      "inputs": [
        {
          "internalType": "bytes32",
          "name": "role",
          "type": "bytes32"
        },
        {
          "internalType": "address",
          "name": "account",
          "type": "address"
        }
      ],
      "name": "grantRole",
      "outputs": [],
      "stateMutability": "nonpayable",
      "type": "function"
    },
    {
      "inputs": [
        {
          "internalType": "bytes32",
          "name": "role",
          "type": "bytes32"
        },
        {
          "internalType": "address",
          "name": "account",
          "type": "address"
        }
      ],
      "name": "hasRole",
      "outputs": [
        {
          "internalType": "bool",
          "name": "",
          "type": "bool"
        }
      ],
      "stateMutability": "view",
      "type": "function"
    },
    {
      "inputs": [],
      "name": "minimumCollateralRatio",
      "outputs": [
        {
          "internalType": "uint256",
          "name": "",
          "type": "uint256"
        }
      ],
      "stateMutability": "view",
      "type": "function"
    },
    {
      "inputs": [
        {
          "internalType": "bytes32",
          "name": "role",
          "type": "bytes32"
        },
        {
          "internalType": "address",
          "name": "callerConfirmation",
          "type": "address"
        }
      ],
      "name": "renounceRole",
      "outputs": [],
      "stateMutability": "nonpayable",
      "type": "function"
    },
    {
      "inputs": [
        {
          "internalType": "bytes32",
          "name": "role",
          "type": "bytes32"
        },
        {
          "internalType": "address",
          "name": "account",
          "type": "address"
        }
      ],
      "name": "revokeRole",
      "outputs": [],
      "stateMutability": "nonpayable",
      "type": "function"
    },
    {
      "inputs": [
        {
          "internalType": "uint256",
          "name": "",
          "type": "uint256"
        }
      ],
      "name": "supportedCollaterals",
      "outputs": [
        {
          "internalType": "address",
          "name": "",
          "type": "address"
        }
      ],
      "stateMutability": "view",
      "type": "function"
    },
    {
      "inputs": [
        {
          "internalType": "bytes4",
          "name": "interfaceId",
          "type": "bytes4"
        }
      ],
      "name": "supportsInterface",
      "outputs": [
        {
          "internalType": "bool",
          "name": "",
          "type": "bool"
        }
      ],
      "stateMutability": "view",
      "type": "function"
    },
    {
      "inputs": [],
      "name": "tshc",
      "outputs": [
        {
          "internalType": "contract SimpleTSHC",
          "name": "",
          "type": "address"
        }
      ],
      "stateMutability": "view",
      "type": "function"
    }
  ],
  "bytecode": "0x6080604052613a986004553480156200001757600080fd5b506040516200107d3803806200107d8339810160408190526200003a9162000245565b6001600160a01b038216620000965760405162461bcd60e51b815260206004820152601b60248201527f5453484320616464726573732063616e6e6f74206265207a65726f000000000060448201526064015b60405180910390fd5b6001600160a01b038116620000ee5760405162461bcd60e51b815260206004820152601c60248201527f41646d696e20616464726573732063616e6e6f74206265207a65726f0000000060448201526064016200008d565b600180546001600160a01b0319166001600160a01b0384161790556200011660008262000179565b50620001437fcb6c915afba301a06d8c17327f1f6eec8e262e5feb9a4db38c9ac4d14eb366a38262000179565b50620001707f97667070c54ef182b0f5858b034beac1b6f3089aa2d3188bb1e8929f4fa9b9298262000179565b5050506200027d565b6000828152602081815260408083206001600160a01b038516845290915281205460ff166200021e576000838152602081815260408083206001600160a01b03861684529091529020805460ff19166001179055620001d53390565b6001600160a01b0316826001600160a01b0316847f2f8788117e7eff1d82e926ec794901d17c78024a50270940304540a733656f0d60405160405180910390a450600162000222565b5060005b92915050565b80516001600160a01b03811681146200024057600080fd5b919050565b600080604083850312156200025957600080fd5b620002648362000228565b9150620002746020840162000228565b90509250929050565b610df0806200028d6000396000f3fe608060405234801561001057600080fd5b50600436106101005760003560e01c80636a27947611610097578063c119821711610066578063c119821714610273578063d547741f14610286578063f2154cea14610299578063f5b541a6146102ac57600080fd5b80636a2794761461023c57806391d148541461024f5780639f1837ce14610262578063a217fddf1461026b57600080fd5b806336568abe116100d357806336568abe1461019e57806338cb57e8146101b157806353909727146101d857806359fd56821461022957600080fd5b806301ffc9a71461010557806303e2bb2e1461012d578063248a9ca3146101585780632f2ff15d14610189575b600080fd5b610118610113366004610c6e565b6102d3565b60405190151581526020015b60405180910390f35b61014061013b366004610c9f565b61030a565b6040516001600160a01b039091168152602001610124565b61017b610166366004610c9f565b60009081526020819052604090206001015490565b604051908152602001610124565b61019c610197366004610cd4565b610334565b005b61019c6101ac366004610cd4565b61035f565b61017b7fcb6c915afba301a06d8c17327f1f6eec8e262e5feb9a4db38c9ac4d14eb366a381565b61020c6101e6366004610d00565b600260208190526000918252604090912080546001820154919092015460ff9092169183565b604080519315158452602084019290925290820152606001610124565b61017b610237366004610d1b565b610397565b61017b61024a366004610d1b565b610579565b61011861025d366004610cd4565b6107c6565b61017b60045481565b61017b600081565b600154610140906001600160a01b031681565b61019c610294366004610cd4565b6107ef565b61019c6102a7366004610d1b565b610814565b61017b7f97667070c54ef182b0f5858b034beac1b6f3089aa2d3188bb1e8929f4fa9b92981565b60006001600160e01b03198216637965db0b60e01b148061030457506301ffc9a760e01b6001600160e01b03198316145b92915050565b6003818154811061031a57600080fd5b6000918252602090912001546001600160a01b0316905081565b60008281526020819052604090206001015461034f81610a1e565b6103598383610a2b565b50505050565b6001600160a01b03811633146103885760405163334bd91960e11b815260040160405180910390fd5b6103928282610abd565b505050565b6001600160a01b03821660009081526002602052604081205460ff166103ff5760405162461bcd60e51b815260206004820152601860248201527710dbdb1b185d195c985b081b9bdd081cdd5c1c1bdc9d195960421b60448201526064015b60405180910390fd5b6000821161044f5760405162461bcd60e51b815260206004820181905260248201527f416d6f756e74206d7573742062652067726561746572207468616e207a65726f60448201526064016103f6565b6001600160a01b03831660009081526002602052604090206001015461047783612710610d5b565b6104819190610d72565b90506104986001600160a01b038416333085610b28565b6001600160a01b038316600090815260026020819052604082200180548492906104c3908490610d94565b90915550506001546040516340c10f1960e01b8152336004820152602481018390526001600160a01b03909116906340c10f1990604401600060405180830381600087803b15801561051457600080fd5b505af1158015610528573d6000803e3d6000fd5b505060408051858152602081018590526001600160a01b03871693503392507f95d16db8c4932fcf5d6de67364791e7178ec505c7d3829a8b34d18959c01552c91015b60405180910390a392915050565b6001600160a01b03821660009081526002602052604081205460ff166105dc5760405162461bcd60e51b815260206004820152601860248201527710dbdb1b185d195c985b081b9bdd081cdd5c1c1bdc9d195960421b60448201526064016103f6565b6000821161062c5760405162461bcd60e51b815260206004820181905260248201527f416d6f756e74206d7573742062652067726561746572207468616e207a65726f60448201526064016103f6565b6001600160a01b038316600090815260026020526040902060010154612710906106569084610d5b565b6106609190610d72565b6001600160a01b038416600090815260026020819052604090912001549091508111156106da5760405162461bcd60e51b815260206004820152602260248201527f496e73756666696369656e7420636f6c6c61746572616c20696e207265736572604482015261766560f01b60648201526084016103f6565b60015460405163079cc67960e41b8152336004820152602481018490526001600160a01b03909116906379cc679090604401600060405180830381600087803b15801561072657600080fd5b505af115801561073a573d6000803e3d6000fd5b505050506001600160a01b03831660009081526002602081905260408220018054839290610769908490610da7565b9091555061078390506001600160a01b0384163383610b8f565b60408051828152602081018490526001600160a01b0385169133917f4700a5c58c58ea6536703185e43dae38bfd4158ee5330c70988f02a65562a36e910161056b565b6000918252602082815260408084206001600160a01b0393909316845291905290205460ff1690565b60008281526020819052604090206001015461080a81610a1e565b6103598383610abd565b7fcb6c915afba301a06d8c17327f1f6eec8e262e5feb9a4db38c9ac4d14eb366a361083e81610a1e565b6001600160a01b0383166108945760405162461bcd60e51b815260206004820152601c60248201527f546f6b656e20616464726573732063616e6e6f74206265207a65726f0000000060448201526064016103f6565b6001600160a01b03831660009081526002602052604090205460ff16156108fd5760405162461bcd60e51b815260206004820152601c60248201527f436f6c6c61746572616c20616c726561647920737570706f727465640000000060448201526064016103f6565b60045482101561094f5760405162461bcd60e51b815260206004820152601860248201527f436f6c6c61746572616c20726174696f20746f6f206c6f77000000000000000060448201526064016103f6565b604080516060810182526001808252602080830186815260008486018181526001600160a01b038a168083526002948590528783209651875490151560ff1990911617875592518686015551949092019390935560038054928301815590527fc2575a0e9e593c00f959f8c92f12db2869c3395a3b0502d05e2516446f71f85b0180546001600160a01b0319168217905590517f7dba1be544024070cd5eebfa8bdd80a8b198cea8058c7d3cc1f8dd36e41ab2f790610a119085815260200190565b60405180910390a2505050565b610a288133610bc0565b50565b6000610a3783836107c6565b610ab5576000838152602081815260408083206001600160a01b03861684529091529020805460ff19166001179055610a6d3390565b6001600160a01b0316826001600160a01b0316847f2f8788117e7eff1d82e926ec794901d17c78024a50270940304540a733656f0d60405160405180910390a4506001610304565b506000610304565b6000610ac983836107c6565b15610ab5576000838152602081815260408083206001600160a01b0386168085529252808320805460ff1916905551339286917ff6391f5c32d9c69d2a47ea670b442974b53935d1edc7fd64eb21e047a839171b9190a4506001610304565b6040516001600160a01b0384811660248301528381166044830152606482018390526103599186918216906323b872dd906084015b604051602081830303815290604052915060e01b6020820180516001600160e01b038381831617835250505050610bfd565b6040516001600160a01b0383811660248301526044820183905261039291859182169063a9059cbb90606401610b5d565b610bca82826107c6565b610bf95760405163e2517d3f60e01b81526001600160a01b0382166004820152602481018390526044016103f6565b5050565b600080602060008451602086016000885af180610c20576040513d6000823e3d81fd5b50506000513d91508115610c38578060011415610c45565b6001600160a01b0384163b155b1561035957604051635274afe760e01b81526001600160a01b03851660048201526024016103f6565b600060208284031215610c8057600080fd5b81356001600160e01b031981168114610c9857600080fd5b9392505050565b600060208284031215610cb157600080fd5b5035919050565b80356001600160a01b0381168114610ccf57600080fd5b919050565b60008060408385031215610ce757600080fd5b82359150610cf760208401610cb8565b90509250929050565b600060208284031215610d1257600080fd5b610c9882610cb8565b60008060408385031215610d2e57600080fd5b610d3783610cb8565b946020939093013593505050565b634e487b7160e01b600052601160045260246000fd5b808202811582820484141761030457610304610d45565b600082610d8f57634e487b7160e01b600052601260045260246000fd5b500490565b8082018082111561030457610304610d45565b8181038181111561030457610304610d4556fea26469706673582212208026cae7b3630f57d784eeab66d43d0dea587d86fc0d1bbb3202ceac6d1830f364736f6c63430008140033",
  "linkReferences": {},
  "deployedLinkReferences": {}
}