{
  "_format": "hh-sol-artifact-1",
  "contractName": "SimpleFeeManager",
  "sourceName": "contracts/SimpleFeeManager.sol",
  "abi": [
    {
      "inputs": [
        {
          "internalType": "address",
          "name": "_admin",
          "type": "address"
        },
        {
          "internalType": "address",
          "name": "_feeCollector",
          "type": "address"
        }
      ],
      "stateMutability": "nonpayable",
      "type": "constructor"
    },
    {
      "inputs": [],
      "name": "AccessControlBadConfirmation",
      "type": "error"
    },
    {
      "inputs": [
        {
          "internalType": "address",
          "name": "account",
          "type": "address"
        },
        {
          "internalType": "bytes32",
          "name": "neededRole",
          "type": "bytes32"
        }
      ],
      "name": "AccessControlUnauthorizedAccount",
      "type": "error"
    },
    {
      "anonymous": false,
      "inputs": [
        {
          "indexed": true,
          "internalType": "address",
          "name": "from",
          "type": "address"
        },
        {
          "indexed": false,
          "internalType": "uint256",
          "name": "amount",
          "type": "uint256"
        }
      ],
      "name": "FeeCollected",
      "type": "event"
    },
    {
      "anonymous": false,
      "inputs": [
        {
          "indexed": false,
          "internalType": "address",
          "name": "oldCollector",
          "type": "address"
        },
        {
          "indexed": false,
          "internalType": "address",
          "name": "newCollector",
          "type": "address"
        }
      ],
      "name": "FeeCollectorUpdated",
      "type": "event"
    },
    {
      "anonymous": false,
      "inputs": [
        {
          "indexed": true,
          "internalType": "address",
          "name": "to",
          "type": "address"
        },
        {
          "indexed": false,
          "internalType": "uint256",
          "name": "amount",
          "type": "uint256"
        }
      ],
      "name": "FeeDistributed",
      "type": "event"
    },
    {
      "anonymous": false,
      "inputs": [
        {
          "indexed": false,
          "internalType": "uint256",
          "name": "oldRate",
          "type": "uint256"
        },
        {
          "indexed": false,
          "internalType": "uint256",
          "name": "newRate",
          "type": "uint256"
        }
      ],
      "name": "FeeRateUpdated",
      "type": "event"
    },
    {
      "anonymous": false,
      "inputs": [
        {
          "indexed": false,
          "internalType": "uint256",
          "name": "oldMax",
          "type": "uint256"
        },
        {
          "indexed": false,
          "internalType": "uint256",
          "name": "newMax",
          "type": "uint256"
        }
      ],
      "name": "MaxFeeUpdated",
      "type": "event"
    },
    {
      "anonymous": false,
      "inputs": [
        {
          "indexed": false,
          "internalType": "uint256",
          "name": "oldMin",
          "type": "uint256"
        },
        {
          "indexed": false,
          "internalType": "uint256",
          "name": "newMin",
          "type": "uint256"
        }
      ],
      "name": "MinFeeUpdated",
      "type": "event"
    },
    {
      "anonymous": false,
      "inputs": [
        {
          "indexed": false,
          "internalType": "address",
          "name": "account",
          "type": "address"
        }
      ],
      "name": "Paused",
      "type": "event"
    },
    {
      "anonymous": false,
      "inputs": [
        {
          "indexed": true,
          "internalType": "bytes32",
          "name": "role",
          "type": "bytes32"
        },
        {
          "indexed": true,
          "internalType": "bytes32",
          "name": "previousAdminRole",
          "type": "bytes32"
        },
        {
          "indexed": true,
          "internalType": "bytes32",
          "name": "newAdminRole",
          "type": "bytes32"
        }
      ],
      "name": "RoleAdminChanged",
      "type": "event"
    },
    {
      "anonymous": false,
      "inputs": [
        {
          "indexed": true,
          "internalType": "bytes32",
          "name": "role",
          "type": "bytes32"
        },
        {
          "indexed": true,
          "internalType": "address",
          "name": "account",
          "type": "address"
        },
        {
          "indexed": true,
          "internalType": "address",
          "name": "sender",
          "type": "address"
        }
      ],
      "name": "RoleGranted",
      "type": "event"
    },
    {
      "anonymous": false,
      "inputs": [
        {
          "indexed": true,
          "internalType": "bytes32",
          "name": "role",
          "type": "bytes32"
        },
        {
          "indexed": true,
          "internalType": "address",
          "name": "account",
          "type": "address"
        },
        {
          "indexed": true,
          "internalType": "address",
          "name": "sender",
          "type": "address"
        }
      ],
      "name": "RoleRevoked",
      "type": "event"
    },
    {
      "anonymous": false,
      "inputs": [
        {
          "indexed": false,
          "internalType": "address",
          "name": "account",
          "type": "address"
        }
      ],
      "name": "Unpaused",
      "type": "event"
    },
    {
      "inputs": [],
      "name": "DEFAULT_ADMIN_ROLE",
      "outputs": [
        {
          "internalType": "bytes32",
          "name": "",
          "type": "bytes32"
        }
      ],
      "stateMutability": "view",
      "type": "function"
    },
    {
      "inputs": [],
      "name": "FEE_ADMIN_ROLE",
      "outputs": [
        {
          "internalType": "bytes32",
          "name": "",
          "type": "bytes32"
        }
      ],
      "stateMutability": "view",
      "type": "function"
    },
    {
      "inputs": [],
      "name": "FEE_DISTRIBUTOR_ROLE",
      "outputs": [
        {
          "internalType": "bytes32",
          "name": "",
          "type": "bytes32"
        }
      ],
      "stateMutability": "view",
      "type": "function"
    },
    {
      "inputs": [
        {
          "internalType": "uint256",
          "name": "_amount",
          "type": "uint256"
        }
      ],
      "name": "calculateFee",
      "outputs": [
        {
          "internalType": "uint256",
          "name": "fee",
          "type": "uint256"
        }
      ],
      "stateMutability": "view",
      "type": "function"
    },
    {
      "inputs": [
        {
          "internalType": "address",
          "name": "_from",
          "type": "address"
        },
        {
          "internalType": "uint256",
          "name": "_amount",
          "type": "uint256"
        }
      ],
      "name": "collectFee",
      "outputs": [],
      "stateMutability": "nonpayable",
      "type": "function"
    },
    {
      "inputs": [],
      "name": "collectedFees",
      "outputs": [
        {
          "internalType": "uint256",
          "name": "",
          "type": "uint256"
        }
      ],
      "stateMutability": "view",
      "type": "function"
    },
    {
      "inputs": [
        {
          "internalType": "contract IERC20",
          "name": "_token",
          "type": "address"
        }
      ],
      "name": "distributeFees",
      "outputs": [],
      "stateMutability": "nonpayable",
      "type": "function"
    },
    {
      "inputs": [],
      "name": "feeCollector",
      "outputs": [
        {
          "internalType": "address",
          "name": "",
          "type": "address"
        }
      ],
      "stateMutability": "view",
      "type": "function"
    },
    {
      "inputs": [
        {
          "internalType": "bytes32",
          "name": "role",
          "type": "bytes32"
        }
      ],
      "name": "getRoleAdmin",
      "outputs": [
        {
          "internalType": "bytes32",
          "name": "",
          "type": "bytes32"
        }
      ],
      "stateMutability": "view",
      "type": "function"
    },
    {
      "inputs": [
        {
          "internalType": "bytes32",
          "name": "role",
          "type": "bytes32"
        },
        {
          "internalType": "address",
          "name": "account",
          "type": "address"
        }
      ],
      "name": "grantRole",
      "outputs": [],
      "stateMutability": "nonpayable",
      "type": "function"
    },
    {
      "inputs": [
        {
          "internalType": "bytes32",
          "name": "role",
          "type": "bytes32"
        },
        {
          "internalType": "address",
          "name": "account",
          "type": "address"
        }
      ],
      "name": "hasRole",
      "outputs": [
        {
          "internalType": "bool",
          "name": "",
          "type": "bool"
        }
      ],
      "stateMutability": "view",
      "type": "function"
    },
    {
      "inputs": [],
      "name": "maxTransferFee",
      "outputs": [
        {
          "internalType": "uint256",
          "name": "",
          "type": "uint256"
        }
      ],
      "stateMutability": "view",
      "type": "function"
    },
    {
      "inputs": [],
      "name": "minTransferFee",
      "outputs": [
        {
          "internalType": "uint256",
          "name": "",
          "type": "uint256"
        }
      ],
      "stateMutability": "view",
      "type": "function"
    },
    {
      "inputs": [],
      "name": "pause",
      "outputs": [],
      "stateMutability": "nonpayable",
      "type": "function"
    },
    {
      "inputs": [],
      "name": "paused",
      "outputs": [
        {
          "internalType": "bool",
          "name": "",
          "type": "bool"
        }
      ],
      "stateMutability": "view",
      "type": "function"
    },
    {
      "inputs": [
        {
          "internalType": "bytes32",
          "name": "role",
          "type": "bytes32"
        },
        {
          "internalType": "address",
          "name": "callerConfirmation",
          "type": "address"
        }
      ],
      "name": "renounceRole",
      "outputs": [],
      "stateMutability": "nonpayable",
      "type": "function"
    },
    {
      "inputs": [
        {
          "internalType": "bytes32",
          "name": "role",
          "type": "bytes32"
        },
        {
          "internalType": "address",
          "name": "account",
          "type": "address"
        }
      ],
      "name": "revokeRole",
      "outputs": [],
      "stateMutability": "nonpayable",
      "type": "function"
    },
    {
      "inputs": [
        {
          "internalType": "bytes4",
          "name": "interfaceId",
          "type": "bytes4"
        }
      ],
      "name": "supportsInterface",
      "outputs": [
        {
          "internalType": "bool",
          "name": "",
          "type": "bool"
        }
      ],
      "stateMutability": "view",
      "type": "function"
    },
    {
      "inputs": [],
      "name": "transferFeeRate",
      "outputs": [
        {
          "internalType": "uint256",
          "name": "",
          "type": "uint256"
        }
      ],
      "stateMutability": "view",
      "type": "function"
    },
    {
      "inputs": [],
      "name": "unpause",
      "outputs": [],
      "stateMutability": "nonpayable",
      "type": "function"
    },
    {
      "inputs": [
        {
          "internalType": "address",
          "name": "_newCollector",
          "type": "address"
        }
      ],
      "name": "updateFeeCollector",
      "outputs": [],
      "stateMutability": "nonpayable",
      "type": "function"
    },
    {
      "inputs": [
        {
          "internalType": "uint256",
          "name": "_newMax",
          "type": "uint256"
        }
      ],
      "name": "updateMaxTransferFee",
      "outputs": [],
      "stateMutability": "nonpayable",
      "type": "function"
    },
    {
      "inputs": [
        {
          "internalType": "uint256",
          "name": "_newMin",
          "type": "uint256"
        }
      ],
      "name": "updateMinTransferFee",
      "outputs": [],
      "stateMutability": "nonpayable",
      "type": "function"
    },
    {
      "inputs": [
        {
          "internalType": "uint256",
          "name": "_newRate",
          "type": "uint256"
        }
      ],
      "name": "updateTransferFeeRate",
      "outputs": [],
      "stateMutability": "nonpayable",
      "type": "function"
    }
  ],
  "bytecode": "0x60806040526019600155662386f26fc1000060025568056bc75e2d631000006003553480156200002e57600080fd5b506040516200119b3803806200119b8339810160408190526200005191620002db565b6001600160a01b038216620000ad5760405162461bcd60e51b815260206004820152601c60248201527f41646d696e20616464726573732063616e6e6f74206265207a65726f0000000060448201526064015b60405180910390fd5b6001600160a01b038116620001115760405162461bcd60e51b8152602060048201526024808201527f46656520636f6c6c6563746f7220616464726573732063616e6e6f74206265206044820152637a65726f60e01b6064820152608401620000a4565b6200011e600083620001c4565b506200013a6000805160206200117b83398151915283620001c4565b50620001566000805160206200115b83398151915283620001c4565b50620001736000805160206200117b833981519152600062000273565b6200019d6000805160206200115b8339815191526000805160206200117b83398151915262000273565b600580546001600160a01b0319166001600160a01b03929092169190911790555062000313565b6000828152602081815260408083206001600160a01b038516845290915281205460ff1662000269576000838152602081815260408083206001600160a01b03861684529091529020805460ff19166001179055620002203390565b6001600160a01b0316826001600160a01b0316847f2f8788117e7eff1d82e926ec794901d17c78024a50270940304540a733656f0d60405160405180910390a45060016200026d565b5060005b92915050565b600082815260208190526040808220600101805490849055905190918391839186917fbd79b86ffe0ab8e8776151514217cd7cacd52c909f66475c3af44e129f0b00ff9190a4505050565b80516001600160a01b0381168114620002d657600080fd5b919050565b60008060408385031215620002ef57600080fd5b620002fa83620002be565b91506200030a60208401620002be565b90509250929050565b610e3880620003236000396000f3fe608060405234801561001057600080fd5b50600436106101585760003560e01c8063548d4a54116100c357806399a5d7471161007c57806399a5d747146102cb578063a217fddf146102de578063ad7dd0e9146102e6578063c415b95c146102ef578063d2c35ce81461031a578063d547741f1461032d57600080fd5b8063548d4a541461026d5780635c975abb146102805780638456cb59146102945780639003adfe1461029c57806391d14854146102a55780639413f25c146102b857600080fd5b80632f2ff15d116101155780632f2ff15d1461020e578063351bf5181461022157806336568abe1461022a5780633b8848861461023d5780633f4ba83a146102505780634cba593a1461025857600080fd5b806301ffc9a71461015d578063064cbe6e146101855780630cdac9631461019a578063243cfc52146101cf578063248a9ca3146101d85780632ec0ff6c146101fb575b600080fd5b61017061016b366004610c86565b610340565b60405190151581526020015b60405180910390f35b610198610193366004610cb7565b610377565b005b6101c17f59c7a9ef9a56707d87d116a5d27496afee2604c70b902ac2c4dbdcb68f36f2ea81565b60405190815260200161017c565b6101c160035481565b6101c16101e6366004610cb7565b60009081526020819052604090206001015490565b610198610209366004610ce5565b610439565b61019861021c366004610d11565b61053d565b6101c160015481565b610198610238366004610d11565b610568565b61019861024b366004610cb7565b6105a0565b610198610648565b6101c1600080516020610de383398151915281565b61019861027b366004610cb7565b6106f6565b60055461017090600160a01b900460ff1681565b61019861079e565b6101c160045481565b6101706102b3366004610d11565b610848565b6101986102c6366004610d41565b610871565b6101c16102d9366004610cb7565b6109f5565b6101c1600081565b6101c160025481565b600554610302906001600160a01b031681565b6040516001600160a01b03909116815260200161017c565b610198610328366004610d41565b610a46565b61019861033b366004610d11565b610b1a565b60006001600160e01b03198216637965db0b60e01b148061037157506301ffc9a760e01b6001600160e01b03198316145b92915050565b600080516020610de383398151915261038f81610b3f565b6002548210156103f25760405162461bcd60e51b815260206004820152602360248201527f4d6178206665652063616e6e6f74206265206c657373207468616e206d696e2060448201526266656560e81b60648201526084015b60405180910390fd5b600380549083905560408051828152602081018590527f55da9d9f29042024b8aad914fbf7f6bccc42cf3222745e3cbcb20eee5858880c91015b60405180910390a1505050565b600554600160a01b900460ff16156104885760405162461bcd60e51b815260206004820152601260248201527110dbdb9d1c9858dd081a5cc81c185d5cd95960721b60448201526064016103e9565b600081116104e45760405162461bcd60e51b8152602060048201526024808201527f46656520616d6f756e74206d7573742062652067726561746572207468616e206044820152637a65726f60e01b60648201526084016103e9565b80600460008282546104f69190610d74565b90915550506040518181526001600160a01b038316907f06c5efeff5c320943d265dc4e5f1af95ad523555ce0c1957e367dda5514572df9060200160405180910390a25050565b60008281526020819052604090206001015461055881610b3f565b6105628383610b4c565b50505050565b6001600160a01b03811633146105915760405163334bd91960e11b815260040160405180910390fd5b61059b8282610bde565b505050565b600080516020610de38339815191526105b881610b3f565b60035482111561060a5760405162461bcd60e51b815260206004820152601d60248201527f4d696e206665652063616e6e6f7420657863656564206d61782066656500000060448201526064016103e9565b600280549083905560408051828152602081018590527f5018b39d505f13b5bddbbd98cba44cc46858c58b32c59c13b3a66848058e67e3910161042c565b600080516020610de383398151915261066081610b3f565b600554600160a01b900460ff166106b25760405162461bcd60e51b815260206004820152601660248201527510dbdb9d1c9858dd081a5cc81b9bdd081c185d5cd95960521b60448201526064016103e9565b6005805460ff60a01b191690556040513381527f5db9ee0a495bf2e6ff9c91a7834c1ba4fdd244a5e8aa4e537bd38aeae4b073aa906020015b60405180910390a150565b600080516020610de383398151915261070e81610b3f565b6103e88211156107605760405162461bcd60e51b815260206004820152601a60248201527f46656520726174652063616e6e6f74206578636565642031302500000000000060448201526064016103e9565b600180549083905560408051828152602081018590527f14914da2bf76024616fbe1859783fcd4dbddcb179b1f3a854949fbf920dcb957910161042c565b600080516020610de38339815191526107b681610b3f565b600554600160a01b900460ff16156108055760405162461bcd60e51b815260206004820152601260248201527110dbdb9d1c9858dd081a5cc81c185d5cd95960721b60448201526064016103e9565b6005805460ff60a01b1916600160a01b1790556040513381527f62e78cea01bee320cd4e420270b5ea74000d11b0c9f74754ebdbfc544b05a258906020016106eb565b6000918252602082815260408084206001600160a01b0393909316845291905290205460ff1690565b7f59c7a9ef9a56707d87d116a5d27496afee2604c70b902ac2c4dbdcb68f36f2ea61089b81610b3f565b600454806108e35760405162461bcd60e51b81526020600482015260156024820152744e6f206665657320746f206469737472696275746560581b60448201526064016103e9565b6000600490815560055460405163a9059cbb60e01b81526001600160a01b03918216928101929092526024820183905284169063a9059cbb906044016020604051808303816000875af115801561093e573d6000803e3d6000fd5b505050506040513d601f19601f820116820180604052508101906109629190610d87565b6109ae5760405162461bcd60e51b815260206004820152601760248201527f46656520646973747269627574696f6e206661696c656400000000000000000060448201526064016103e9565b6005546040518281526001600160a01b03909116907f6c461460f28af1386f23dc4c0c7f4e2e54f0db320a8edc08803e4b787f6db3259060200160405180910390a2505050565b600061271060015483610a089190610da9565b610a129190610dc0565b9050600254811015610a275750600254610a36565b600354811115610a3657506003545b81811115610a415750805b919050565b600080516020610de3833981519152610a5e81610b3f565b6001600160a01b038216610ac05760405162461bcd60e51b8152602060048201526024808201527f46656520636f6c6c6563746f722063616e6e6f74206265207a65726f206164646044820152637265737360e01b60648201526084016103e9565b600580546001600160a01b038481166001600160a01b031983168117909355604080519190921680825260208201939093527f5d16ad41baeb009cd23eb8f6c7cde5c2e0cd5acf4a33926ab488875c37c37f38910161042c565b600082815260208190526040902060010154610b3581610b3f565b6105628383610bde565b610b498133610c49565b50565b6000610b588383610848565b610bd6576000838152602081815260408083206001600160a01b03861684529091529020805460ff19166001179055610b8e3390565b6001600160a01b0316826001600160a01b0316847f2f8788117e7eff1d82e926ec794901d17c78024a50270940304540a733656f0d60405160405180910390a4506001610371565b506000610371565b6000610bea8383610848565b15610bd6576000838152602081815260408083206001600160a01b0386168085529252808320805460ff1916905551339286917ff6391f5c32d9c69d2a47ea670b442974b53935d1edc7fd64eb21e047a839171b9190a4506001610371565b610c538282610848565b610c825760405163e2517d3f60e01b81526001600160a01b0382166004820152602481018390526044016103e9565b5050565b600060208284031215610c9857600080fd5b81356001600160e01b031981168114610cb057600080fd5b9392505050565b600060208284031215610cc957600080fd5b5035919050565b6001600160a01b0381168114610b4957600080fd5b60008060408385031215610cf857600080fd5b8235610d0381610cd0565b946020939093013593505050565b60008060408385031215610d2457600080fd5b823591506020830135610d3681610cd0565b809150509250929050565b600060208284031215610d5357600080fd5b8135610cb081610cd0565b634e487b7160e01b600052601160045260246000fd5b8082018082111561037157610371610d5e565b600060208284031215610d9957600080fd5b81518015158114610cb057600080fd5b808202811582820484141761037157610371610d5e565b600082610ddd57634e487b7160e01b600052601260045260246000fd5b50049056fe349eec46d2c564a125684d1934a6120a70cc341d3a26d362e358a775e07dec17a2646970667358221220587b7d66aaed0fefc98039a83760e0160e15ed5559c882d486b47b85f976e6ec64736f6c6343000814003359c7a9ef9a56707d87d116a5d27496afee2604c70b902ac2c4dbdcb68f36f2ea349eec46d2c564a125684d1934a6120a70cc341d3a26d362e358a775e07dec17",
  "linkReferences": {},
  "deployedLinkReferences": {}
}