{
  "_format": "hh-sol-artifact-1",
  "contractName": "SimplePaymaster",
  "sourceName": "contracts/SimplePaymaster.sol",
  "abi": [
    {
      "inputs": [
        {
          "internalType": "address",
          "name": "_tshc",
          "type": "address"
        }
      ],
      "stateMutability": "nonpayable",
      "type": "constructor"
    },
    {
      "inputs": [
        {
          "internalType": "address",
          "name": "owner",
          "type": "address"
        }
      ],
      "name": "OwnableInvalidOwner",
      "type": "error"
    },
    {
      "inputs": [
        {
          "internalType": "address",
          "name": "account",
          "type": "address"
        }
      ],
      "name": "OwnableUnauthorizedAccount",
      "type": "error"
    },
    {
      "anonymous": false,
      "inputs": [
        {
          "indexed": true,
          "internalType": "address",
          "name": "account",
          "type": "address"
        },
        {
          "indexed": false,
          "internalType": "uint256",
          "name": "amount",
          "type": "uint256"
        }
      ],
      "name": "Deposited",
      "type": "event"
    },
    {
      "anonymous": false,
      "inputs": [
        {
          "indexed": false,
          "internalType": "uint256",
          "name": "oldRate",
          "type": "uint256"
        },
        {
          "indexed": false,
          "internalType": "uint256",
          "name": "newRate",
          "type": "uint256"
        }
      ],
      "name": "ExchangeRateUpdated",
      "type": "event"
    },
    {
      "anonymous": false,
      "inputs": [
        {
          "indexed": false,
          "internalType": "uint256",
          "name": "oldPrice",
          "type": "uint256"
        },
        {
          "indexed": false,
          "internalType": "uint256",
          "name": "newPrice",
          "type": "uint256"
        }
      ],
      "name": "GasPriceUpdated",
      "type": "event"
    },
    {
      "anonymous": false,
      "inputs": [
        {
          "indexed": true,
          "internalType": "address",
          "name": "previousOwner",
          "type": "address"
        },
        {
          "indexed": true,
          "internalType": "address",
          "name": "newOwner",
          "type": "address"
        }
      ],
      "name": "OwnershipTransferred",
      "type": "event"
    },
    {
      "anonymous": false,
      "inputs": [
        {
          "indexed": true,
          "internalType": "address",
          "name": "user",
          "type": "address"
        },
        {
          "indexed": false,
          "internalType": "uint256",
          "name": "tshcAmount",
          "type": "uint256"
        },
        {
          "indexed": false,
          "internalType": "uint256",
          "name": "gasUsed",
          "type": "uint256"
        }
      ],
      "name": "TransactionSponsored",
      "type": "event"
    },
    {
      "anonymous": false,
      "inputs": [
        {
          "indexed": true,
          "internalType": "address",
          "name": "account",
          "type": "address"
        },
        {
          "indexed": false,
          "internalType": "uint256",
          "name": "amount",
          "type": "uint256"
        }
      ],
      "name": "Withdrawn",
      "type": "event"
    },
    {
      "inputs": [
        {
          "internalType": "uint256",
          "name": "_gasAmount",
          "type": "uint256"
        }
      ],
      "name": "calculateTSHCCost",
      "outputs": [
        {
          "internalType": "uint256",
          "name": "",
          "type": "uint256"
        }
      ],
      "stateMutability": "view",
      "type": "function"
    },
    {
      "inputs": [
        {
          "internalType": "uint256",
          "name": "_amount",
          "type": "uint256"
        }
      ],
      "name": "deposit",
      "outputs": [],
      "stateMutability": "nonpayable",
      "type": "function"
    },
    {
      "inputs": [
        {
          "internalType": "address",
          "name": "",
          "type": "address"
        }
      ],
      "name": "deposits",
      "outputs": [
        {
          "internalType": "uint256",
          "name": "",
          "type": "uint256"
        }
      ],
      "stateMutability": "view",
      "type": "function"
    },
    {
      "inputs": [],
      "name": "exchangeRate",
      "outputs": [
        {
          "internalType": "uint256",
          "name": "",
          "type": "uint256"
        }
      ],
      "stateMutability": "view",
      "type": "function"
    },
    {
      "inputs": [],
      "name": "gasPrice",
      "outputs": [
        {
          "internalType": "uint256",
          "name": "",
          "type": "uint256"
        }
      ],
      "stateMutability": "view",
      "type": "function"
    },
    {
      "inputs": [],
      "name": "getTSHCBalance",
      "outputs": [
        {
          "internalType": "uint256",
          "name": "",
          "type": "uint256"
        }
      ],
      "stateMutability": "view",
      "type": "function"
    },
    {
      "inputs": [],
      "name": "owner",
      "outputs": [
        {
          "internalType": "address",
          "name": "",
          "type": "address"
        }
      ],
      "stateMutability": "view",
      "type": "function"
    },
    {
      "inputs": [],
      "name": "renounceOwnership",
      "outputs": [],
      "stateMutability": "nonpayable",
      "type": "function"
    },
    {
      "inputs": [
        {
          "internalType": "address",
          "name": "_user",
          "type": "address"
        },
        {
          "internalType": "uint256",
          "name": "_gasUsed",
          "type": "uint256"
        }
      ],
      "name": "sponsorTransaction",
      "outputs": [],
      "stateMutability": "nonpayable",
      "type": "function"
    },
    {
      "inputs": [
        {
          "internalType": "address",
          "name": "newOwner",
          "type": "address"
        }
      ],
      "name": "transferOwnership",
      "outputs": [],
      "stateMutability": "nonpayable",
      "type": "function"
    },
    {
      "inputs": [],
      "name": "tshc",
      "outputs": [
        {
          "internalType": "contract IERC20",
          "name": "",
          "type": "address"
        }
      ],
      "stateMutability": "view",
      "type": "function"
    },
    {
      "inputs": [
        {
          "internalType": "uint256",
          "name": "_newExchangeRate",
          "type": "uint256"
        }
      ],
      "name": "updateExchangeRate",
      "outputs": [],
      "stateMutability": "nonpayable",
      "type": "function"
    },
    {
      "inputs": [
        {
          "internalType": "uint256",
          "name": "_newGasPrice",
          "type": "uint256"
        }
      ],
      "name": "updateGasPrice",
      "outputs": [],
      "stateMutability": "nonpayable",
      "type": "function"
    },
    {
      "inputs": [
        {
          "internalType": "uint256",
          "name": "_amount",
          "type": "uint256"
        }
      ],
      "name": "withdraw",
      "outputs": [],
      "stateMutability": "nonpayable",
      "type": "function"
    }
  ],
  "bytecode": "0x6080604052633b9aca00600255606460035534801561001d57600080fd5b50604051610be5380380610be583398101604081905261003c91610138565b338061006357604051631e4fbdf760e01b8152600060048201526024015b60405180910390fd5b61006c816100e8565b506001600160a01b0381166100c35760405162461bcd60e51b815260206004820152601b60248201527f5453484320616464726573732063616e6e6f74206265207a65726f0000000000604482015260640161005a565b600180546001600160a01b0319166001600160a01b0392909216919091179055610168565b600080546001600160a01b038381166001600160a01b0319831681178455604051919092169283917f8be0079c531659141344cd1fd0a4f28419497f9722a3daafe3b4186f6b6457e09190a35050565b60006020828403121561014a57600080fd5b81516001600160a01b038116811461016157600080fd5b9392505050565b610a6e806101776000396000f3fe608060405234801561001057600080fd5b50600436106100ea5760003560e01c8063b6b55f251161008c578063d06d3fbe11610066578063d06d3fbe146101bf578063f2fde38b146101c7578063fc7e286d146101da578063fe173b97146101fa57600080fd5b8063b6b55f2514610186578063b9e205ae14610199578063c1198217146101ac57600080fd5b8063715018a6116100c8578063715018a6146101335780638da5cb5b1461013b578063abc8101d14610160578063ac5678c51461017357600080fd5b8063204cff81146100ef5780632e1a7d4d146101045780633ba0b9a914610117575b600080fd5b6101026100fd366004610908565b610203565b005b610102610112366004610908565b6102b2565b61012060035481565b6040519081526020015b60405180910390f35b610102610468565b6000546001600160a01b03165b6040516001600160a01b03909116815260200161012a565b61012061016e366004610908565b61047c565b61010261018136600461093d565b6104b7565b610102610194366004610908565b6105d6565b6101026101a7366004610908565b610735565b600154610148906001600160a01b031681565b6101206107db565b6101026101d5366004610967565b61084d565b6101206101e8366004610967565b60046020526000908152604090205481565b61012060025481565b61020b61088b565b6000811161026c5760405162461bcd60e51b815260206004820152602360248201527f476173207072696365206d7573742062652067726561746572207468616e207a60448201526265726f60e81b60648201526084015b60405180910390fd5b600280549082905560408051828152602081018490527f4afe44d7dc150ca7bf2407ab84e694efb1898578aa5008d8d4265039f411e4c391015b60405180910390a15050565b600081116103025760405162461bcd60e51b815260206004820181905260248201527f416d6f756e74206d7573742062652067726561746572207468616e207a65726f6044820152606401610263565b336000908152600460205260409020548111156103585760405162461bcd60e51b8152602060048201526014602482015273496e73756666696369656e742062616c616e636560601b6044820152606401610263565b3360009081526004602052604081208054839290610377908490610998565b909155505060015460405163a9059cbb60e01b8152336004820152602481018390526001600160a01b039091169063a9059cbb906044016020604051808303816000875af11580156103cd573d6000803e3d6000fd5b505050506040513d601f19601f820116820180604052508101906103f191906109b1565b61042f5760405162461bcd60e51b815260206004820152600f60248201526e151c985b9cd9995c8819985a5b1959608a1b6044820152606401610263565b60405181815233907f7084f5476618d8e60b11ef0d7d3f06914655adb8793e28ff7f018d4c76d505d5906020015b60405180910390a250565b61047061088b565b61047a60006108b8565b565b6000806002548361048d91906109d3565b9050670de0b6b3a7640000600354826104a691906109d3565b6104b091906109ea565b9392505050565b6104bf61088b565b6000600254826104cf91906109d3565b90506000670de0b6b3a7640000600354836104ea91906109d3565b6104f491906109ea565b6001600160a01b03851660009081526004602052604090205490915081111561055f5760405162461bcd60e51b815260206004820152601960248201527f496e73756666696369656e7420545348432062616c616e6365000000000000006044820152606401610263565b6001600160a01b03841660009081526004602052604081208054839290610587908490610998565b909155505060408051828152602081018590526001600160a01b038616917fc41dbbb956c84ad0232dc95878b9c97bf785c816b58969fd300886297ce9f89a910160405180910390a250505050565b600081116106265760405162461bcd60e51b815260206004820181905260248201527f416d6f756e74206d7573742062652067726561746572207468616e207a65726f6044820152606401610263565b6001546040516323b872dd60e01b8152336004820152306024820152604481018390526001600160a01b03909116906323b872dd906064016020604051808303816000875af115801561067d573d6000803e3d6000fd5b505050506040513d601f19601f820116820180604052508101906106a191906109b1565b6106df5760405162461bcd60e51b815260206004820152600f60248201526e151c985b9cd9995c8819985a5b1959608a1b6044820152606401610263565b33600090815260046020526040812080548392906106fe908490610a0c565b909155505060405181815233907f2da466a7b24304f47e87fa2e1e5a81b9831ce54fec19055ce277ca2f39ba42c49060200161045d565b61073d61088b565b6000811161079d5760405162461bcd60e51b815260206004820152602760248201527f45786368616e67652072617465206d7573742062652067726561746572207468604482015266616e207a65726f60c81b6064820152608401610263565b600380549082905560408051828152602081018490527fc8d1043f24843c0a1c9251fdc30017d84e87498fbcf232af9f86816b5e182bde91016102a6565b6001546040516370a0823160e01b81523060048201526000916001600160a01b0316906370a0823190602401602060405180830381865afa158015610824573d6000803e3d6000fd5b505050506040513d601f19601f820116820180604052508101906108489190610a1f565b905090565b61085561088b565b6001600160a01b03811661087f57604051631e4fbdf760e01b815260006004820152602401610263565b610888816108b8565b50565b6000546001600160a01b0316331461047a5760405163118cdaa760e01b8152336004820152602401610263565b600080546001600160a01b038381166001600160a01b0319831681178455604051919092169283917f8be0079c531659141344cd1fd0a4f28419497f9722a3daafe3b4186f6b6457e09190a35050565b60006020828403121561091a57600080fd5b5035919050565b80356001600160a01b038116811461093857600080fd5b919050565b6000806040838503121561095057600080fd5b61095983610921565b946020939093013593505050565b60006020828403121561097957600080fd5b6104b082610921565b634e487b7160e01b600052601160045260246000fd5b818103818111156109ab576109ab610982565b92915050565b6000602082840312156109c357600080fd5b815180151581146104b057600080fd5b80820281158282048414176109ab576109ab610982565b600082610a0757634e487b7160e01b600052601260045260246000fd5b500490565b808201808211156109ab576109ab610982565b600060208284031215610a3157600080fd5b505191905056fea26469706673582212208ddbde559a087473e480e5983f87078ea76437ff9a8f10c9325f8e62a8b3f86e64736f6c63430008140033",
  "linkReferences": {},
  "deployedLinkReferences": {}
}